:020000040800F2
:10000000A004002045010008151A00083F1400084C
:10001000FD19000885060008351C000800000000D6
:10002000000000000000000000000000191A000895
:100030008706000800000000171A00081B1A0008B5
:100040005F0100085F0100085F0100085F01000810
:100050005F0100085F0100085F0100085F01000800
:100060005F0100085F0100085F0100085F010008F0
:100070005F0100085F0100085F0100085F010008E0
:100080005F0100085F0100085F0100085F010008D0
:100090005F0100085F0100085F0100085F010008C0
:1000A0005F0100085F0100085F0100085F010008B0
:1000B0005F0100085F0100085F0100085F010008A0
:1000C0005F0100085F0100085F0100085F01000890
:1000D0005F0100085F0100085F0100085F01000880
:1000E0005F0100085F0100085F0100085F01000870
:1000F0005F0100085F0100085F0100085F01000860
:100100005F0100085F0100085F0100085F0100084F
:100110005F0100085F0100085F010008811A000804
:100120005F0100085F0100085F0100085F0100082F
:10013000DFF80CD000F094FA00480047051E0008D4
:10014000A00400200648804706480047FEE7FEE777
:10015000FEE7FEE7FEE7FEE7FEE7FEE7FEE7FEE777
:100160007D1A000831010008202A04DB203A21FA18
:1001700002F00021704721FA02F3D040C2F12002C0
:100180009140084319467047D2B201E000F8012BB4
:10019000491EFBD270470022F6E710B513460A4607
:1001A00004461946FFF7F0FF204610BD80EA010221
:1001B00010B502F00043400022D04A001FD0010ECB
:1001C00001EB1261C0F35600C2F3560240F4000086
:1001D00042F40002A0FB022000047F39140400D086
:1001E000401C50EA124001D44000491EC2B20C0625
:1001F00004EBD010401C4008802A02D003E000200D
:1002000010BD20F00100002900DA0020184310BDC5
:100210002DE9FE4F804681EA0300C00F0C46009096
:1002200021F0004123F00045B8EB0200A94105D2BE
:100230004046214690461C460B46024623F00040AD
:10024000104347D0270DC7F30A00C3F30A510290A9
:10025000401A019040286BDAC3F3130040F4801B6E
:100260000098924620B10023D2EB030A63EB0B0BFC
:1002700001985946C0F14002504600F03BF906464D
:100280000D4650465946019A00F043F910EB08001C
:100290006141002487EA115284EAE7731A4340D08F
:1002A000009A62B3019A012A4FEA075215DC001B3B
:1002B00061EB02014FF0004202EA0752CDE9004231
:1002C000001C41F5801132462B4600F07AF903B04C
:1002D000BDE8F08F40462146F9E7001B61EB0201C3
:1002E000001C41F5801300185B412018A2F500178F
:1002F00047EB030140EAD570B6196D4111E06D0876
:100300004FEA360645EAC0754FEA0752001B61EB1B
:100310000201001C41F5801149084FEA3000001924
:10032000514132462B4603B0BDE8F04F00F03AB9D8
:100330000098012240000023D0EB020263EBE0733F
:10034000009821464FEAE074B8EB000061EB04012D
:10035000E9E783F000435BE781F0004158E72DE9CE
:10036000F04D81EA030404F0004B21F000451446EF
:100370004FF0000A23F0004150EA050220D054EA71
:1003800001021DD0C5F30A570246C5F31303C1F39A
:100390001300C1F30A5640F4801543F48013A7EB11
:1003A0000608101BD64608F2FD3873EB050002D391
:1003B00008F1010801E092185B41B8F1000F03DA7F
:1003C00000200146BDE8F08D00204FF48011064664
:1003D00084460EE0171B73EB050705D3121B63EB76
:1003E000050306434CEA010C49084FEA3000921815
:1003F0005B4150EA0107EDD152EA030012D082EAD4
:10040000040083EA0501084305D0101BAB4106D266
:100410000122002306E000224FF0004302E06FF0CB
:10042000010253101AEB06004CEB085110EB0A00C6
:1004300041EB0B01BDE8F04D00F0B4B80EB5C10FB3
:1004400080EAE0700844CA07002140F233438DE897
:100450000E000A460B4600F0B4F803B000BD00F0F1
:10046000004220F00040C10DC0F3160040F400002F
:100470007F2901DA00207047962903DCC1F196013B
:10048000C84001E096398840002AF4D040427047C5
:1004900001F0004330B421F0004150EA010206D0DF
:1004A0000A0DA2F56072C1F31301002A02DC30BC10
:1004B00000207047440F44EAC104C100E01830BC7A
:1004C00000EBC25000F037B830B50B4601460020B3
:1004D0002022012409E021FA02F59D4205D303FA06
:1004E00002F5491B04FA02F52844151EA2F1010287
:1004F000F1DC30BD202A04DB203A00FA02F10020B2
:1005000070479140C2F1200320FA03F31943904051
:100510007047202A06DBCB17203A41FA02F043EA63
:10052000E07306E041FA02F3D040C2F120029140AC
:100530000843194670470029A8BF7047401C49006E
:1005400008BF20F00100704710B4B0FA80FC00FA38
:100550000CF050EA010404BF10BC704749B1CCF163
:10056000200421FA04F411FA0CF118BF01212143EF
:100570000843A3EB0C01CB1D4FEA00614FEA1020AA
:1005800042BF002010BC704700EBC350104400294C
:10059000A4BF10BC7047401C490008BF20F00100F8
:1005A00010BC704710B5141E73F1000408DA401C2B
:1005B00041F1000192185B411A4301D120F0010082
:1005C00010BD2DE9F04D92469B4611B1B1FA81F272
:1005D00002E0B0FA80F220329046FFF78BFF04462B
:1005E0000F4640EA0A0041EA0B0153465A460843C7
:1005F00013D0114653EA010019D0C8F14002504609
:10060000FFF7B2FD05460E46504659464246FFF7F3
:1006100071FF084305D0012004E020463946BDE8BB
:10062000F08D0020054346EAE0762C4337430A98D4
:100630006305E40AA0EB08000022FD0A44EA4754DF
:100640000A3002D500200146E9E701051019694189
:10065000DDE9084500196941BDE8F04DA2E7000059
:10066000064C074D06E0E06840F0010394E80700FF
:1006700098471034AC42F6D3FFF75EFDF81E000831
:10068000181F0008FEE7704710B54FF4807420462D
:1006900000F0C4F90549086840F0040008602046ED
:1006A00000F0CAF9BDE8104000F0D4B90070004075
:1006B00070B5044600F014F90546601C02D00448E9
:1006C0000078044400F00CF9401BA042FAD370BD3E
:1006D000040000202DE9F84FDFF8C891002409F14B
:1006E000040A0AF1040B23460F270BF1040ED1E094
:1006F0000125A54006EA0502AA4276D1DFF8A8C185
:100700004E68A6EB0C0866452BD00DDC032E34D0CA
:1007100005DC36B3012E19D0022E2FD11BE0112E8D
:1007200016D0122E2AD119E0B8F5881F19D006DC90
:10073000B8F5803F15D0B8F5801F1FD111E0B8F58E
:10074000001F0ED0B8F5041F18D10AE0CB6815E0E1
:10075000CB681B1D12E0CB6808330FE0CB680C336D
:100760000CE08B682BB1012B4FF0080303D04561DF
:1007700004E0042302E0056100E00023FF2A01D821
:10078000064601E000F104064FEA840501D9A5F10F
:100790002005D6F8008007FA05FC28EA0C0803FAC1
:1007A00005F548EA0508C6F800804D68ED0070D5EB
:1007B0003E4DAE6946F00106AE61AD6924F0030618
:1007C00005F0010500953A4D06EB050CDCF80850E4
:1007D000A607360F07FA06F825EA0805DFF8D480E1
:1007E000404503D14FF0000825E052E0DFF8C88013
:1007F000404502D14FF001081DE0DFF8C0804045C0
:1008000002D14FF0020816E0DFF8B480404502D173
:100810004FF003080FE0DFF8AC80404502D14FF005
:10082000040808E0DFF8A080404502D14FF0050839
:1008300001E04FF0060808FA06F848EA0508CCF887
:1008400008804D68D9F80060ED034D4601D5164388
:1008500000E096432E604D68DAF80060AD0355461F
:1008600001D5164300E096432E604D68DBF800602A
:10087000ED025D4601D5164300E096432E604D68BB
:10088000DEF80060AD02754601D5164300E09643E0
:100890002E60641C0A681646E2407FF429AFBDE86A
:1008A000F88F000000040140000011100010024009
:1008B0000000014000080140000C01400010014010
:1008C0000014014000180140001C014080680840ED
:1008D00000D0012070470AB1016170470904FBE7AD
:1008E00001488068704700000400002002488168C9
:1008F000027811448160704704000020074810B559
:10090000016841F010010160032000F075F800203B
:1009100000F006F800F024F8002010BD002002408E
:1009200070B50D4D04464FF47A712878B1FBF0F0A4
:100930000A490968B1FBF0F000F018FB48B9102C27
:1009400007D200222146501E00F036F800206C60CD
:1009500070BD012070BD00000400002010000020C8
:100960000C4808B5816941F001018161816901F09C
:1009700001010091C16941F08051C161C06900F07D
:10098000805000900448416821F0E06141F08061AE
:10099000416008BD0010024000000140002809DB52
:1009A00000F01F02012191404009800000F1E02089
:1009B000C0F8001170470000F0B40E4B1B680C46E5
:1009C000C3F30223C3F10705042D00D90425191D23
:1009D000072901D2002300E0DB1E012606FA05F1FB
:1009E000491E214099409E40761E16403143F0BC7E
:1009F00001F032B90CED00E0064900F0070208688A
:100A00004FF6FF03184040EA0220034A10430860F3
:100A1000704700000CED00E00000FA0590FAA0F02D
:100A2000044AB0FA80F002EB80000021C0F8801088
:100A30007047000000000E4290FAA0F0044AB0FA9D
:100A400080F002EB80000121C0F8801070470000A8
:100A500000000E420548016841F0020101600448AF
:100A6000016841F00401016030BF70470070004030
:100A700010ED00E02DE9F0470F46050061D0434E30
:100A8000306800F00700B84209D2306820F0070053
:100A900038433060306800F00700B84251D1286810
:100AA0003B4C810712D5400703D5606840F4E060F5
:100AB00060602878000703D5606840F4605060608B
:100AC0006068A96820F0F000084360602878C007DB
:100AD00028D06868012810D02168022810D0890722
:100AE00000292EDA616821F0030101436160FFF7FC
:100AF000F7FE804641F288390DE021688903EFE76F
:100B00008901EDE7FFF7ECFEA0EB0801494502D9AA
:100B10000320BDE8F0876068696800F00C00B0EB66
:100B2000810FEFD1306800F00700B8420BD9306870
:100B300020F0070038433060306800F00700B8420A
:100B400001D00120E5E72878400705D56068E9680D
:100B500020F4E060084360602878000706D56068EC
:100B6000296920F4605040EAC100606000F038F864
:100B70006168084AC1F30311515CC8400649086026
:100B800006480068FFF7CCFE0020C2E700200240C4
:100B900000100240E01E00081000002008000020A5
:100BA0000448054900684968044AC1F30221515CC0
:100BB000C84070471000002000100240F01E0008DE
:100BC0000448054900684968044AC1F3C221515CE0
:100BD000C84070471000002000100240F01E0008BE
:100BE00012A185B00FC98DE80F0014A0144A006847
:100BF00004905168134801F00C03042B10D0082B0B
:100C00000ED1C1F38343C9031DF803000AD551680F
:100C100004AAC1F34041515C0A4A5043B0FBF1F0D1
:100C200005B0704708494843FAE70000020304058D
:100C3000060708090A0B0C0D0E0F10100102000028
:100C40000010024000127A0000093D002DE9F84F23
:100C5000040070D02078C04DC00749D06868C0F348
:100C60008100012807D06868C0F38100022809D1FB
:100C70006868C00306D52868800339D560680028F5
:100C8000E7D035E06068B0F5803F0BD010B1B0F52B
:100C9000A02F11D0286820F480302860286820F424
:100CA000802002E0286840F480302860606890B1BD
:100CB000FFF716FE06460AE0286840F48020286008
:100CC000F0E700BFFFF70CFE801B642873D828688C
:100CD0008003F7D50CE0FFF703FE064605E000BFF2
:100CE000FFF7FEFD801B6428F0D828688003F7D446
:100CF00020789A4E80074FF001094FF0000839D54F
:100D0000686810F00C0F07D06868C0F381000228F3
:100D100009D16868C00306D42868800714D5206903
:100D2000012808D110E02069B0B1C6F80090FFF7A3
:100D3000D7FD074605E00AE1FFF7D2FDC01B0228F8
:100D4000C4D828688007F7D52868616920F0F800C2
:100D500040EAC10028600DE0C6F80080FFF7C0FD42
:100D6000074604E0FFF7BCFDC01B022823D8286813
:100D70008007F7D4207800072CD57948A169D9B12C
:100D8000C0F80090FFF7ACFD074604E0FFF7A8FDB0
:100D9000C01B02280FD8686A8007F7D571484FF446
:100DA000FA510068B0FBF1F0009000BF0098411EBE
:100DB0000091FAD20EE080E0C0F80080FFF790FDCD
:100DC000074604E0FFF78CFDC01B022875D8686A4F
:100DD0008007F7D42078400760D5E8690027C00075
:100DE00008D4E86940F08050E861E869012700F024
:100DF000805000905C480168C90513D4016883469F
:100E000041F480710160FFF76BFD824606E000BF90
:100E1000FFF766FDA0EB0A0064284ED8DBF800005F
:100E2000C005F5D5E06801280AD008B1052813D01F
:100E3000286A20F001002862286A20F0040002E0FD
:100E4000286A40F001002862E06841F2883B98B1CE
:100E5000FFF746FD82460BE0286A40F00400286256
:100E6000EEE700BFFFF73CFDA0EB0A0159455AD859
:100E7000286A8007F6D50CE0FFF732FD824605E0D0
:100E8000FFF72EFDA0EB0A0159454CD8286A8007D0
:100E9000F6D41FB1E86920F08050E861E06988B3BA
:100EA0006968C1F38101022944D00228C6F8608034
:100EB00004D0FFF715FD044638E034E0FFF710FDDD
:100EC000074604E0FFF70CFDC01B02282BD828685A
:100ED0008001F7D4206AB0F5803F05D16868A16829
:100EE00020F4003008436860D4E9080108436968C9
:100EF00021F4741108436860C6F86090FFF7F0FCB5
:100F0000044606E025E000BFFFF7EAFC001B0228CC
:100F100009D828688001F7D51BE000BFFFF7E0FC87
:100F2000001B022802D90320BDE8F88F2868800141
:100F3000F4D40EE00128F7D06868226A00F480310A
:100F4000914204D1616A00F47010884201D00120FE
:100F5000EAE70020E8E700000010024000004242FB
:100F600080044242100000200070004010B5401E76
:100F7000B0F1807F01D3012010BD4FF0E02460610B
:100F80000F21601700F068FE0020A061072020619B
:100F9000002010BD7047704770B590F83C20012AC2
:100FA0002CD0012480F83C40022280F83D200368C8
:100FB0005A689D6822F070060A6832435A60104BE6
:100FC00002689A420ED00F4B9A420BD0B2F1804F7A
:100FD00008D00D4B9A4205D00C4B9A4202D00C4BD4
:100FE0009A4204D1496825F080031943916080F842
:100FF0003D40002180F83C10084670BD022070BDC5
:10100000002C014000340140000400400008004072
:10101000000C004010B5040003D094F83D0010B15E
:1010200007E0012010BD002084F83C00204600F0BD
:101030001FF8022084F83D00211D206800F026FDE5
:10104000012084F8460084F83E0084F83F0084F8CC
:10105000400084F8410084F8420084F8430084F89A
:10106000440084F8450084F83D00002010BD0000D5
:1010700008B500680B49884212D10B48C16941F09C
:101080002001C161C069002200F020000090012110
:101090003720FFF791FCBDE808403720FFF77EBC02
:1010A00008BD0000001400400010024090F83D1000
:1010B000012901D001207047022180F83D1001680C
:1010C000CA6842F00102CA6000680E4988420ED028
:1010D0000D4988420BD0B0F1804F08D00B498842AF
:1010E00005D00B49884202D00A49884204D1816860
:1010F00001F00701062903D0016841F001010160F8
:1011000000207047002C01400034014000040040E2
:1011100000080040000C0040704770B504460068AD
:1011200001694FF00005C943890715D4C168C94357
:10113000890711D4E91E01610120207720688069A8
:101140008007204602D0FFF7E7FF04E000F098F8A0
:10115000204600F096F8257720680169C9434907C1
:1011600017D4C168C943490713D46FF00401016162
:10117000022020772068806910F4407F204602D04A
:10118000FFF7CAFF04E000F07BF8204600F079F892
:10119000257720680169C943090716D4C168C94386
:1011A000090712D46FF0080101610420207720683C
:1011B000C0698007204602D0FFF7AEFF04E000F0D0
:1011C0005FF8204600F05DF8257720680169C94383
:1011D000C90617D4C168C943C90613D46FF01001FA
:1011E0000161082020772068C06910F4407F204604
:1011F00002D0FFF791FF04E000F042F8204600F033
:1012000040F8257720680169C943C90708D1C1683A
:10121000C943C90704D1891E0161204600F032F894
:1012200020680169C943090609D4C168C943090690
:1012300005D46FF0800101612046FFF7ABFE206806
:101240000169C943490609D4C168C943490605D49F
:101250006FF040010161204600F02EF8206801691E
:10126000C94389060BD4C168C943890607D46FF006
:10127000200101612046BDE87040FFF78CBE70BDC3
:10128000704770470A4908B588420FD10949086874
:10129000421C0A603C2809DB002008606B460122E2
:1012A0003A21682000F0CEFAFFF7EEF908BD000001
:1012B0001800002000000020704770B5040004D022
:1012C00094F83900002510B106E0012070BD84F8C3
:1012D0003850204600F022F8242084F83900206895
:1012E000C16821F40051C160204600F015FC20685F
:1012F000016921F4904101612068416921F02A01CE
:1013000041612068C16841F40051C160E56320205B
:1013100084F8390084F83A00002070BD30B585B0FB
:1013200000240094019402940394006814498842B4
:1013300024D11448816941F480418161816901F4BB
:1013400080410491816941F00401816180690E4D01
:1013500000F0040004904FF400700090022001900F
:101360000320039069462846FFF7B4F92815CDE914
:101370000004694628460294FFF7ACF905B030BD79
:101380000038014000100240000801402DE9F843F8
:10139000044690F839001F4616460D4620284CD1C9
:1013A000C5B1BEB194F83800012846D0012084F8B8
:1013B00038004FF00008C4F83C80212084F8390040
:1013C000FFF78EFAA6848146E684A068B0F5805FB8
:1013D00003D004E00120BDE8F883206928B12E463F
:1013E0005FF0000584F838800EE00026FAE78021DF
:1013F000204600F0EDFBA0B9AEB116F8010B216854
:101400004860E08C401EE084E08C4B464FF00002C8
:1014100000970028EBD14FF04001204600F0D8FBA8
:1014200030B10320D7E735F8020BC0F30800E6E738
:10143000202084F839000020CDE70220CBE7FEE72A
:101440007CB514460D4606466B4606223B216820B5
:1014500000F0F8F900280BD1BDF8001049BA31802E
:10146000BDF8021049BA2980BDF8041049BA21809C
:101470007CBD000008B56B4602224121682000F0C7
:10148000E1F9BDF8000040BA00B2FEF7D7FF002234
:10149000074BFEF764FF074A074BFEF7B9FEFEF75E
:1014A000F7FF0649FEF782FEFEF7D9FF00B208BD3E
:1014B00000407540A4703D0AD74342400000C84236
:1014C00070B5134D4FF48064002221462846FFF783
:1014D00002FA2A1D106820F470401060106840F471
:1014E00040501060002261002846FFF7F4F900F038
:1014F00011F8012221462846FFF7EDF900F00AF81D
:1015000021462846BDE870400022FFF7E4B90000FC
:10151000000C01400020401CC0B20A28FBD37047D9
:101520007047000070B5134D4FF4806400222146CF
:101530002846FFF7D0F92A1D106820F4704010608B
:10154000106840F4405010600122D1022846FFF795
:10155000C2F9FFF7DFFF012221462846FFF7BBF95A
:10156000FFF7D8FF21462846BDE870400022FFF76C
:10157000B2B90000000C01402DE9F04780461A483E
:101580000024016821F470410160016841F40041C8
:10159000016006152546071F4FF4006900223146F9
:1015A0003846FFF798F9FFF7B5FF01223146384674
:1015B000FFF791F96006040E49463846FFF786F9B1
:1015C00008B1641CE4B2FFF7A5FF6D1CEDB2082D55
:1015D000E4D3B8F1000F04D0FFF772FF2046BDE856
:1015E000F087FFF79FFFF9E7040C01402DE9F04178
:1015F00005461748016821F470410160016841F413
:10160000405101600715061F002239463046FFF79A
:1016100062F900244FF40068EA0941463046FFF7BA
:101620005AF96806050E012239463046FFF753F98C
:10163000FFF770FF002239463046FFF74CF9FFF7FD
:1016400069FF641CE4B2082CE6D3BDE8F081000019
:10165000040C014070B51348016821F47041016029
:10166000016841F440510160C414051F0122214664
:101670002846FFF730F90122960231462846FFF747
:101680002AF9FFF747FF002221462846FFF723F9F2
:10169000FFF740FF31462846BDE870400022FFF7C3
:1016A0001AB90000040C014070B51348016821F418
:1016B00070410160016841F4405101600415051F4B
:1016C000002221462846FFF706F96600002231462F
:1016D0002846FFF700F9FFF71DFF012221462846A3
:1016E000FFF7F9F8012231462846FFF7F4F8BDE884
:1016F0007040FFF70FBF0000040C01402DE9F041DE
:1017000018480024016821F470410160016841F427
:1017100000410160C614051F012231462846FFF72B
:10172000DAF8FFF7F7FE0122970239462846FFF75D
:10173000D2F8FFF7EFFE08E0641CE4B2FA2C04D9FB
:10174000FFF7B2FF0120BDE8F08131462846FFF7E0
:10175000BDF80028F0D1002239462846FFF7BBF833
:101760000020F0E7040C014010B500F048F9042116
:101770001A2000F0D6F81C21084600F0D2F82021EB
:10178000372000F0CEF84021BDE81040382000F0AE
:10179000C8B810B5FFF7C4FE80216B2000F0C1F877
:1017A0006420FEF785FF00216B2000F0BAF80320CB
:1017B00000F083F8002000F07BF8322000F09AF867
:1017C0000021382000F0ADF800216A2000F0A9F8CF
:1017D0000021232000F0A5F88021372000F0A1F897
:1017E000752000F011F8682801D0012010BD0121FA
:1017F0006B2000F096F800216C2000F092F8322067
:1018000000F078F8002010BD10B50446FFF722FF65
:10181000D020FFF7EBFEFFF771FF2046FFF7E6FE53
:10182000FFF76CFFFFF716FFD120FFF7DFFEFFF792
:1018300065FF0020FFF7A0FE0446FFF735FF2046B6
:1018400010BD00002DE9F0411D4614460F46064626
:10185000FFF700FF7006000EFFF7C8FEFFF74EFF10
:1018600020B1FFF721FF0120BDE8F0813846FFF7E6
:10187000BDFEFFF743FFFFF7EDFE012000EB460042
:10188000C0B2FFF7B3FEFFF739FF09E0012C0DD01E
:101890005FF00100FFF770FE641E05F8010BE4B273
:1018A000002CF3D1FFF700FF0020DDE70020F1E777
:1018B000C006010E1C2000F034B8C006010E1B202B
:1018C00000F02FB8BC2801D3012110E0622801D319
:1018D00002210CE02A2801D3032108E0142801D3B7
:1018E000042104E00A2801D3052100E006211A2082
:1018F00000F017B810B504464FF47A70844201D94D
:10190000044602E0042C00D20424B0FBF4F0401E94
:10191000C1B2192000F005F86008BDE81040FFF7DB
:10192000D1BF70B50C460546FFF794FED020FFF7F7
:101930005DFEFFF7E3FE50B92846FFF757FEFFF7BD
:10194000DDFE2046FFF752FEFFF7D8FE18B1FFF785
:10195000ABFE012070BDFFF7A7FE002070BD0000A8
:101960002DE9F04385B000242148009401940294AD
:101970000394816941F040018161816901F0400176
:101980000491816941F004018161816901F00401E0
:101990000491816941F0080181618069DFF8548018
:1019A00000F008000490002220214046FEF793FF3B
:1019B000DFF844904FF44067012239464846FEF76D
:1019C0008AFF202001250226CDE90005CDE9024647
:1019D00069464046FEF77EFE00970396CDE9015426
:1019E00069464846FEF776FE05B0BDE8F083000084
:1019F0000010024000180140000C0140FEE710B545
:101A000022211F20FFF78DFF1421BDE81040202068
:101A1000FFF787BFFEE770477047FEF767BF30B537
:101A20008FB028216846FEF7B6FB14210AA8FEF7FE
:101A3000B2FB01210804CDE9001000240294022524
:101A40000491CDE907504FF4E01009906846FFF784
:101A5000FDF808B172B6FEE70F20CDE90A054FF494
:101A60008060CDE90C4002210AA80E94FFF702F82D
:101A7000002801D072B6FEE70FB030BD70470000FD
:101A80000148FFF74ABB000018000020F0B50268CB
:101A90001C4B1D4D1D4E1E4F1E4C4FF0804C98424E
:101AA00009D0A04207D0604505D0A84203D0B0427B
:101AB00001D0B84204D122F0700E4A6842EA0E0208
:101AC000984209D0A04207D0604505D0A84203D073
:101AD000B04201D0B84203D122F44075CA682A430B
:101AE0004D6922F080022A4302608A68C2620A6855
:101AF0008262984201D0A04201D1096901630121AB
:101B00004161F0BD002C014000040040000800408D
:101B1000000C00400034014070B5044600680169C3
:101B2000E26821F44051114301612169A068084332
:101B3000616908432168CA6841F20C639A43024311
:101B4000CA6020684169A26921F440711143416172
:101B50001E492068884202D1FFF732F801E0FFF702
:101B60001FF800EBC00101EB0012606864218000E7
:101B7000B2FBF0F3B3FBF1F36FF018067343B2FB63
:101B8000F0F5B2FBF0F605EB8305322303EB051508
:101B9000B5FBF1F5B6FBF1F605F0F00505EB061522
:101BA000B2FBF0F6B2FBF0F0B0FBF1F06FF0180210
:101BB000504306EB800003EB0010B0FBF1F021680E
:101BC00000F00F002844886070BD0000003801401C
:101BD0002DE9F041984617460E460446069D1DE045
:101BE000681C1BD02DB1FEF77BFEA0EB0800A842BD
:101BF00014D92068C16821F4D071C160206841699E
:101C000021F001014161202084F8390084F83A0074
:101C1000002084F838000320BDE8F08120680068C7
:101C200036EA000004D00020B842D9D00020F3E703
:101C30000120F9E7FEE700000FB4054B10B503A93A
:101C4000044A029800F028F810BC5DF814FB00006C
:101C5000ED1D0008140000200907090E002804DB10
:101C600000F1E02080F80014704700F00F0000F150
:101C7000E02080F8141D704702E008C8121F08C158
:101C8000002AFAD170477047002001E001C1121FFD
:101C9000002AFBD1704700002DE9FF4F89B09B4619
:101CA0000446002506E025280BD05A460B9990479C
:101CB000641C6D1C20780028F5D10DB02846BDE8C5
:101CC000F08F0027B8460122474900E0074314F887
:101CD000013F203B02FA03F00842F7D120782E287A
:101CE00019D114F8010F47F004072A280ED06FF01D
:101CF0002F022078A0F1300109290CD808EB8801C7
:101D000002EB410100EB0108641CF2E70A98641C35
:101D100050F8048B0A9020780028CED0642808D090
:101D2000692806D075281ED05A460B9990476D1C1D
:101D300058E00A994FF00A0901C90A91002802DA0D
:101D400040422D2102E0390504D52B218DF82010C9
:101D5000012103E0F90704D02021F7E78A4608AE05
:101D60000DE00021FAE70A994FF00A0901C90A912A
:101D7000F7E74946FEF7A8FB303106F8011D0028B9
:101D8000F7D1ADEB060000F12009780701D44FF040
:101D90000108C84502DDA8EB090000E000208046EC
:101DA000002706E008A85A46C05D0B9990476D1CB5
:101DB0007F1C5745F6DB04E030205A460B999047CC
:101DC0006D1CB8F10001A8F10108F5DC05E016F87A
:101DD000010B5A460B9990476D1CB9F10001A9F10E
:101DE0000109F4DC641C65E70928010013B54FF60E
:101DF000FF73012269460248FFF7C8FA00981CBD2C
:101E00006000002086B0FEF779FDFFF708FEFFF7BF
:101E1000A7FD00242848039426490494016041F654
:101E20001F41C0E9011440F2E7318461C160FFF74E
:101E3000F1F808B172B6FEE7039403A91E480494B2
:101E4000FFF7AAF808B172B6FEE71B481B494830F5
:101E500001604FF4E131C0E901140C21C460C0E914
:101E600004418461C461FFF728FA08B172B6FEE745
:101E70001148FFF71BF902E011A0FFF7DDFEFFF7A5
:101E800088FC0028F8D1FFF76FFC00BFFFF7F2FADB
:101E9000044605AA02A901A8FFF7D2FABDF9140069
:101EA0000090BDF90830BDF90420214606A0FFF7D7
:101EB000C3FEEBE70014004018000020003801408A
:101EC0006572726F720D0A004125640D0A42256425
:101ED0000D0A4325640D0A4425640D0A0000000024
:101EE00000000000000000000102030406070809CA
:101EF0000000000001020304181F00080000002079
:101F000018000000781C0008301F0008180000208E
:101F100088040000881C0008000000000100000088
:101F200010000000000000000024F4000000000089
:0400000508000131BD
:00000001FF
