:020000040800F2
:100000003890002045010008B1390008292F000868
:10001000393900085D040008614B00080000000049
:100020000000000000000000000000006147000820
:10003000BF04000800000000353A000863470008CC
:100040005F0100085F0100085F0100085F01000810
:100050005F0100085F0100085F0100085F01000800
:100060005F0100085F0100085F0100085F010008F0
:100070005F0100085F0100085F0100085F010008E0
:10008000710400087D0400085F0100085F0100089A
:100090005F0100085F0100085F0100085F010008C0
:1000A0005F0100085F0100085F0100085F010008B0
:1000B0005F0100085F0100085F0100085F010008A0
:1000C0005F0100085F0100085F0100085F01000890
:1000D000594600085F010008F54A00085F01000862
:1000E0005F0100085F0100085F0100085F01000870
:1000F0005F0100085F0100085F0100085F01000860
:100100005F010008F53A00085F0100085F01000880
:100110005F0100085F010008E54700085F01000873
:100120005F0100085F0100085F0100088904000802
:10013000DFF80CD000F070F8004800474960010873
:10014000389000200648804706480047FEE7FEE753
:10015000FEE7FEE7FEE7FEE7FEE7FEE7FEE7FEE777
:10016000E14700083101000840EA01039B0703D082
:1001700009E008C9121F08C0042AFAD203E011F8E6
:10018000013B00F8013B521EF9D27047D2B201E0A8
:1001900000F8012B491EFBD270470022F6E710B58C
:1001A00013460A4604461946FFF7F0FF204610BDE5
:1001B000421C10F8011B0029FBD1801A704710B5B2
:1001C000002200E0521C835C8C5CA34201D1002B16
:1001D000F8D1D8B2E1B2401A10BD034611F8012B94
:1001E00000F8012B002AF9D11846704730B50B46AC
:1001F000014600202022012409E021FA02F59D4257
:1002000005D303FA02F5491B04FA02F52844151E2A
:10021000A2F10102F1DC30BD064C074D06E0E068BA
:1002200040F0010394E8070098471034AC42F6D33D
:10023000FFF782FF64CF010884CF010870B58C18E6
:1002400010F8015B15F0070301D110F8013B2A11EA
:1002500006D110F8012B03E010F8016B01F8016BD7
:100260005B1EF9D12B0705D40023521E0DD401F8D3
:10027000013BFAE710F8013BCB1A921C03E013F89C
:10028000015B01F8015B521EF9D5A142D8D30020D1
:1002900070BD000070B5044600688168C943C90795
:1002A0001CD1816821F00101816000F073FF0546D7
:1002B0000FE000BF00F06EFF401B022809D9A06AC2
:1002C00040F01000A062E06A40F00100E06201200E
:1002D00070BD20688068C043C007EBD0002070BDAF
:1002E000F8B500260446009600688168C943C9072E
:1002F00028D0816841F001018160134813490068EA
:10030000B0FBF1F000E0401E00900028FBD100F0AF
:1003100041FF054611E000BF00F03CFF401B0228F2
:100320000BD9A06A40F01000A062E06A40F0010022
:10033000E06284F824600120F8BD20688068C04332
:10034000C007E9D10020F8BD1400002040420F0092
:10035000704700000146014801F08EBC900D00205E
:1003600010B5044801F09AFC042801D0012010BD0A
:10037000002010BD900D002010B500F015F80128E8
:1003800001D0012010BD074801F0A2FD040006D1F4
:100390004FF40061034801F027FB00B1012420461F
:1003A00010BD0000900D002008B501208DF8000060
:1003B0009DF8000008BD000038B5002400931346E6
:1003C0000A460146034801F02DFE00B101242046F3
:1003D00038BD0000900D00207047000038B50024A3
:1003E000009313460A460146034801F01FFF00B17F
:1003F0000124204638BD0000900D00207047000009
:1004000030B5814201D28031C9B20022104C13466E
:100410001546A554521C5B1CDBB2D2B2802BF8D31C
:1004200000220C4B08E000BF00F07F055D5DA55485
:10043000521C401CD2B2C0B28842F5D322780120AF
:100440000549442A01D0087030BD487030BD000015
:1004500084190020340F00202C000020FEE703E068
:100460008B4200D10270401C0378002BF8D17047FA
:10047000014800F0DDBB000054140020014800F0EA
:10048000D7BB000098140020014800F0D1BB000049
:100490001014002030B590F840500124AC40C56BDA
:1004A0006C60046863604368102B036803D0996034
:1004B0000068C26030BD9A600068C16030BD70479E
:1004C00010B54FF48074204600F002FF0749086819
:1004D00040F004000860204600F008FF002002F011
:1004E0004DFDBDE8104000F00FBF0000007000405F
:1004F00072B6FEE7002200F001B8000030B50E4BE6
:10050000054601205C7A012C15D8587A00241C5429
:10051000587A03EB800045605D7A03F108002A54A5
:10052000587A421C5A72303008703A2048702F2096
:100530008870CC70002030BD2C80002030B585B094
:1005400000256C4600F030F824F81500052000F076
:1005500009FD6D1CEDB20A2DF4D30021084601E01F
:1005600000200BE004EB400334F810205D88AA4221
:1005700002D924F810505A80401CC0B2C1F10902BF
:100580008242EFDC491CC9B20929E9D300210120CC
:1005900034F81020401C1144C0B289B20928F7D3A6
:1005A00005B0C80830BD000010B5094800F048FA91
:1005B0006421074800F0ACF9054800F0E5F8800533
:1005C00004D5034800F0E2F880B210BD002010BD51
:1005D000600D002010B504460020024606E000BF72
:1005E00034F81230834200DD1846521C8A42F7DB91
:1005F00010BD000010B50BF073F90BF0A3F9044621
:1006000000215A2015F0ACF915F05AFA00212046C5
:1006100014F0ECFC124C13A1606014F0D1FB16F046
:100620002FFE12A1606814F0CBFB16F0C5FE11A1DD
:10063000606814F0C5FB16F03FFF10A1606814F06D
:10064000BFFB16F083FF0FA1606814F0B9FB16F032
:10065000C5FF6068BDE81040012114F047BE0000EE
:100660001C0D0020546162203100000054616220A2
:1006700032000000546162203300000054616220A7
:10068000340000005461622035000000F8B50024F9
:10069000009490F824202546012A12D0012280F8E7
:1006A00024204A681F23072A0DD20668776B521E42
:1006B00002EB820293409F430B6893401F43776392
:1006C00019E00220F8BD06680D2A0AD2376BD21F46
:1006D00002EB820293409F430B6893401F433763B2
:1006E00009E0F76A0D3A02EB820293409F430B68E0
:1006F00093401F43F7620A68072306680A2A0AD351
:10070000F7680A3A02EB420293409F438B6893409A
:100710001F43F76008E0376902EB420293409F43B2
:100720008B6893401F4337610A68102A01D0112A51
:1007300020D1124B02689A4217D193681B0219D438
:10074000936843F4000393600968102912D10C499F
:100750000C4A0968B1FBF2F101EB8101490000E0AC
:10076000491E00910029FBD104E0816A41F020017B
:100770008162012480F824502046F8BD0024014005
:100780001400002040420F00806A70470068C06C6F
:10079000704700002DE9F04104004FF0000514D02F
:1007A000A06A002628B9E66284F82460204600F09A
:1007B00083F82046FFF76EFDA16A01F010010143A6
:1007C00004D0A06A40F01000A0626BE0A16A21F49E
:1007D000885141F00201A162334923688B42E169EB
:1007E00004D1B1F5402F01D14FF40021277B4FF404
:1007F000807C41EA470261680A43A168614509D0EB
:10080000012907D05FF0000194F814E0BEF1010F58
:1008100002D00AE06146F7E7C7B1A76A47F02007B0
:10082000A762E76A47F00107E7625F6827F4694754
:100830000F435F60236899681C4F394011439960EA
:10084000A16861450BD0012909D00CE0DFF860E018
:10085000A7690EEB47370F4347F40061E5E7218AAC
:100860000D05A5F580152168CB6A23F470032B4391
:10087000CB62216889680F4B1940914208D1E6622A
:10088000A16A21F0020141F00101A162BDE8F081FD
:10089000A06A20F0020040F01000A062E06A40F080
:1008A0000100E0620120F1E7003C0140FDF7E1FFBB
:1008B00000E0FFFFFE0E1FFF00B585B00021009194
:1008C00001910291039100680E49884218D10E48A7
:1008D000816941F400718161816901F400710491C1
:1008E000816941F0040181618069694600F004007A
:1008F00004900220009003200190044800F044FB83
:1009000005B000BD00240140001002400008014075
:100910002DE9F84300260D460446009600F03AFC07
:10092000804620688168C90508D5A06A40F020008B
:10093000A06284F824600120BDE8F8834168C905FD
:1009400003D4C06A10F4700F26D0022000F0ECFC33
:1009500038490968B1FBF0F72068036936490B4252
:100960004FEA61014FEAA1121BD1C3684FEA611C33
:1009700013EA0C0F15D103690B4221D1C068104254
:100980001ED114201FE0681C06D045B300F002FC05
:10099000A0EB0800A84222D8206800688007F2D5A2
:1009A0002AE003690B4202D1C168114206D00269F4
:1009B00022490A4206D1C068084203D1542002E00D
:1009C000292000E0FC204743009813E0681C0ED06B
:1009D0002DB100F0DFFBA0EB0800A84207D9A06A08
:1009E00040F00400A06284F824600320A4E700988B
:1009F000401C0090B842E9D321686FF012000860F3
:100A0000A06A40F40070A06220688068C0F3424091
:100A100007280CD1207B50B9A06A20F48070A06216
:100A2000A06AC00403D4A06A40F00100A0620020C4
:100A300082E70000140000202449922449922400F7
:100A400070B5044690F8240001280DD0012084F8E8
:100A500024002046FFF744FC02004FF0000005D0C0
:100A600084F82400104670BD022070BDA16A40F2D7
:100A70000123994341F48071A1621F4D23681F49EE
:100A8000AB4218D10E6816F4702F14D0A66A46F443
:100A90008016A6620E68760505D5A66A26F400566D
:100AA00046F48056A662A66AF6040AD5E66A26F0DF
:100AB0000606E66206E0A66A26F48016A6625E686E
:100AC000E9E7E06284F824006FF002001860206813
:100AD0008368C3F34243072B05D1A84208D10968B4
:100AE00011F4702F04D0816841F480118160B9E75E
:100AF000816841F4A001F9E7002801400424014085
:100B00002DE9F05F90F821100024022903D0042180
:100B10008163012485E001680A6822F00E020A6000
:100B200001680A6822F001020A603F4E3E4FB2158A
:100B3000DFF8F4C0DFF8F090DFF8ECA0DFF8E8B001
:100B4000DFF8E4E00168783F13011502ACF1640CB2
:100B5000A9F15009AAF13C0AABF1280BAEF1140E31
:100B60004FF48018B14227D9B9420ED0614512D056
:100B700049451DD0514518D0594518D0714501D16E
:100B8000424615E0294EB14201D1012210E0274E24
:100B90001436B14201D110220AE0244E2836B14267
:100BA00006D0224A3C32914201D11A4600E02A4640
:100BB0001E49091F0A602BE0B94213D0614517D0C6
:100BC000494522D051451DD059451DD0714501D10F
:100BD00042461AE0B14202D14FF0807215E0134E46
:100BE000B14201D1012210E0104E1436B14201D1C0
:100BF00010220AE00D4E2836B14206D00B4A3C3294
:100C0000914201D11A4600E02A46074980394A60DC
:100C1000012180F82110002180F82010416B01B1E2
:100C200088472046BDE8F09F80000240080402404B
:100C30002DE9F05FC16B0A6801680B68046C4FF026
:100C4000040808FA04F8844D844E854FDFF814C276
:100C5000DFF81492DFF814A2DFF814B2DFF814E220
:100C600018EA020F65D05FEA437862D50A689206F7
:100C700003D40A6822F004020A60DFF8F0814FF41E
:100C80008062016808F1140813011402414524D957
:100C9000A9420DD0B1420FD0B9421AD0614515D04A
:100CA000494515D0514501D1120312E0594501D1F2
:100CB00004220EE0714501D140220AE06D4D143549
:100CC000A94206D06B4A2832914201D11A4600E06F
:100CD00022466749091F0A6029E0A94213D0B142A0
:100CE00015D0B94220D061451BD049451BD0514594
:100CF00002D14FF4800217E0414502D14FF08062EB
:100D000012E0594501D104220EE0714501D1402283
:100D10000AE0584D1435A94206D0564A283291426D
:100D200001D11A4600E022464B4908394A60C16A9F
:100D300071E04FF0020808FA04F818EA020F70D0C8
:100D40005FEA83786DD50A68920606D40A6822F0B5
:100D50000A020A60012180F82110DFF810814FF4A7
:100D60000072016808F1140813011402414524D9E6
:100D7000A9420DD0B1420FD0B9421AD0614515D069
:100D8000494515D0514501D1120312E0594501D111
:100D900002220EE0714501D120220AE0354D1435C2
:100DA000A94206D0334A2832914201D11A4600E0C6
:100DB00022462F49091F0A6029E0A94213D0B142F7
:100DC00015D0B94220D061451BD049451BD05145B3
:100DD00002D14FF4001217E0414502D14FF00072EA
:100DE00012E0594501D102220EE0714501D12022C5
:100DF0000AE0204D1435A94206D01E4A28329142FD
:100E000001D11A4600E02246134908394A60002100
:100E100080F82010816A00291CD0BDE8F05F0847E7
:100E2000FFE70825A540154214D01A0712D50A6815
:100E300022F00E020A6090F84020C36B012101FAF3
:100E400002F25A60816380F82110002180F820109E
:100E5000016BE0E7BDE8F09F080002401C00024083
:100E60003000024044000240580002406C00024042
:100E7000080402401C04024030B560B11A4B0268FD
:100E800014219A4209D2194B1344B3FBF1F18900A2
:100E9000016417490AE0012030BD134B5B42134443
:100EA000B3FBF1F1890001640F490839C1630221E4
:100EB00080F82110136843F6F0718B43F0E90114B8
:100EC0002143D0E902452C4321430469214344696D
:100ED00021438469214319431160002141630122A8
:100EE00042770177084630BD08040240F8FFFDBF95
:100EF0000000024070B5044690F82000002501284B
:100F00000CD0012084F8200094F821600020012EEC
:100F100006D084F820000225284670BD022070BD4E
:100F2000022684F82160A0632068066826F0010686
:100F300006602046FFF7AEFAE06A002820680168E4
:100F400002D041F00E0106E021F0040101602068AA
:100F5000016841F00A0101602068016841F0010167
:100F60000160D9E770B5044600F014F90546601C2D
:100F700002D004480078044400F00CF9401BA04261
:100F8000FAD370BD080000202DE9F84FDFF8C891B2
:100F9000002409F1040A0AF1040B23460F270BF180
:100FA000040ED1E00125A54006EA0502AA4276D149
:100FB000DFF8A8C14E68A6EB0C0866452BD00DDC07
:100FC000032E34D005DC36B3012E19D0022E2FD1DA
:100FD0001BE0112E16D0122E2AD119E0B8F5881F69
:100FE00019D006DCB8F5803F15D0B8F5801F1FD1A9
:100FF00011E0B8F5001F0ED0B8F5041F18D10AE0B3
:10100000CB6815E0CB681B1D12E0CB6808330FE0FE
:10101000CB680C330CE08B682BB1012B4FF008032D
:1010200003D0456104E0042302E0056100E00023F1
:10103000FF2A01D8064601E000F104064FEA8405C4
:1010400001D9A5F12005D6F8008007FA05FC28EAA9
:101050000C0803FA05F548EA0508C6F800804D6853
:10106000ED0070D53E4DAE6946F00106AE61AD694A
:1010700024F0030605F0010500953A4D06EB050C3A
:10108000DCF80850A607360F07FA06F825EA080527
:10109000DFF8D480404503D14FF0000825E052E04E
:1010A000DFF8C880404502D14FF001081DE0DFF8AD
:1010B000C080404502D14FF0020816E0DFF8B4804E
:1010C000404502D14FF003080FE0DFF8AC80404507
:1010D00002D14FF0040808E0DFF8A080404502D1BB
:1010E0004FF0050801E04FF0060808FA06F848EA54
:1010F0000508CCF808804D68D9F80060ED034D462E
:1011000001D5164300E096432E604D68DAF8006082
:10111000AD03554601D5164300E096432E604D6859
:10112000DBF80060ED025D4601D5164300E0964312
:101130002E604D68DEF80060AD02754601D516439D
:1011400000E096432E60641C0A681646E2407FF475
:1011500029AFBDE8F88F0000000401400000111025
:10116000001002400000014000080140000C014056
:10117000001001400014014000180140001C014013
:101180008068084000D0012070470AB101617047B3
:101190000904FBE701488068704700000800002050
:1011A000024881680278114481607047080000207D
:1011B000074810B5016841F010010160032000F0FC
:1011C00075F8002000F006F800F024F8002010BDAB
:1011D0000020024070B50D4D04464FF47A71287816
:1011E000B1FBF0F00A490968B1FBF0F001F0BBFA7D
:1011F00048B9102C07D200222146501E00F036F8C4
:1012000000206C6070BD012070BD0000080000204F
:10121000140000200C4808B5816941F0010181618A
:10122000816901F001010091C16941F08051C16102
:10123000C06900F0805000900448416821F0E061EE
:1012400041F00071416008BD001002400000014003
:10125000002809DB00F01F020121914040098000B5
:1012600000F1E020C0F8001170470000F0B40E4B10
:101270001B680C46C3F30223C3F10705042D00D9F4
:101280000425191D072901D2002300E0DB1E0126D9
:1012900006FA05F1491E214099409E40761E1640EF
:1012A0003143F0BC03F098BC0CED00E0064900F0BF
:1012B000070208684FF6FF03184040EA0220034A7D
:1012C00010430860704700000CED00E00000FA05D4
:1012D00090FAA0F0044AB0FA80F002EB80000021FE
:1012E000C0F880107047000000000E4290FAA0F095
:1012F000044AB0FA80F002EB80000121C0F88010AF
:101300007047000000000E420548016841F00201EC
:1013100001600448016841F00401016030BF70477A
:101320000070004010ED00E010B52CA401461DCC6B
:1013300086B08DE81D002DA02D4C00680490002083
:1013400004292FD00BDC01292FD0022928D100F04D
:1013500071F96168C1F38131491C49001EE0082917
:1013600020D010291CD161682268D20118D5C1F3A0
:101370008342C9031DF8020009D5616804AAC1F3BC
:101380004041515C1B4AB2FBF1F1484301E01A496C
:1013900048436168490203D440000321B0FBF1F0E7
:1013A00006B010BD00F056F9FAE7226AC2F3012137
:1013B000012903D1920701D5C803F1E7022905D11C
:1013C000626A920702D549F64040E9E70329E7D16E
:1013D00021688903E4D54FF22440E1E702030405C4
:1013E000060708090A0B0C0D0E0F10100102000071
:1013F0000010024000127A0000093D002DE9F84378
:1014000005460078354CC00754D0E0690026C0007E
:1014100008D4E06940F08050E061E069012600F006
:10142000805000902E480168C90512D4016880469A
:1014300041F480710160FFF7ADFE074605E000BF93
:10144000FFF7A8FEC01B642823D8D8F80000C00509
:10145000F6D5206A10F4407021D0A98801F44071BB
:1014600081421CD0206A1F49012220F440700A608A
:1014700000220A602062C00711D0FFF78BFE0746EA
:1014800041F2883808E000BFFFF784FEC11B4145E8
:1014900002D90320BDE8F883206A8007F4D5206ACA
:1014A000696820F44070084320621EB1E06920F0B2
:1014B0008050E0612878800705D56068A96820F42D
:1014C0004040084360602878C00605D560686969B7
:1014D00020F48000084360600020DBE70010024039
:1014E00000700040400442422DE9F0470F460500DD
:1014F00061D0434E306800F00700B84209D230682E
:1015000020F0070038433060306800F00700B84230
:1015100051D128683B4C810712D5400703D560683C
:1015200040F4E06060602878000703D5606840F40C
:10153000605060606068A96820F0F0000843606057
:101540002878C00728D06868012810D021680228B0
:1015500010D0890700292EDA616821F003010143C8
:101560006160FFF717FE804641F288390DE021687F
:101570008903EFE78901EDE7FFF70CFEA0EB080117
:10158000494502D90320BDE8F0876068696800F02A
:101590000C00B0EB810FEFD1306800F00700B842CB
:1015A0000BD9306820F0070038433060306800F015
:1015B0000700B84201D00120E5E72878400705D5AB
:1015C0006068E96820F4E0600843606028780007FC
:1015D00006D56068296920F4605040EAC100606067
:1015E00000F038F86168084AC1F30311515CC84043
:1015F0000649086006480068FFF7ECFD0020C2E7D6
:101600000020024000100240308401081400002035
:101610000C0000200448054900684968044AC1F3E9
:101620000221515CC84070471400002000100240A5
:10163000408401080448054900684968044AC1F328
:10164000C221515CC84070471400002000100240C5
:101650004084010812A185B00FC98DE80F0014A0C5
:10166000144A006804905168134801F00C03042BDD
:1016700010D0082B0ED1C1F38343C9031DF803001A
:101680000AD5516804AAC1F34041515C0A4A50434B
:10169000B0FBF1F005B0704708494843FAE7000095
:1016A00002030405060708090A0B0C0D0E0F1010A3
:1016B000010200000010024000127A0000093D0003
:1016C0002DE9F84F040070D02078C04DC00749D0F4
:1016D0006868C0F38100012807D06868C0F3810002
:1016E000022809D16868C00306D52868800339D567
:1016F00060680028E7D035E06068B0F5803F0BD027
:1017000010B1B0F5A02F11D0286820F480302860E7
:10171000286820F4802002E0286840F480302860A7
:10172000606890B1FFF736FD06460AE0286840F48D
:1017300080202860F0E700BFFFF72CFD801B6428A5
:1017400073D828688003F7D50CE0FFF723FD064621
:1017500005E000BFFFF71EFD801B6428F0D8286855
:101760008003F7D420789A4E80074FF001094FF09C
:10177000000839D5686810F00C0F07D06868C0F30E
:101780008100022809D16868C00306D42868800750
:1017900014D52069012808D110E02069B0B1C6F83D
:1017A0000090FFF7F7FC074605E00AE1FFF7F2FCBF
:1017B000C01B0228C4D828688007F7D5286861694B
:1017C00020F0F80040EAC10028600DE0C6F8008073
:1017D000FFF7E0FC074604E0FFF7DCFCC01B022833
:1017E00023D828688007F7D4207800072CD57948BB
:1017F000A169D9B1C0F80090FFF7CCFC074604E01E
:10180000FFF7C8FCC01B02280FD8686A8007F7D50D
:1018100071484FF4FA510068B0FBF1F0009000BF3E
:101820000098411E0091FAD20EE080E0C0F80080DE
:10183000FFF7B0FC074604E0FFF7ACFCC01B022832
:1018400075D8686A8007F7D42078400760D5E869C2
:101850000027C00008D4E86940F08050E861E869DA
:10186000012700F0805000905C480168C90513D43E
:101870000168834641F480710160FFF78BFC82466A
:1018800006E000BFFFF786FCA0EB0A0064284ED8F4
:10189000DBF80000C005F5D5E06801280AD008B1E2
:1018A000052813D0286A20F001002862286A20F059
:1018B000040002E0286A40F001002862E06841F27A
:1018C000883B98B1FFF766FC82460BE0286A40F03F
:1018D00004002862EEE700BFFFF75CFCA0EB0A0102
:1018E00059455AD8286A8007F6D50CE0FFF752FC14
:1018F000824605E0FFF74EFCA0EB0A0159454CD8A3
:10190000286A8007F6D41FB1E86920F08050E861AA
:10191000E06988B36968C1F38101022944D00228D3
:10192000C6F8608004D0FFF735FC044638E034E0A8
:10193000FFF730FC074604E0FFF72CFCC01B022831
:101940002BD828688001F7D4206AB0F5803F05D1F4
:101950006868A16820F4003008436860D4E9080191
:101960000843696821F4741108436860C6F8609000
:10197000FFF710FC044606E025E000BFFFF70AFC75
:10198000001B022809D828688001F7D51BE000BF9A
:10199000FFF700FC001B022802D90320BDE8F88FE6
:1019A00028688001F4D40EE00128F7D06868226A24
:1019B00000F48031914204D1616A00F470108842D1
:1019C00001D00120EAE70020E8E700000010024013
:1019D0000000424280044242140000200070004097
:1019E00010B5FEF7B5FC10BD2DE9FE4304460320FB
:1019F0000F4684F83400606C03285AD0B7F5805F36
:101A000057D04FF4006600254FF08068B7421CD1D4
:101A1000009501950021206802F068F8800121D42A
:101A20006946204602F058FC98BB0198400332D525
:101A3000B4F850000104206802F094F848BB022179
:101A4000206822E0A06B284327E01FB1A06B40F084
:101A5000006022E0009501950021206802F046F820
:101A6000800101D53546EDE76946204602F034FC99
:101A700078B90198C0030ED5B4F85000010420686D
:101A800002F070F828B90021206802F0B8F80028A8
:101A9000D8D00546D6E74546D4E7A063A06B01251C
:101AA00058B121680C48886384F834500120BDE89F
:101AB000FE83A06B40F08050EFE7211DD4E90506BE
:101AC0000EC90097CDE90106206802F019F884F8E4
:101AD00034500020EBE70000FF0540007047000095
:101AE000F0B5426E920F0A70426EC2F383624A7082
:101AF000426EC2F301628A70426E120CCA70B0F874
:101B00006420120A0A7190F864204A71826E120DE4
:101B1000CA80826EC2F303420A72B0F86820C2F330
:101B2000C0324A72B0F86820C2F380328A72B0F8CC
:101B30006820C2F34032CA72B0F86820C2F30032A3
:101B40000A7300264E73426C4FF40075012462B193
:101B5000012A3AD0026847499163816B41F0805174
:101B6000816380F834400120F0BDB0F86820C36E76
:101B70009205120D42EA93720A61C26EC2F3C2620A
:101B80000A75C26EC2F302624A75C26EC2F3425255
:101B90008A75C26EC2F38242CA75C26EC2F3C23285
:101BA0000A760A69521C42650B7E03F007039B1CF0
:101BB0009A4042650B7A03F00F0704FA07F3836536
:101BC0005B0A5A43C0E917250EE090F86820C36EFF
:101BD0009206920A42EA13420A610A69521C920270
:101BE0004265C0E91652056630F86C2FC2F38032A8
:101BF00001F8192F0288C2F3C6124A70027802F067
:101C00007F028A704268D20FCA704268C2F3417282
:101C10000A714268C2F382624A714268C2F3835217
:101C20008A714268C2F34052CA710E724268C2F3AE
:101C300000424A728288C2F3C0328A728288C2F33A
:101C40008032CA728288C2F340320A738288C2F339
:101C500000324A738288C2F381228A738288C2F377
:101C60000122CA730079C0F3460008744C74002046
:101C7000F0BD0000FF054000426C0A60826C4A60C3
:101C8000C26C8A60026DCA60426D0A61826D4A61EF
:101C9000C26D8A61006EC8610020704770B504464D
:101CA000B0F8500000250104206802F0B2F818B125
:101CB000A16B0143A16304E00021206801F016FF3D
:101CC0000546C5F3432070BDF8B5056B04460068B2
:101CD000416B09041BD5290719D5D4E90A56002EF2
:101CE00014D00027206801F025FF05F8010B010A38
:101CF00005F8011B010C05F8021B000E361F7F1CA6
:101D000005F8010C082FEDD3C4E90A56F8BD416B64
:101D10004FF00006C9054FF0010744D53902816331
:101D20002068C16B4CF23A329143C1632068C16AAA
:101D300021F00101C16228071DD515F0220F09D03D
:101D4000206802F097F828B1A16B0143A1632046F7
:101D5000FFF7C4FE216840F23A50886384F834707B
:101D60002663A80703D0204600F058FAF8BD2046A5
:101D700000F058FAF8BD2806FCD5A80609D5206859
:101D800002F078F828B1A16B0143A1632046FFF768
:101D9000A5FEA807EED12068C16A21F00801C16242
:101DA00084F83470E3E7416B490424D5290722D530
:101DB000D4E90856002EDDD05FF0000715F8010BBE
:101DC000009015F8011B361F40EA0120009015F81D
:101DD000021B40EA0140009015F8011C40EA016036
:101DE00000906946206801F0B8FE7F1C082FE5D3FB
:101DF000C4E90856F8BD416B40F23A221142F9D0CD
:101E0000416B890703D5A16B41F00201A163416BCE
:101E1000090703D5A16B41F00801A163416B890655
:101E200003D5A16B41F02001A163416BC90603D525
:101E3000A16B41F01001A163416B890503D5A16B32
:101E400041F00801A16340F23A7181632068C16BDF
:101E500040F23A329143C163206802F00BF8A16B63
:101E60000843A063280706D584F83470266320460B
:101E7000FFF734FEF8BD2806FCD515F0300F0CD066
:101E8000E16B11484863E06BFEF73AFE0028F1D0A1
:101E9000E06BBDE8F84002F079B9A8070CD0216CDE
:101EA0000A484863206CFEF72BFE0028E2D0206C25
:101EB000BDE8F84002F048B9A66384F834702663A0
:101EC0002046FFF78DFDF8BD8D410008494100080F
:101ED00070B504000ED094F83400002518B92577A9
:101EE000204600F03BF8032084F83400204600F040
:101EF0000BF808B1012070BDA5632563012084F8AB
:101F00003400002070BD0000FEB500250446762098
:101F10000095CDE9015029460B460A46206801F09C
:101F2000EFFD08B10120FEBD0B4E46F8A05F206812
:101F300001F0F8FD01253560204602F0AFFA20B926
:101F4000204602F033FA0028EDD084F83450A16B1B
:101F50000143A163E6E7000000003042F0B585B020
:101F600000260546009601960296039600682749CA
:101F7000884249D12649486940F4806048614869EF
:101F800000F480600490886940F0100088618869DE
:101F900000F010000490886940F020008861886992
:101FA000022400F0200004904FF4F850CDE9000422
:101FB0000327694603971748FEF7E6FF0420CDE99B
:101FC0000004694603971448FEF7DEFF144C1348DB
:101FD000C4E900068020C4E902608000206180001E
:101FE000C4E905062046E661FEF746FF08B1FEF7A4
:101FF0007FFA2C64EC630022114631206562FFF702
:1020000035F93120FFF724F905B0F0BD008001401B
:10201000001002400010014000140140440402403E
:10202000101400202DE9F04F87B09B4616460D4650
:102030000446FFF7AFF800903DB194F83400012852
:1020400007D0A06B40F000500DE0A06B40F00060A6
:1020500009E00027A763E16D06EB0B00884204D975
:10206000A06B40F00070A06395E0032084F834007A
:102070002068C762606C012800D076024FF40071BE
:10208000206801F0A3FDDFF890A1012140B1236891
:10209000C3F838A0A26B0243A26384F834107AE03C
:1020A0004FF0FF3001904FEA4B20029090200390B8
:1020B0000220CDE9040706918846B94601A92068A7
:1020C00001F0FEFCBBF1010F06D90220206331466E
:1020D000206801F00FFE05E0C4F83080314620682A
:1020E00001F021FE30B12268C2F838A0A16B014393
:1020F000A1634CE0029E1EE0406B000413D596B134
:102100000027206801F016FD05F8010B010A05F80B
:10211000011B010C05F8021B000E361F7F1C05F881
:10212000010C082FEDD3FFF735F80099411A1098EC
:1021300081421DD2E0B12068426B40F22A310A424E
:10214000DAD0416BC90509D5BBF1010F06D9616C25
:10215000032903D001F08EFE0028C4D12068416B12
:1021600009071AD5C0F838A0A06B40F0080051E06C
:102170002168C1F838A0A06B40F00040A06384F84B
:102180003480C4F83090032007B0BDE8F08F84F8A5
:102190003480C4F830900120F6E7416B890705D5FB
:1021A000C0F838A0A06B40F0020033E0416B890614
:1021B0001CD5C0F838A0A06B40F020002AE000BF7A
:1021C00001F0B8FC05F8010B010A05F8011B010C30
:1021D00005F8021B000E05F8010C361FFEF7DAFFAA
:1021E0000099411A109881420ED268B12068416B63
:1021F000890201D5002EE3D1216840F23A5088636C
:1022000084F834800020BFE72168C1F838A0A06BB3
:1022100040F00040A063BAE7FF05400010B5FEF7AC
:10222000DBF810BD10B5FEF7E9F810BD2DE9FF4F42
:102230008DB016460D460446FEF7ACFF0B903DB13F
:1022400094F83400012807D0A06B40F000500DE056
:10225000A06B40F0006009E00027A7631098E16DD3
:102260003044884204D9A06B40F00070A0638BE03A
:10227000032084F834002068C762606C012800D015
:1022800076024FF40071206801F0A0FCDFF864B121
:10229000012140B12368C3F838B0A26B0243A263A6
:1022A00084F8341070E04FF0FF30039010988946A6
:1022B000400204909020CDE90507CDE90771BA46A8
:1022C00003A9206801F0FCFB1098012806D9202002
:1022D00020633146206801F0E7FD05E0102020630F
:1022E0003146206801F0F9FD5FEA000806D0216858
:1022F000C1F838B0A06B40EA080071E0049E27E006
:10230000406B40041CD5DEB15FF0000715F8010BEF
:10231000009015F8011B361F40EA0120009015F8C7
:10232000021B40EA0140009015F8011C40EA0160E0
:1023300000906946206801F010FC7F1C082FE5D34F
:10234000FEF728FF0B99411A1A98814220D2F8B162
:102350002068416B40F21A321142D1D0416BC9055D
:1023600023D51099012920D9616C03291DD001F0D2
:1023700081FDD0B12268C2F838B0A16B0143A163DE
:1023800084F83490C4F830A0012011B0BDE8F08F7B
:102390002168C1F838B0A06B40EA0800A06384F857
:1023A0003490C4F830A00320EFE72068416B0907A0
:1023B00005D5C0F838B0A06B40F0080010E0416BC4
:1023C000890705D5C0F838B0A06B40F0020007E0DF
:1023D000416BC90606D5C0F838B0A06B40F01000BC
:1023E000A063CDE740F23A51816384F83490002035
:1023F000CBE70000FF0540007047000038B50446F9
:10240000006842688168C9434B0606D5CB0704D1F2
:10241000D3435B0601D4216C05E08B0708D4D3437A
:102420001B0605D4616C01B02046BDE8304008476A
:102430008B0601D54B0646D4D3439B0643D44B06AB
:102440000AD494F85130032B3ED0636D43F004035B
:102450006365C36883680093890609D4616D41F0A0
:102460000101616581680091016821F0400101600E
:10247000606D002827D02068416821F0E0014160AC
:10248000012084F85100900722D02068416821F093
:1024900003014160104DE06C40B14563E06CFEF714
:1024A0002FFB18B1606D40F040006065A06C002803
:1024B00009D04563A06CFEF723FB002803D0606DB4
:1024C00040F04000606538BDC1688068009038BD4C
:1024D0002046FFF791FF38BD7946000870B504002B
:1024E00009D0606A002540B125616561A56294F854
:1024F000510040B10CE0012070BD6068B0F5827FF2
:10250000F4D0E561F2E784F85050204600F040F83E
:10251000022084F851002068016821F04001016028
:10252000A088218900F4827001F404410843A18944
:1025300001F400610843217C01F002010843217D80
:1025400001F001010843218B01F400710843217F50
:1025500001F03801084394F8201001F0800108438D
:10256000218D01F40051084321680860A06904210D
:1025700001EA1040216848602068C16921F40061C7
:10258000C1616565012084F85100002070BD000024
:1025900000B585B00021009101910291039100687E
:1025A0001449884223D11448C16941F48041C16172
:1025B000C16901F480410491816941F008018161A0
:1025C0008069694600F0080004904FF420400090B4
:1025D00002200190032003900848FEF7D5FC00225A
:1025E00001212420FEF742FE2420FEF731FE05B033
:1025F00000BD00000038004000100240000C014007
:102600002DE9F84F044690F8500000271D46164665
:10261000894601280DD04FF0010B84F850B0FEF729
:10262000B9FD804694F85100BA46012804D002272B
:1026300093E00220BDE8F88FB9F1000F73D0002EAF
:1026400071D0032084F85100C4F854A0C4F830902D
:10265000A686E686C4F838A0A4F83CA0A4F83EA05C
:10266000C4F844A0C4F840A0A068B0F5004F09D158
:102670002068016821F0400101602068016841F490
:102680008041016020680168490603D4016841F077
:1026900040010160E068B0F5006F606803D030B3BE
:1026A000012E24D041E008B1012E1CD1206B2168FD
:1026B0000088C86006E020688168890709D5216B19
:1026C0000988C160206B801C2063E08E401EE0867C
:1026D00009E0FEF75FFDA0EB0800A84202D3681CEA
:1026E00001D031E07DB3E08E0028E4D120E0206B02
:1026F00021680078087306E020688168890709D599
:10270000216B09780173206B401C2063E08E401E12
:10271000E0860AE0FEF73EFDA0EB0800A84203D3E6
:10272000681C02D010E017E06DB1E08E0028E3D104
:1027300042462946204601F0A7FF08B120206065E7
:10274000A06818B106E0FFE7032706E02068C1682B
:1027500080680090606D00B1012784F851B084F862
:1027600050A0384666E710B5401EB0F1807F01D317
:10277000012010BD4FF0E02460610F21601702F0CE
:102780002BFA0020A06107202061002010BD7047B7
:102790007047000070B590F83C20012A2CD001242D
:1027A00080F83C40022280F83D2003685A689D680A
:1027B00022F070060A6832435A60104B02689A424F
:1027C0000ED00F4B9A420BD0B2F1804F08D00D4B78
:1027D0009A4205D00C4B9A4202D00C4B9A4204D13B
:1027E000496825F080031943916080F83D4000213D
:1027F00080F83C10084670BD022070BD002C0140DE
:10280000003401400004004000080040000C00407B
:1028100010B5040003D094F83D0010B107E001208A
:1028200010BD002084F83C00204600F01FF8022074
:1028300084F83D00211D206801F0DAFF012084F8B2
:10284000460084F83E0084F83F0084F8400084F895
:10285000410084F8420084F8430084F8440084F87E
:10286000450084F83D00002010BD000008B5006858
:102870000B49884212D10B48C16941F01001C16176
:10288000C069002200F01000009011463620FEF7CB
:10289000EDFCBDE808403620FEF7DABC08BD0000BC
:1028A000001000400010024090F83D10012901D0B6
:1028B00001207047022180F83D100168CA6842F08B
:1028C0000102CA6000680E4988420ED00D49884254
:1028D0000BD0B0F1804F08D00B49884205D00B498E
:1028E000884202D00A49884204D1816801F0070178
:1028F000062903D0016841F0010101600020704702
:10290000002C014000340140000400400008004059
:10291000000C0040704770B50446006801694FF034
:102920000005C943890715D4C168C943890711D473
:10293000E91E016101202077206880698007204618
:1029400002D0FFF7E7FF04E000F098F8204600F01F
:1029500096F8257720680169C943490717D4C168EB
:10296000C943490713D46FF00401016102202077A5
:102970002068806910F4407F204602D0FFF7CAFF2C
:1029800004E000F07BF8204600F079F82577206815
:102990000169C943090716D4C168C943090712D49C
:1029A0006FF008010161042020772068C06980076A
:1029B000204602D0FFF7AEFF04E000F05FF82046AB
:1029C00000F05DF8257720680169C943C90617D46E
:1029D000C168C943C90613D46FF010010161082012
:1029E00020772068C06910F4407F204602D0FFF7AE
:1029F00091FF04E000F042F8204600F040F825770F
:102A000020680169C943C90708D1C168C943C9071A
:102A100004D1891E0161204600F032F82068016966
:102A2000C943090609D4C168C943090605D46FF032
:102A3000800101612046FFF7AAFE20680169C943B1
:102A4000490609D4C168C943490605D46FF040015D
:102A50000161204600F044F820680169C9438906F5
:102A60000BD4C168C943890607D46FF02001016106
:102A70002046BDE87040FFF78BBE70BD70477047C1
:102A800070B5144D04460022288813494FF47A7318
:102A9000012806D14888461C4E80984201D34A80BE
:102AA0002A808888451C8D80984209D38A80C888EE
:102AB000401C80B2C880C82802D1CA80FDF700FD42
:102AC0000648844204D1BDE87040012013F016B8D6
:102AD00070BD000018000020000000206C0E0020D7
:102AE0007047704770B5026804461068D168536932
:102AF00010F00F0F53D003F0010501F490762E4330
:102B00005FD0C20705D0CA0503D5E26B42F00102CF
:102B1000E263420705D5DA0703D0E26B42F0020216
:102B2000E263820705D5DA0703D0E26B42F00402C4
:102B3000E263020707D501F020022A4303D0E26BCB
:102B400042F00802E263E26B002A34D0800604D52A
:102B5000880602D5204601F0F8FE20684069E16B46
:102B6000C0F3801001F008010143204624D001F099
:102B7000D5FE2068416949061AD5416921F0400116
:102B80004161606BA0B12D494163606BFDF7B8FFF7
:102B9000002810D0606B416BBDE870400847830689
:102BA0000FD58B060DD52046BDE8704001F0CDBE97
:102BB0002046FFF796FF70BDFFF793FF0020E0630C
:102BC00070BD03062BD50B0629D594F839002128B2
:102BD000F6D1A068B0F5805F01D12069B0B1206A5C
:102BE000411C2162216800784860E08C401E00048E
:102BF000000CE084E4D12068C16821F08001C1604C
:102C00002068C16841F04001C16070BD206A008841
:102C1000C0F308005060206A801C2062E5E740068F
:102C2000F3D54806F1D5D168204621F04001D160A6
:102C3000202184F8391000F076F970BD7D48000835
:102C400070B5040004D094F83900002510B106E0F6
:102C5000012070BD84F83850204600F023F824206D
:102C600084F839002068C16821F40051C160204611
:102C700001F0B2FE2068016921F4904101612068F1
:102C8000416921F02A0141612068C16841F4005185
:102C9000C160E563202084F8390084F83A00002000
:102CA00070BD00002DE9F04186B00024009401942D
:102CB000029403940646414F0368414902200322CF
:102CC000404DBB4222D18B6943F480438B618B69B9
:102CD00003F4804304938B6943F004038B61896997
:102CE000039201F0040104910102CDE9001069464C
:102CF0002846FEF749F92815CDE90004694628461B
:102D00000294FEF741F906B0BDE8F0812E4FBB42B8
:102D1000F9D1CB6943F40033CB61CB6903F40033C1
:102D200004938B6943F004038B618969039201F07A
:102D3000040104910421CDE9001069462846FEF7FC
:102D400023F90820CDE900040120029069462846B5
:102D5000FEF71AF91E4D1D484FF08008C5E9000422
:102D6000C5E9024820200702EF612C61C5E9054052
:102D70002846FEF781F808B1FDF7BAFB75636E626D
:102D80001248144D143001C51020A5E81101114856
:102D900045F810496C61C5E90647FEF76DF808B1C2
:102DA000FDF7A6FB35630022012126206E62FEF7A7
:102DB0005DFA2620FEF74CFAA5E700000038014036
:102DC0000010024000080140004400406C00024036
:102DD0005414002098140020F8B5044690F83A00E6
:102DE00020283CD1C1B3BAB394F83800012836D0BA
:102DF000012084F83800A162A2850025E563222025
:102E000084F83A00636B17489862636B1648D8627F
:102E1000636B16481863606B134645630846666B20
:102E2000216802463046091DFEF764F820680168F3
:102E30004168009184F83850C16841F48071C160E4
:102E40002068416941F0010141612068416941F018
:102E5000400141610020F8BDFFE70120FBE70220AF
:102E6000F9E70000D7480008134900088D4800081A
:102E7000704770472DE9F843044690F839001F4623
:102E800016460D4620284CD1C5B1BEB194F8380085
:102E9000012846D0012084F838004FF00008C4F81B
:102EA0003C80212084F83900FEF774F9A68481461D
:102EB000E684A068B0F5805F03D004E00120BDE89F
:102EC000F883206928B12E465FF0000584F8388029
:102ED0000EE00026FAE78021204601F0D9FDA0B9D6
:102EE000AEB116F8010B21684860E08C401EE0840A
:102EF000E08C4B464FF0000200970028EBD14FF0DA
:102F00004001204601F0C4FD30B10320D7E735F879
:102F1000020BC0F30800E6E7202084F83900002007
:102F2000CDE70220CBE77047FEE72DE9F0410746E9
:102F30001C4615460E462A2000F098F9380A00F083
:102F4000A3F9F8B200F0A0F9280A00F09DF9E8B260
:102F500000F09AF92B2000F089F9300A00F094F97A
:102F6000F0B200F091F9200A00F08EF9E0B200F022
:102F70008BF9BDE8F0412C2000F078B970B5040A57
:102F8000C5B2EF2300211A460846FFF7CEFF1149CC
:102F900000204FF4107200BF01F8104001EB400315
:102FA000401C80B25D709042F6D3012291030A4822
:102FB000FEF7EBF800244FF6FF754FF490662B46B2
:102FC000324604490548FFF71BFB641CA4B2642C7D
:102FD000F5D370BDDC140020000C0140140E00205D
:102FE0002DE9F047141A5D1A641C6D1CA4B2ADB231
:102FF00004FB05F67600DDF82090FFF796FF01222E
:1030000091031348FEF7C1F84A46002114E000205E
:103010000EE000BF04FB010302EB430712F813C0EC
:1030200097F8018002F81380401C87F801C080B235
:10303000A042EFD3491C89B2A942E8D3B2B24946B3
:10304000BDE8F0474FF6FF730248FFF7D9BA00001A
:10305000000C0140140E002010B50D4C0022402140
:103060002046FEF792F80022A1142046FEF78DF8C4
:10307000002280212046FEF788F87820FDF772FFB5
:1030800020460122BDE810408021FEF77EB80000F6
:10309000000C014010B5FFF7DFFF7820FDF762FF5D
:1030A000112000F0E3F87820FDF75CFF362000F0F7
:1030B000DDF8002000F0E8F83A2000F0D7F86520AD
:1030C00000F0E2F8B22000F0D1F80C2000F0DCF8BB
:1030D0000C2000F0D9F8002000F0D6F8332000F0E2
:1030E000D3F8332000F0D0F8B72000F0BFF87220FA
:1030F00000F0CAF8BB2000F0B9F83D2000F0C4F899
:10310000C02000F0B3F82C2000F0BEF8C22000F080
:10311000ADF8012000F0B8F8C32000F0A7F819209E
:1031200000F0B2F8C42000F0A1F8202000F0ACF8C4
:10313000C62000F09BF80F2000F0A6F8D02000F089
:1031400095F8A42000F0A0F8A12000F09DF8E02060
:1031500000F08CF8D02000F097F8042000F094F8EC
:103160000D2000F091F8112000F08EF8132000F0EF
:103170008BF82B2000F088F83F2000F085F85420D1
:1031800000F082F84C2000F07FF8182000F07CF866
:103190000D2000F079F80B2000F076F81F2000F0E9
:1031A00073F8232000F070F8E12000F05FF8D020E1
:1031B00000F06AF8042000F067F80C2000F064F8D2
:1031C000112000F061F8132000F05EF82C2000F0D0
:1031D0005BF83F2000F058F8442000F055F85120EB
:1031E00000F052F82F2000F04FF81F2000F04CF8AC
:1031F0001F2000F049F8202000F046F8232000F0BE
:1032000043F8212000F032F8292000F02FF8EF23B6
:1032100000211A460846FFF788FE0122BDE810404B
:1032200011030148FDF7B1BF000C01402DE9F04149
:103230004FF6FF75B1FBF5F70E468046002411E00E
:1032400008D1B6FBF5F005FB1061C4EB044202EBBC
:10325000080004E0C4EB044101EB0800294601F03A
:1032600001FA641CBC42EBD9BDE8F08101B5002233
:103270004FF480410348FDF788FF01216846FFF7BE
:10328000D5FF08BD000C014001B50122910304489F
:10329000FDF77BFF01216846FFF7C8FF08BD00006E
:1032A000000C01407CB514460D4606466B460622CE
:1032B0003B21682000F0E4F900280BD1BDF8001094
:1032C00049BA3180BDF8021049BA2980BDF804100E
:1032D00049BA21807CBD000070B5134D4FF4806465
:1032E000002221462846FDF750FF2A1D106820F4D1
:1032F00070401060106840F440501060002261007F
:103300002846FDF742FF00F011F801222146284629
:10331000FDF73BFF00F00AF821462846BDE8704063
:103320000022FDF732BF0000000C01400020401CCD
:10333000C0B20A28FBD370477047000070B5134D28
:103340004FF48064002221462846FDF71EFF2A1D07
:10335000106820F470401060106840F44050106015
:103360000122D1022846FDF710FFFFF7DFFF0122FF
:1033700021462846FDF709FFFFF7D8FF21462846DA
:10338000BDE870400022FDF700BF0000000C0140C6
:103390002DE9F04780461A480024016821F4704165
:1033A0000160016841F40041016006152546071FD0
:1033B0004FF40069002231463846FDF7E6FEFFF77C
:1033C000B5FF012231463846FDF7DFFE6006040EE8
:1033D00049463846FDF7D4FE08B1641CE4B2FFF755
:1033E000A5FF6D1CEDB2082DE4D3B8F1000F04D099
:1033F000FFF772FF2046BDE8F087FFF79FFFF9E770
:10340000040C01402DE9F04105461748016821F4FC
:1034100070410160016841F4405101600715061FC9
:10342000002239463046FDF7B0FE00244FF4006814
:10343000EA0941463046FDF7A8FE6806050E01225E
:1034400039463046FDF7A1FEFFF770FF00223946EE
:103450003046FDF79AFEFFF769FF641CE4B2082CC2
:10346000E6D3BDE8F0810000040C014070B51348BC
:10347000016821F470410160016841F4405101602C
:10348000C414051F012221462846FDF77EFE0122B5
:10349000960231462846FDF778FEFFF747FF0022E7
:1034A00021462846FDF771FEFFF740FF31462846CA
:1034B000BDE870400022FDF768BE0000040C01402A
:1034C00070B51348016821F470410160016841F44E
:1034D000405101600415051F002221462846FDF7D2
:1034E00054FE6600002231462846FDF74EFEFFF7E7
:1034F0001DFF012221462846FDF747FE01223146E5
:103500002846FDF742FEBDE87040FFF70FBF000000
:10351000040C01402DE9F04118480024016821F411
:1035200070410160016841F400410160C614051F4B
:10353000012231462846FDF728FEFFF7F7FE01225B
:10354000970239462846FDF720FEFFF7EFFE08E018
:10355000641CE4B2FA2C04D9FFF7B2FF0120BDE8E5
:10356000F08131462846FDF70BFE0028F0D10022FD
:1035700039462846FDF709FE0020F0E7040C01401B
:1035800010B500F0DAF904211A2000F0E8F81C2147
:10359000084600F0E4F82021372000F0E0F8402150
:1035A000BDE81040382000F0DAB810B5FFF7C4FECF
:1035B00080216B2000F0D3F86420FDF7D3FC0021BC
:1035C0006B2000F0CCF8032000F095F8002000F00C
:1035D0008DF8322000F0ACF80021382000F0BFF860
:1035E00000216A2000F0BBF80021232000F0B7F88A
:1035F0008021372000F0B3F8752000F023F8682808
:1036000001D0012010BD01216B2000F0A8F800219D
:103610006C2000F0A4F8322000F08AF8002010BDE1
:1036200010B502E005A001F0B3FAFFF7BEFF0028D5
:10363000F8D1BDE81040FFF7A3BF00006572726FBC
:10364000720D0A0010B50446FFF710FFD020FFF7F7
:10365000D9FEFFF75FFF2046FFF7D4FEFFF75AFFC2
:10366000FFF704FFD120FFF7CDFEFFF753FF002047
:10367000FFF78EFE0446FFF723FF204610BD000033
:103680002DE9F0411D4614460F460646FFF7EEFEB3
:103690007006000EFFF7B6FEFFF73CFF20B1FFF704
:1036A0000FFF0120BDE8F0813846FFF7ABFEFFF7C2
:1036B00031FFFFF7DBFE012000EB4600C0B2FFF751
:1036C000A1FEFFF727FF09E0012C0DD05FF00100FC
:1036D000FFF75EFE641E05F8010BE4B2002CF3D187
:1036E000FFF7EEFE0020DDE70020F1E7C006010E47
:1036F0001C2000F034B8C006010E1B2000F02FB8CB
:10370000BC2801D3012110E0622801D302210CE082
:103710002A2801D3032108E0142801D3042104E05E
:103720000A2801D3052100E006211A2000F017B86D
:1037300010B504464FF47A70844201D9044602E081
:10374000042C00D20424B0FBF4F0401EC1B21920B6
:1037500000F005F86008BDE81040FFF7D1BF70B574
:103760000C460546FFF782FED020FFF74BFEFFF721
:10377000D1FE50B92846FFF745FEFFF7CBFE2046A5
:10378000FFF740FEFFF7C6FE18B1FFF799FE0120D4
:1037900070BDFFF795FE002070BD00003EB500240F
:1037A00010480094019402940D49846001600473F0
:1037B0000475012505614FF460214460C161FCF787
:1037C000E9FF08B172B6FEE70095CDE901546946FC
:1037D0000448FCF75BFF002801D072B6FEE73EBD4F
:1037E00000240140600D0020154808B5416941F0F2
:1037F00001014161416901F001010091416941F01C
:10380000020141614069002200F00200009011466F
:103810001020FDF72BFD1020FDF71AFD00221146A8
:103820001120FDF723FD1120FDF712FD00220221DA
:103830003B20FDF71BFDBDE808403B20FDF708BD20
:103840000010024010B504490448FCF753FE024939
:10385000491E087010BD0000490D002024CF01084A
:1038600070B586B000242248009401940294039419
:10387000816941F020018161816901F02001049199
:10388000816941F004018161816901F004010491C1
:10389000816941F008018161816901F008010491A9
:1038A000816941F0100181618069124E00F01000C1
:1038B0000490012245F6C0413046FDF766FC4FF406
:1038C00040600125CDE900050220CDE902406946AE
:1038D0003046FDF759FB45F2C000CDE90005032055
:1038E000CDE9024069463046FDF74EFB06B070BD9B
:1038F00000100240000C01400E4810B50C49016058
:103900004FF48271416000218160C1604FF4007208
:103910000161C0E90512C1610162416281620A214F
:10392000C162FEF7DBFD002801D072B6FEE710BDD4
:1039300000380040140E0020FEE710B522211F20A1
:10394000FFF70DFF1421BDE810402020FFF707BF4F
:10395000FEB50020154EADF8080005460446308837
:10396000D8B902AA01A96846FFF79CFCBDF900007E
:103970004FF47A714A42884201DD042402E0904209
:1039800000DA0324BDF90400884201DD012502E0CC
:10399000904200DA022514B10DB10020FEBD54EAB8
:1039A0000500FBD001213180FEBD00001800002081
:1039B000FEE7000070B5124D0646A8680FF042FD04
:1039C000C4B2012E0ED0022E10D0032E09D0042E28
:1039D00007D10022611C686811F0E6FC0948641CEC
:1039E000047070BD042C04D0641C01E00CB1641E92
:1039F000E4B22146A868BDE8704000220FF011BE75
:103A00001C0D00200000002010B501280CD0022859
:103A10000AD0032808D1054800221146406811F059
:103A2000C3FC03490020087010BD00001C0D0020DD
:103A30000000002070470000FEB5002506460095F6
:103A400001951048029512F0C5FD0E4C02B2D4E962
:103A5000060106F01FFA22780BA1684601F0A8F8CB
:103A60006946206A0CF0D1FF012E0AD0022E08D040
:103A7000032E06D10648002211460570606811F039
:103A800093FCFEBD1C0D002042504D3A2564000001
:103A90000000002010B501280CD002280AD003280D
:103AA00008D1054800221146406811F07DFC034909
:103AB0000020087010BD00001C0D00200000002038
:103AC0000A6842624A688262D1E902231A43D1E954
:103AD00004310B43C16A1A4321F0F7011143C1625B
:103AE00000207047006800F00300704708444069F8
:103AF000704700000148FEF7E7B80000900D002075
:103B000070B50DF1100C11439CE87000234319436C
:103B100029434268314347F6FF639A430A434260B0
:103B2000002070BD10B5032101600220FDF71AFAD4
:103B3000002010BDD0F8800070470A688260D1E98B
:103B400001231A43D1E903310B43C1681A436FF3D0
:103B50000B011143C160002070470968C0F8801054
:103B60000020704710B586B004463720CDE900101C
:103B700040200290002003904FF48060049069463A
:103B80002046FFF7DAFF41F288323721204600F065
:103B9000BDF906B010BD000010B504460A4886B055
:103BA00001432920CDE9001040200290002003901D
:103BB0004FF48060049069462046FFF7BEFF204620
:103BC00000F05CFA06B010BD0000108010B586B0A1
:103BD00004461020CDE90010402002900020039000
:103BE0004FF48060049069462046FFF7A6FF41F23B
:103BF00088321021204600F089F906B010BD10B5BA
:103C000086B004460620CDE9001040200290002036
:103C100003904FF48060049069462046FFF78DFFC3
:103C200041F288320621204600F070F906B010BD3E
:103C300030B585B000240546009401944FF48060AF
:103C40000294CDE9034069462846FFF776FF0B480A
:103C50004FF4FA510068B0FBF1F041F2883148436B
:103C6000401E03D24FF0004005B030BD696B09061D
:103C7000F6D5C520A8632046F6E700001400002012
:103C800070B585B004464FF4D570009001A90820A6
:103C90004025002681E86100C00104906946204665
:103CA000FFF74BFF12484FF4FA510068B0FBF1F0F8
:103CB00041F288314843401E03D24FF0004005B026
:103CC00070BD616B11F0450FF5D00905F3D4606B41
:103CD000400701D5042003E0606BC00702D001203B
:103CE000A063ECE7606B400600D5A5633046E6E7CD
:103CF0001400002010B586B004461220CDE9001053
:103D000040200290002003904FF4806004906946A8
:103D10002046FFF712FF41F288321221204600F0C0
:103D2000F5F806B010BD10B586B004461120CDE9F7
:103D3000001040200290002003904FF48060049017
:103D400069462046FFF7F9FE41F2883211212046EC
:103D500000F0DCF806B010BD10B586B004460720B0
:103D6000CDE9002040200290002003904FF48060B5
:103D7000049069462046FFF7E0FE41F288320721B1
:103D8000204600F0C3F806B010BD10B586B004465A
:103D900000210220CDE90010C020CDE902014FF43E
:103DA0008060049069462046FFF7C7FE204600F079
:103DB0003DF906B010BD10B586B004460920CDE926
:103DC0000010C0200290002003904FF48060049007
:103DD00069462046FFF7B1FE204600F027F906B0FD
:103DE00010BD10B586B0044600213320CDE9001087
:103DF0004020CDE902010001049069462046FFF70A
:103E00009CFE41F288323321204600F07FF806B054
:103E100010BD10B586B004460D20CDE9001040203D
:103E20000290002003904FF4806004906946204681
:103E3000FFF783FE41F288320D21204600F066F83C
:103E400006B010BD30B585B00C46054600210320F4
:103E5000CDE900104020CDE902010001049069463F
:103E60002846FFF76AFE22460321284600F028F97B
:103E700005B030BD10B586B0044600210C20CDE958
:103E800000104020CDE9020100010490694620465F
:103E9000FFF753FE034A0C21204600F037F806B026
:103EA00010BD000000E1F50510B586B004461920EC
:103EB000CDE9001040200290002003904FF4806074
:103EC000049069462046FFF738FE41F288321921F6
:103ED000204600F01BF806B010BD10B586B00446B1
:103EE0001820CDE9001040200290002003904FF4EC
:103EF0008060049069462046FFF71FFE41F2883239
:103F00001821204600F002F806B010BD454B10B550
:103F10001B684FF4FA54B3FBF4F353435B1E02D215
:103F20004FF0004010BD426B12F0450FF6D0120565
:103F3000F4D4426B520703D504218163084610BDB7
:103F4000426BD20702D00121816305E0C522826362
:103F50000269D2B28A4201D0012010BD0021FFF7D0
:103F6000C5FD3149084201D1002010BD002802DA08
:103F70004FF0007010BD410001D5402010BD810000
:103F800001D5802010BDC10002D54FF4807010BD56
:103F9000010102D54FF4007010BD410102D54FF46C
:103FA000806010BDC10102D54FF4006010BD010258
:103FB00002D54FF4805010BD410202D54FF400509D
:103FC00010BD810202D54FF4804010BDC10202D560
:103FD0004FF4004010BD410302D54FF4003010BD36
:103FE000810302D54FF4802010BDC10302D54FF4E8
:103FF000002010BD010402D54FF4801010BD410413
:1040000002D54FF4001010BD810402D54FF480009A
:1040100010BD000702D54FF4000010BD4FF48030F2
:1040200010BD00001400002008E0FFFD12494FF40D
:10403000FA520968B1FBF2F141F288325143491E4C
:1040400002D24FF000407047426B12F0450FF6D09D
:104050001205F4D4416B490703D504218163084656
:104060007047416BC90703D001218163084670473F
:10407000C521816300207047140000200F494FF4D0
:10408000FA520968B1FBF2F141F288325143491EFC
:1040900002D24FF000407047426B12F0450FF6D04D
:1040A0001205F4D4416B490703D504218163084606
:1040B0007047C52181630020704700001400002074
:1040C00030B5204B4FF4FA541B68B3FBF4F341F2C4
:1040D000883463435B1E02D24FF0004030BD446B16
:1040E00014F0450FF6D02405F4D4436B5B0703D5D9
:1040F00004218163084630BD436BDB0702D00121F8
:10410000816303E00369DBB28B4201D0012030BD43
:10411000C52181630021FFF7E9FC10F4604F04D052
:10412000410406D54FF4005030BD000C1080002033
:1041300030BD000402D54FF4805030BD4FF48030C4
:1041400030BD00001400002010B5446A40F23A501F
:10415000216888632046FDF7A1FD012184F8341011
:1041600000212163062801D0052805D12068FFF72A
:1041700081FEA16B0843A063A06B0028204602D0FB
:10418000FDF7ACFC10BDFDF72BFC10BD10B5446A6B
:1041900040F23A50216888632046FDF77FFD0121F7
:1041A00084F8341000212163062801D0052805D1A8
:1041B0002068FFF75FFEA16B0843A063A06B002897
:1041C000204602D0FDF78AFC10BDFDF709FC10BDAA
:1041D00038B500200D4600900A2216A1184802F0BA
:1041E0004BF9184C0100207003D017A000F0D0FC50
:1041F00002E01BA000F0CCFC6B4680222946104850
:1042000002F029FB2070010003D01BA000F0C0FCCD
:1042100002E020A000F0BCFC094801F0A8FF2070DB
:10422000010003D022A000F0B3FC38BD25A000F0AF
:10423000AFFC38BD303A2F6E6F74652E7478740001
:10424000E4110020480D0020206F70656E20666923
:104250006C65206572726F72203A2025640D0A0029
:10426000206F70656E2066696C6520737563657379
:1042700073212121200D0A00207772697465206660
:10428000696C65206572726F72203A2025640D0A90
:10429000000000002077726974652066696C6520F3
:1042A000737563657373212121200D0A00000000DE
:1042B00020636C6F7365206572726F72203A2025DF
:1042C000640D0A0020636C6F7365207375636573FA
:1042D00073212121200D0A002DE9F04F89B00D46F0
:1042E0000446FCF757FF00268346009601963746A2
:1042F00008212068FFF76AFC002834D1B4F8500088
:1043000001042068FFF72EFC00282CD1401E4FF03E
:104310000808CDE9020830204FF00209CDE9040970
:104320000120CDE9067002A92068FFF7C9FB2068CB
:10433000FFF757FD002816D1EA4640F22A472068C9
:10434000416B394212D1416B890204D5FFF7F2FB70
:104350004AF82600761CFCF71DFFA0EB0B00401C62
:10436000EDD14FF0004009B0BDE8F08F416B090777
:1043700003D5C0F838800820F5E7416B890703D5DD
:10438000C0F838900220EEE7416B890603D5202162
:1043900081630846E7E740F23A518163019800BA29
:1043A0002860009800BA68600020DCE710B590B083
:1043B00004460120ADF838002068FFF793FB002881
:1043C00054D0606C032842D02068FFF7DEFC002840
:1043D0004AD100212068FFF789FB6067042120682B
:1043E000FFF784FBA06708212068FFF77FFBE067E9
:1043F0000C212068FFF77AFBC4F88000606C03286A
:1044000025D00EA92068FFF71DFD00282CD1606C77
:1044100003281CD0BDF83800206501042068FFF790
:10442000CAFC002820D100212068FFF75FFB6066EE
:1044300004212068FFF75AFBA06608212068FFF7D7
:1044400055FBE0660C212068FFF750FB2067042134
:104450002068FFF74BFB000DE06403A92046FDF741
:104460003FFB30B14FF0805010B010BD4FF0806076
:10447000FAE7B4F85000002302042068FFF76CFC50
:104480000028F1D104F1100007C88DE8070094E876
:104490000F00FFF735FB0020E6E700002DE9F84F9D
:1044A0000026044600963546B0460068FFF7C0FB7C
:1044B000002827D12068FFF7E3FB4FF0805B4FF027
:1044C00001094FF6FF7748B1A6642068FFF7B0FBFB
:1044D000002817D1A06C012802D020E0C4F8489031
:1044E00000212068FFF73EFB58B918E00021206842
:1044F000FFF738FB002805D151462068FFF74CFB39
:1045000010B15846BDE8F88F00212068FFF7EEFA99
:1045100005464FEAD0780098401C009002E0DFF892
:104520002CA00098B84202D2B8F1000FDED000985B
:10453000B84202D34FF08070E4E7680002D5C4F8B7
:10454000449000E066640020DCE70000000010C139
:1045500010B5064C01202070FBF70EFF18B920782B
:1045600020F001002070207810BD0000580D0020C0
:1045700010B5124888B014460078C00702D0032056
:1045800008B010BDB9B1012905D0022908D003290E
:104590000CD00420F4E76846FBF7DCFE069809E03F
:1045A0006846FBF7D7FE0798208004E06846FBF7D3
:1045B000D1FE079820600020E2E70000580D00209F
:1045C0002DE9F0411E46174608460125094C0A4BC5
:1045D00032463946FBF7F0FE28B109E0641E02D2EC
:1045E0000120BDE8F081FBF7BBFE0028F6D10025D5
:1045F0002846F6E7A086010000E1F50510B5064C57
:1046000001202070FBF7ACFE18B9207820F00100E3
:104610002070207810BD0000580D00202DE9F041D9
:104620001E46174608460125094C0A4B32463946B4
:10463000FBF7D4FE28B109E0641E02D20120BDE8D8
:10464000F081FBF78DFE0028F6D100252846F6E71D
:10465000A086010000E1F5050148FDF7CFBE00008E
:10466000140E00200A4601464FF6FF730148FDF77D
:10467000C7BF0000140E002010B5406A0021C1879A
:10468000C186FDF7B9FE10BD38B50B460092044651
:104690000022802100F008F8002804D0606D40F06E
:1046A00020006065032038BD2DE9F8431E46914681
:1046B00088460446089DFCF76DFD401B351AFCF743
:1046C00069FD074625480068C0F3CB30684338E0F1
:1046D000701C37D0FCF75EFDC01BA84203D215B199
:1046E000009860B32CE02068416821F0E00141604F
:1046F0006068B0F5827F0BD1A068B0F5004F02D0A2
:10470000B0F5806F04D12068016821F0400101609C
:10471000A06AB0F5005F09D12068016821F400515A
:1047200001602068016841F400510160012084F8B3
:104730005100002084F850000320BDE8F8830025D4
:10474000401E00902068816838EA010004D00021F2
:104750004945BDD10020F0E70121F9E71400002010
:104760007047FCF71DBD30B595B028216846FBF7B2
:1047700014FD14210AA8FBF710FD18210FA8FBF760
:104780000CFD01210804CDE900100025029502244A
:104790000491CDE907404FF4E01009906846FCF71A
:1047A0008FFF08B172B6FEE70AA90F2081E8310039
:1047B0004FF48060CDE90D0502210AA8FCF794FEB4
:1047C00008B172B6FEE74FF4404011900F940FA865
:1047D000FCF714FE002801D072B6FEE715B030BD1C
:1047E000704700000148FEF796B800006C0E0020EC
:1047F000F0B502681C4B1D4D1D4E1E4F1E4C4FF058
:10480000804C984209D0A04207D0604505D0A8420C
:1048100003D0B04201D0B84204D122F0700E4A68F1
:1048200042EA0E02984209D0A04207D0604505D066
:10483000A84203D0B04201D0B84203D122F440755F
:10484000CA682A434D6922F080022A4302608A68BE
:10485000C2620A688262984201D0A04201D109690D
:10486000016301214161F0BD002C014000040040C2
:1048700000080040000C00400034014010B5406AC0
:104880000021C185C184FEF72CF910BD70B5446AC2
:104890002068406994F83910C0F3C0100025212920
:1048A00004D118B1E584204600F046F8206840693C
:1048B00094F83A10C0F38010222904D118B1E5858C
:1048C000204600F02BF8E06B40F01000E06320463B
:1048D000FEF707F970BD10B50146406A096809681E
:1048E000890613D40021C1850168CA6822F4807248
:1048F000CA6001684A6922F001024A6101684A6996
:1049000022F040024A61202180F83A10FEF7B0FA06
:1049100010BD10B5406AFEF7ACFA10BD0168CA6858
:1049200022F49072CA6001684A6922F001024A6169
:10493000202180F83A1070470168CA6822F0C0024E
:10494000CA60202180F83910704710B590F83A10ED
:10495000222901D0022010BD82684FF480539A4270
:1049600001D1016921B1816A9A421BD04AB10AE0A2
:104970000268816A5268C2F308020A80816A891C4F
:1049800008E0026972B10268526802F07F020A70A0
:10499000816A491C8162C18D491E0904090CC185C7
:1049A00003D016E002685268F1E70168CA6822F095
:1049B0002002CA600168CA6822F48072CA60016875
:1049C0004A6922F001024A61202180F83A10FEF77C
:1049D0004FFA002010BD000070B504460068016960
:1049E000E26821F44051114301612169A068084344
:1049F000616908432168CA6841F20C639A43024323
:104A0000CA6020684169A26921F440711143416183
:104A10001E492068884202D1FCF70CFE01E0FCF739
:104A2000F9FD00EBC00101EB001260686421800019
:104A3000B2FBF0F3B3FBF1F36FF018067343B2FB74
:104A4000F0F5B2FBF0F605EB8305322303EB051519
:104A5000B5FBF1F5B6FBF1F605F0F00505EB061533
:104A6000B2FBF0F6B2FBF0F0B0FBF1F06FF0180221
:104A7000504306EB800003EB0010B0FBF1F021681F
:104A800000F00F002844886070BD0000003801402D
:104A90002DE9F041984617460E460446069D1DE056
:104AA000681C1BD02DB1FCF775FBA0EB0800A842D9
:104AB00014D92068C16821F4D071C16020684169AF
:104AC00021F001014161202084F8390084F83A0086
:104AD000002084F838000320BDE8F08120680068D9
:104AE00036EA000004D00020B842D9D00020F3E715
:104AF0000120F9E710B50448FDF7F4FFBDE81040C8
:104B0000014800F017B80000F40E0020074810B567
:104B100000684068064CC0F18000C1B2E170A07826
:104B2000FBF76EFCE078A07010BD0000541400206C
:104B30002C0000200849094A81B00968914209D136
:104B40000A68D243D20605D40A684968009101B0C8
:104B5000FFF7DCBF01B07047F40E002000440040B6
:104B6000FEE7000010B501280CD002280AD0032867
:104B700008D1054800221146406810F015FC034991
:104B80000020087010BD00001C0D00200000002057
:104B90000FB4054B10B503A9044A029800F03CF885
:104BA00010BC5DF814FB0000116E00085C0D0020C5
:104BB0000FB4084B10B504A902AA039800F02CF812
:104BC000044602A9002000F003F9204610BC5DF85D
:104BD00014FB0000D14D00080907090E002804DB72
:104BE00000F1E02080F80014704700F00F0000F1A1
:104BF000E02080F8141D704702E008C8121F08C1A9
:104C0000002AFAD170477047002001E001C1121F4D
:104C1000002AFBD1704700002DE9FF4F8BB09A4668
:104C20000F460546002606E025280BD052460D9972
:104C300090476D1C761C28780028F5D10FB03046BF
:104C4000BDE8F08F0024A0460122604900E0044343
:104C500015F8013F203B02FA03F00842F7D128780B
:104C60002E2817D115F8010F44F004042A280ED07D
:104C70006FF02F022878A0F1300109290AD808EB3B
:104C8000880102EB410100EB01086D1CF2E757F8C7
:104C9000048B6D1C287869283ED006DC0028CDD016
:104CA00063280BD0642804D136E0732810D075280F
:104CB0004BD052460D999047761C85E017F8040BAF
:104CC0008DF8000000208DF80100E946012003E086
:104CD00057F8049B4FF0FF3061074FF0000401D4F8
:104CE0000AE0641C44450DDA8442FADB19F804102A
:104CF0000029F6D106E0641C8442FCDB19F804109C
:104D00000029F8D1264404E019F8010B52460D9908
:104D10009047641EF8D257E001CF4FF00A0B0028ED
:104D200002DA40422D2102E0210504D52B218DF825
:104D30002410012103E0E10705D02021F7E70DF160
:104D4000200908910CE00021F9E701CF4FF00A0B90
:104D5000F9E75946FBF74AFA01F1300209F8012D4B
:104D60000028F6D1ADEB090000F1200B600701D45B
:104D70004FF00108D84502DDA8EB0B0000E0002051
:104D80008046002406E009A85246005D0D99904730
:104D9000641C761C08988442F5DB04E030205246FF
:104DA0000D999047761CB8F10001A8F10108F5DCD7
:104DB00005E019F8010B52460D999047761CBBF19E
:104DC0000001ABF1010BF4DC6D1C34E70928010094
:104DD0000A68531C0B601070704700002DE9F04109
:104DE00000250E4607462C460AE000BF56F8240070
:104DF00019A1FBF7E4F908B16D1CADB2641CA4B2B3
:104E000056F82400FBF7D4F90028EFD138460CF00F
:104E1000E1FB04464068002610B10CF02BF86660F8
:104E2000A06810B10CF026F8A660E8000BF0F4FFC3
:104E3000606038B168000BF0EFFFA06018B16168E6
:104E400011B102E0FEE7FEE700256900FBF7A5F9D6
:104E50002584BDE8F08100000A00000030B504465A
:104E600090F82000194D89B0810717D4C10701D0EF
:104E7000410713D5242221466846FBF775F92146E0
:104E800013480BF08DFF20460BF0F4FF0120287033
:104E90000398B8B101466846884713E0E18B494260
:104EA0006183C1070ED0410702D4A18B49426183BF
:104EB0008110491C61F3820084F82000D4E90410B9
:104EC000C4E90401287809B030BD00004C0C002072
:104ED000401D002070B523480BF094FE06E0086AE0
:104EE00020F0080008621F480BF091FE0100F6D187
:104EF0001D4D686810F0F2FD064624E00020287081
:104F0000206A010723D440F008002062608B3044FF
:104F100000B2608300281ADB218B884200DD6183A8
:104F2000A1682046884762681AB1236801B2184612
:104F30009047B4F91A00218B884202DB2046FFF724
:104F40008DFF287818B107480BF05CFE03E021467E
:104F500004480BF05CFE0400D0D110F0C5FD686081
:104F600070BD0000401D00204C0C002002280ED017
:104F700003280FD0042811D0C1EBC101401EB1FBA2
:104F8000F0F00849C0B2085C5043000A7047054879
:104F9000093801E00348C01F405CF5E70148001FE5
:104FA000FAE70000BB840108F8B51549A1F51360C4
:104FB0000EF050FC134C144E0820E086462250217F
:104FC000308805F032F9A4F114070090BDF8000014
:104FD000A7F84800012584F839500720A081302225
:104FE0000B21308805F021F90090BDF80000F8830E
:104FF0006583A583E58204F5F06025830467F8BD29
:1050000028690020F85F0020140D0020F8B5214920
:10501000A1F64C300EF01EFC1F4C032047F618463C
:105020006083A083E082208304F65C21E680A1F502
:1050300022600EF00FFC194D46225021288805F001
:10504000F4F804F118070090BDF80000F884462237
:105050005021288805F0E9F80090BDF80000388557
:105060000F221421288805F0E0F80090BDF8000018
:10507000F88504F13C0001218181FF21C173C680C4
:10508000002141838183C182018300F50761C1E969
:105090001540F8BD186A0020CC5E0020140D0020D9
:1050A0002DE9F84F584959480EF0D4FB584CDFF819
:1050B0005CB16168CBF8241056490BF178000EF012
:1050C000C9FB1E220B21208805F0AFF80BF13C072D
:1050D0000090BDF8000027F83E0F1E220B2120880B
:1050E00005F0A3F80090BDF8000078805F2205214C
:1050F000208805F09AF80090BDF80000F8830BF1C5
:10510000780A6168CAF824105F220521208805F01A
:105110008CF80090BDF80000F8855146A1F13C00E4
:105120000EF098FBAAF13C0600253583F5827583C5
:105130005946B58301F1B4000EF08CFB3C221E21D0
:10514000208805F072F80090BDF80000B8873C2276
:105150001E21208805F069F80090BDF80000F8874E
:1051600006F178004FF003088581A0F81E80458382
:105170008583C58205830221C1804FF0FF0980F835
:10518000089051463C300EF065FB12220B2120881E
:1051900005F04BF806F180070090BDF80000F88696
:1051A00012220B21208805F040F80090BDF8000085
:1051B00006F1B4053887A5F8068019220A2120884F
:1051C00005F033F80090BDF80000F8874FF00108B3
:1051D000A5F80C8085F80F9006206883A883E882E4
:1051E000288328221421208805F01FF80090BDF89C
:1051F0000000A7F86800A5F52870A5F8368080E8BB
:10520000400CBDE8F88F00006C1B002028690020CE
:10521000140D0020F41A00202DE9F84F7B49A1F667
:10522000C4300EF017FB7A4828220A21008804F0C7
:10523000FCFF784C0090BDF8000060807448142298
:105240000A21008804F0F1FF0090BDF80000A08062
:1052500040F21117384604F0C6FF0090BDF8000078
:1052600060810125A581B220E0730F206083A083B7
:105270000720E082208300262675384604F0B3FF1D
:105280000090BDF800002082022740F6EE68678299
:10529000404604F0A8FF0090BDF80000208440467E
:1052A00004F0A1FF0090BDF800002086214601F126
:1052B0003C000EF0CFFA56481E220A21008804F066
:1052C000B4FF0090BDF80000E08751480A22114663
:1052D000008804F0AAFF0090BDF80000A4F8400088
:1052E000214601F178000EF0B5FA494814220A214E
:1052F000008804F09AFF0090BDF80000A4F87A003E
:10530000434828220A21008804F08FFF0090BDF84E
:105310000000A4F87C0004F1780940F6DD5AA9F8F1
:105320001250504604F05FFF04F180050090BDF874
:10533000000028835046363504F055FF0090BDF834
:10534000000025F80E0C2146A81E0EF083FA304806
:105350000A221146008804F068FF0090BDF80000A2
:1053600028802B481E220A21008804F05EFF00904E
:10537000BDF80000688004F1B4085046A8F8127027
:1053800004F031FF0090BDF80000E883504604F0BF
:105390002AFF0090BDF80000E885214601F1F000E9
:1053A0000EF058FA1A4814220A21008804F03DFF32
:1053B0000090BDF80000A887154814220A21008833
:1053C00004F033FF0090BDF80000E8873A3540F65E
:1053D000AA276E82384604F006FF04F58076009016
:1053E000BDF800003082384604F0FDFE0090BDF8A4
:1053F0000000308404F61420A0F6D811C0F81890EC
:10540000C0E90441C0E90785BDE8F88F286900209C
:10541000140D0020645D00202DE9F047304DA5F506
:10542000966029690EF016FAA5F59666022777832D
:10543000B783F78237830020F0834FF00108A6F886
:105440000C80A5F2744029690EF004FAA5F27444A8
:105450001F20A073A4F80C80E78004F13C00696968
:105460000EF0F8F904F13C07A07BB873A089B8816D
:10547000E088F88004F17800A9690EF0EBF904F1F6
:105480007808A17B88F80E10A189A8F80C10E18893
:10549000A8F8061004F1B40069690EF0DBF904F114
:1054A000B409A17B89F80E10A189A9F80C10E18834
:1054B000A9F8061004F1F000296A0EF0CBF904F106
:1054C000F000A17B8173A1898181E188C180C5F849
:1054D000C460C5E93590C83585E89001BDE8F0871E
:1054E000786700202DE9F84F6D49A1F66C100EF099
:1054F000B1F96C4C28220A21208804F096FE6A4DEE
:105500000090BDF8000025F8520F28220A212088BB
:1055100004F08BFE0090BDF80000688040F2333B41
:10552000584604F060FE0090BDF8000028815E4DF2
:105530004FF0010A50354FF00309A5F80CA0A5F86B
:10554000069006266E83AE835549EE822E83A1F522
:1055500013600EF07FF914220A21208804F065FE02
:1055600005F130080090BDF80010A8F80E101422C4
:105570000A21208804F059FE0090BDF8001005F1C2
:105580003C07A8F810100020F880A7F80CA0584697
:1055900004F029FE0090BDF80010A8F816107E83D4
:1055A000BE83FE8205F6E4113E83A1F66C100EF078
:1055B00051F92D221E21208804F037FE0090BDF8FD
:1055C0000010A8F84A102D221E21208804F02DFE7C
:1055D0000090BDF80010A8F84C1005F178060220E4
:1055E000A6F80690A6F80CA0A6F81A90A6F81C90AB
:1055F000F0823083314601F13C000EF02BF9462257
:105600005021208804F011FE05F1B00A0090BDF889
:105610000010AAF8061046225021208804F005FE4A
:105620000090BDF80010AAF8081005F1B408042095
:10563000A8F80690A8F81A00A8F81C00A8F8160008
:105640001749A8F81800A1F67C000EF003F95022C3
:105650002821208804F0E9FD0090BDF80010AAF888
:1056600060100F49A1F504600EF0F4F83C2200210F
:10567000208804F0DAFD009005F59870BDF8001060
:10568000818300F21460A0F25461E0E92357C0E97D
:1056900003513C31143080E84201BDE8F88F00002E
:1056A000A0690020140D0020E45F00202DE9F843DC
:1056B0005F49A1F28C700EF0CDF85E4E5E4C032077
:1056C000F0805F220A21208804F0AFFDA6F13805A2
:1056D0000090BDF8000025F83A0F5F220A212088CB
:1056E00004F0A3FD0090BDF80000688032220A217A
:1056F000208804F09AFD0090BDF800002881022067
:10570000B081314601F13C000EF0A4F850220A218C
:10571000208804F08AFD0090BDF80000A887502280
:105720000A21208804F081FD0090BDF80000E88780
:1057300014220A21208804F078FD0090BDF80000B2
:10574000A5F8440006F13C0801273146A8F80C7082
:1057500001F178000EF07EF85A225021208804F0E2
:1057600064FD06F148050090BDF8000025F8320FF1
:105770005A225021208804F058FD0090BDF8000006
:10578000688032225021208804F04FFD0090BDF83F
:105790000000288106F1780101F13C000EF05AF872
:1057A00046225021208804F040FD0090BDF8000002
:1057B000A88746225021208804F037FD0090BDF8CC
:1057C0000000E8871E225021208804F02EFD009062
:1057D000BDF80000A5F8440006F1B4043146A781E5
:1057E00001F1F0000EF036F840F27777384604F019
:1057F000FAFC04F114050090BDF8000068853846F5
:1058000004F0F1FC0090BDF80000A88504F13C0113
:1058100000208881094904F2D45080E84201A0F5B3
:10582000C261C0E9031402494161BDE8F883000088
:10583000286900209C610020140D0020401A0020DF
:10584000F8B50D4606460BF0C5FE0446C06B0028B1
:10585000B4F8400010D048B130460EF039FE0E4981
:1058600009688847B4F84010884211D2E06B88B1CB
:1058700000200A4E009006E060B1EDE7326869460C
:105880009047A84206D0E06B0099415C0029F5D111
:105890000020F8BD0120F8BD940C0020800C0020F1
:1058A00010B50446002084F80402401EC4F82C02FF
:1058B000204610F013FD08B1032010BDB4F8FE011E
:1058C000A0F52A41553901D0022010BD94F83600C8
:1058D000B4F8371040EA01210848B0EB012F08D096
:1058E00094F85210B4F8532041EA0221B0EB012F92
:1058F00001D1002010BD012010BD00000046415420
:10590000F0B50022184B144602EB420653F826501D
:1059100085B1D0F80072BD420DD103EB8605D0F8F9
:1059200008626F68B74206D12D89B0F80662B542A9
:1059300004D000E00124521C022AE5D3022A01D03F
:1059400079B904E05CB9022909D01220F0BD02EB5C
:10595000420003EB80004089B0F5807F01D0002039
:10596000F0BD1020F0BD00001480002030B50021F3
:10597000064A0C4601EB410352F82350854201D1FF
:1059800042F82340491C0229F4D330BD1480002082
:10599000D0F82422D0F80002490A90F80202B1FBA4
:1059A000F0F0121D02CA19B1884203D3401AF8E779
:1059B00000207047116808447047D0F81422891EEF
:1059C000921E8A4201D800207047D0F8282290F811
:1059D000020201FB002070472DE9F0410F0005464F
:1059E00006D001F071FB02280BD20120BDE8F08146
:1059F000D5F80C621EB1D5F81402B04208D80126C1
:105A000006E0411CF2D0D5F814128142EED83E4691
:105A10003446D5F81402641CA04202D80224022E97
:105A20000AD32146284601F04FFB38B1411CDDD096
:105A30000128DBD0B442ECD10020D7E76FF07042F0
:105A40002146284610F010FE30B957B1224639469B
:105A5000284610F009FE20B1012812D0012420466A
:105A6000C4E7C5F80C42D5F81002411CF7D0401E1F
:105A7000C5F8100295F8050240F0010085F805020E
:105A8000EDE74FF0FF34EAE72DE9F04789460C686F
:105A900000E0641C21782F29FBD05C29F9D0D0F8D4
:105AA00018520B222021284610F011FC002001463C
:105AB0000B460826E25C5B1C202A35D92F2A33D0FE
:105AC0005C2A31D02E2A01D0B04208D3082E38D11A
:105AD0002E2A36D108200B268906090EEAE7802AED
