:020000040800F2
:100000001025002045010008AB170008A7170008BD
:10001000A9170008FB010008E52400080000000003
:100020000000000000000000000000006123000844
:10003000FD01000800000000AD1700086323000860
:100040005F0100085F0100085F0100085F01000810
:100050005F0100085F0100085F0100085F01000800
:100060005F0100085F0100085F0100085F010008F0
:100070005F0100085F0100085F0100085F010008E0
:100080005F0100085F0100085F0100085F010008D0
:100090005F0100085F0100085F0100085F010008C0
:1000A0005F0100085F0100085F0100085F010008B0
:1000B0005F0100085F0100085F0100085F010008A0
:1000C0005F0100085F0100085F0100085F01000890
:1000D0005F0100085F0100085F0100085F01000880
:1000E0005F0100085F0100085F0100085F01000870
:1000F0005F0100085F0100085F0100085F01000860
:100100005F010008E11700085F0100085F010008B7
:100110005F0100085F0100085F0100085F0100083F
:100120005F0100085F0100085F0100085F0100082F
:10013000DFF80CD000F040F800480047D126000856
:10014000102500200648804706480047FEE7FEE7E6
:10015000FEE7FEE7FEE7FEE7FEE7FEE7FEE7FEE777
:10016000C523000831010008D2B201E000F8012BDC
:10017000491EFBD270470022F6E710B513460A4627
:1001800004461946FFF7F0FF204610BD30B50B4678
:10019000014600202022012409E021FA02F59D42B7
:1001A00005D303FA02F5491B04FA02F52844151E8B
:1001B000A2F10102F1DC30BD064C074D06E0E0681B
:1001C00040F0010394E8070098471034AC42F6D39E
:1001D000FFF7B2FF702800089028000810B508E06B
:1001E00003780C78A34202D04FF0FF3010BD401CC2
:1001F000491C521EF4D2002010BDFEE7704710B516
:10020000002302E09C18C4545B1C8B42FAD310BD3F
:100210002DE9F05F90F821100024022903D0042179
:100220008163012485E001680A6822F00E020A60F9
:1002300001680A6822F001020A603F4E3E4FB21583
:10024000DFF8F4C0DFF8F090DFF8ECA0DFF8E8B0FA
:10025000DFF8E4E00168783F13011502ACF1640CAB
:10026000A9F15009AAF13C0AABF1280BAEF1140E2A
:100270004FF48018B14227D9B9420ED0614512D04F
:1002800049451DD0514518D0594518D0714501D167
:10029000424615E0294EB14201D1012210E0274E1D
:1002A0001436B14201D110220AE0244E2836B14260
:1002B00006D0224A3C32914201D11A4600E02A4639
:1002C0001E49091F0A602BE0B94213D0614517D0BF
:1002D000494522D051451DD059451DD0714501D108
:1002E00042461AE0B14202D14FF0807215E0134E3F
:1002F000B14201D1012210E0104E1436B14201D1B9
:1003000010220AE00D4E2836B14206D00B4A3C328C
:10031000914201D11A4600E02A46074980394A60D5
:10032000012180F82110002180F82010416B01B1DB
:1003300088472046BDE8F09F800002400804024044
:1003400070B5044600F00AF90546601C02D0044866
:100350000078044400F002F9401BA042FAD370BDBB
:10036000000000202DE9F84FDFF8C891002409F1C2
:10037000040A0AF1040B23460F270BF1040ED1E007
:100380000125A54006EA0502AA4276D1DFF8A8C1F8
:100390004E68A6EB0C0866452BD00DDC032E34D03E
:1003A00005DC36B3012E19D0022E2FD11BE0112E01
:1003B00016D0122E2AD119E0B8F5881F19D006DC04
:1003C000B8F5803F15D0B8F5801F1FD111E0B8F502
:1003D000001F0ED0B8F5041F18D10AE0CB6815E055
:1003E000CB681B1D12E0CB6808330FE0CB680C33E1
:1003F0000CE08B682BB1012B4FF0080303D0456153
:1004000004E0042302E0056100E00023FF2A01D894
:10041000064601E000F104064FEA840501D9A5F182
:100420002005D6F8008007FA05FC28EA0C0803FA34
:1004300005F548EA0508C6F800804D68ED0070D55E
:100440003E4DAE6946F00106AE61AD6924F003068B
:1004500005F0010500953A4D06EB050CDCF8085057
:10046000A607360F07FA06F825EA0805DFF8D48054
:10047000404503D14FF0000825E052E0DFF8C88086
:10048000404502D14FF001081DE0DFF8C080404533
:1004900002D14FF0020816E0DFF8B480404502D1E7
:1004A0004FF003080FE0DFF8AC80404502D14FF079
:1004B000040808E0DFF8A080404502D14FF00508AD
:1004C00001E04FF0060808FA06F848EA0508CCF8FB
:1004D00008804D68D9F80060ED034D4601D51643FC
:1004E00000E096432E604D68DAF80060AD03554693
:1004F00001D5164300E096432E604D68DBF800609E
:10050000ED025D4601D5164300E096432E604D682E
:10051000DEF80060AD02754601D5164300E0964353
:100520002E60641C0A681646E2407FF429AFBDE8DD
:10053000F88F00000004014000001110001002407C
:100540000000014000080140000C01400010014083
:100550000014014000180140001C0140014880685F
:1005600070470000000000200248816802781144B2
:100570008160704700000020074810B5016841F015
:1005800010010160032000F057F8002000F006F889
:1005900000F024F8002010BD0020024070B50D4D81
:1005A00004464FF47A712878B1FBF0F00A490968E3
:1005B000B1FBF0F001F020F848B9102C07D200226E
:1005C0002146501E00F018F800206C6070BD01201C
:1005D00070BD0000000000200C00002070470028C3
:1005E00009DB00F01F02012191404009800000F169
:1005F000E020C0F800117047F0B40E4B1B680C46A9
:10060000C3F30223C3F10705042D00D90425191DE6
:10061000072901D2002300E0DB1E012606FA05F1BE
:10062000491E214099409E40761E16403143F0BC41
:1006300001F06ABF0CED00E0064900F0070208680F
:100640004FF6FF03184040EA0220034A10430860B7
:10065000704700000CED00E00000FA052DE9F047BE
:100660000F46050061D0434E306800F00700B842E5
:1006700009D2306820F0070038433060306800F05D
:100680000700B84251D128683B4C810712D540077A
:1006900003D5606840F4E06060602878000703D507
:1006A000606840F4605060606068A96820F0F00005
:1006B000084360602878C00728D06868012810D0F7
:1006C0002168022810D0890700292EDA616821F0FC
:1006D000030101436160FFF741FF804641F2883921
:1006E0000DE021688903EFE78901EDE7FFF736FFA9
:1006F000A0EB0801494502D90320BDE8F0876068F6
:10070000696800F00C00B0EB810FEFD1306800F0A9
:100710000700B8420BD9306820F00700384330603A
:10072000306800F00700B84201D00120E5E72878E2
:10073000400705D56068E96820F4E0600843606020
:100740002878000706D56068296920F4605040EADF
:10075000C100606000F038F86168084AC1F3031115
:10076000515CC8400649086006480068FFF716FF5C
:100770000020C2E700200240001002405828000874
:100780000C00002004000020044805490068496866
:10079000044AC1F30221515CC84070470C0000209C
:1007A00000100240682800080448054900684968AC
:1007B000044AC1F3C221515CC84070470C000020BC
:1007C000001002406828000812A185B00FC98DE80A
:1007D0000F0014A0144A006804905168134801F0F7
:1007E0000C03042B10D0082B0ED1C1F38343C90393
:1007F0001DF803000AD5516804AAC1F34041515CB9
:100800000A4A5043B0FBF1F005B07047084948432D
:10081000FAE7000002030405060708090A0B0C0D9D
:100820000E0F1010010200000010024000127A00AA
:1008300000093D002DE9F84F040070D02078C04D2C
:10084000C00749D06868C0F38100012807D06868F4
:10085000C0F38100022809D16868C00306D5286862
:10086000800339D560680028E7D035E06068B0F5CE
:10087000803F0BD010B1B0F5A02F11D0286820F424
:1008800080302860286820F4802002E0286840F446
:1008900080302860606890B1FFF760FE06460AE08D
:1008A000286840F480202860F0E700BFFFF756FE7C
:1008B000801B642873D828688003F7D50CE0FFF705
:1008C0004DFE064605E000BFFFF748FE801B64288A
:1008D000F0D828688003F7D420789A4E80074FF02C
:1008E00001094FF0000839D5686810F00C0F07D0E7
:1008F0006868C0F38100022809D16868C00306D483
:100900002868800714D52069012808D110E02069E3
:10091000B0B1C6F80090FFF721FE074605E00AE1F6
:10092000FFF71CFEC01B0228C4D828688007F7D533
:100930002868616920F0F80040EAC10028600DE0F5
:10094000C6F80080FFF70AFE074604E0FFF706FE40
:10095000C01B022823D828688007F7D42078000716
:100960002CD57948A169D9B1C0F80090FFF7F6FD00
:10097000074604E0FFF7F2FDC01B02280FD8686AA3
:100980008007F7D571484FF4FA510068B0FBF1F0D9
:10099000009000BF0098411E0091FAD20EE080E066
:1009A000C0F80080FFF7DAFD074604E0FFF7D6FD48
:1009B000C01B022875D8686A8007F7D420784007E2
:1009C00060D5E8690027C00008D4E86940F080508D
:1009D000E861E869012700F0805000905C480168F8
:1009E000C90513D40168834641F480710160FFF7A3
:1009F000B5FD824606E000BFFFF7B0FDA0EB0A00A0
:100A000064284ED8DBF80000C005F5D5E068012861
:100A10000AD008B1052813D0286A20F00100286206
:100A2000286A20F0040002E0286A40F001002862F1
:100A3000E06841F2883B98B1FFF790FD82460BE0F9
:100A4000286A40F004002862EEE700BFFFF786FD49
:100A5000A0EB0A0159455AD8286A8007F6D50CE060
:100A6000FFF77CFD824605E0FFF778FDA0EB0A0169
:100A700059454CD8286A8007F6D41FB1E86920F0A0
:100A80008050E861E06988B36968C1F38101022997
:100A900044D00228C6F8608004D0FFF75FFD04460A
:100AA00038E034E0FFF75AFD074604E0FFF756FD53
:100AB000C01B02282BD828688001F7D4206AB0F523
:100AC000803F05D16868A16820F400300843686061
:100AD000D4E908010843696821F474110843686087
:100AE000C6F86090FFF73AFD044606E025E000BF37
:100AF000FFF734FD001B022809D828688001F7D5CC
:100B00001BE000BFFFF72AFD001B022802D90320CB
:100B1000BDE8F88F28688001F4D40EE00128F7D0F2
:100B20006868226A00F48031914204D1616A00F45D
:100B30007010884201D00120EAE70020E8E70000B9
:100B40000010024000004242800442420C0000209B
:100B500000700040704700002DE9FE43044603206A
:100B60000F4684F83400606C03285AD0B7F5805FD4
:100B700057D04FF4006600254FF08068B7421CD173
:100B8000009501950021206800F027FE800121D406
:100B90006946204601F052FA98BB0198400332D5CD
:100BA000B4F850000104206800F052FE48BB022156
:100BB000206822E0A06B284327E01FB1A06B40F023
:100BC000006022E0009501950021206800F005FEFC
:100BD000800101D53546EDE76946204601F02EFA41
:100BE00078B90198C0030ED5B4F85000010420680C
:100BF00000F02EFE28B90021206800F076FE0028C3
:100C0000D8D00546D6E74546D4E7A063A06B0125BA
:100C100058B121680C48886384F834500120BDE83D
:100C2000FE83A06B40F08050EFE7211DD4E905065C
:100C30000EC90097CDE90106206800F0D7FD84F8C1
:100C400034500020EBE70000FF0540002DE9F041A3
:100C5000044690F834000E461546012802D00220C2
:100C6000BDE8F0810020A063B54203D2A06B40F044
:100C7000006005E0E06DA84204D2A06B40F0007077
:100C8000A0633CE0032084F8340094F84C00DFF8C3
:100C90007C8080064FF0010706D42168C1F83880B7
:100CA000A06B40F080600BE00021206800F095FD13
:100CB000800107D52168C1F83880A06B40F400603E
:100CC000A0631AE0606C012803D076026D0203284D
:100CD00009D03146206800F0E6FE40B92946206878
:100CE00000F0C8FE18B9206800F018FE48B122686C
:100CF000C2F83880A16B0143A16384F834700120ED
:100D0000AEE784F834700020AAE70000FF05400039
:100D100070470000F0B5426E920F0A70426EC2F347
:100D200083624A70426EC2F301628A70426E120C94
:100D3000CA70B0F86420120A0A7190F864204A71EF
:100D4000826E120DCA80826EC2F303420A72B0F83C
:100D50006820C2F3C0324A72B0F86820C2F3803211
:100D60008A72B0F86820C2F34032CA72B0F86820C4
:100D7000C2F300320A7300264E73426C4FF40075C2
:100D8000012462B1012A3AD0026847499163816B1C
:100D900041F08051816380F834400120F0BDB0F80B
:100DA0006820C36E9205120D42EA93720A61C26E08
:100DB000C2F3C2620A75C26EC2F302624A75C26EA3
:100DC000C2F342528A75C26EC2F38242CA75C26EC3
:100DD000C2F3C2320A760A69521C42650B7E03F0E6
:100DE00007039B1C9A4042650B7A03F00F0704FA35
:100DF00007F383655B0A5A43C0E917250EE090F8B4
:100E00006820C36E9206920A42EA13420A610A6996
:100E1000521C92024265C0E91652056630F86C2FEA
:100E2000C2F3803201F8192F0288C2F3C6124A7049
:100E3000027802F07F028A704268D20FCA7042685C
:100E4000C2F341720A714268C2F382624A71426817
:100E5000C2F383528A714268C2F34052CA710E7261
:100E60004268C2F300424A728288C2F3C0328A7278
:100E70008288C2F38032CA728288C2F340320A7317
:100E80008288C2F300324A738288C2F381228A7355
:100E90008288C2F30122CA730079C0F34600087445
:100EA0004C740020F0BD0000FF054000426C0A6059
:100EB000826C4A60C26C8A60026DCA60426D0A61CF
:100EC000826D4A61C26D8A61006EC8610020704700
:100ED00070B50446B0F8500000250104206800F009
:100EE00058FE18B1A16B0143A16304E00021206802
:100EF00000F073FC0546C5F3432070BD806B70475E
:100F000090F8340070470000F8B5056B044600689F
:100F1000416B09041BD5290719D5D4E90A56002EBF
:100F200014D00027206800F07BFC05F8010B010AB3
:100F300005F8011B010C05F8021B000E361F7F1C73
:100F400005F8010C082FEDD3C4E90A56F8BD416B32
:100F50004FF00006C9054FF0010744D539028163FF
:100F60002068C16B4CF23A329143C1632068C16A78
:100F700021F00101C16228071DD515F0220F09D00B
:100F8000206800F037FE28B1A16B0143A163204621
:100F9000FFF7BEFE216840F23A50886384F834704F
:100FA0002663A80703D0204600F03EFAF8BD20468D
:100FB00000F03BFAF8BD2806FCD5A80609D5206844
:100FC00000F018FE28B1A16B0143A1632046FFF792
:100FD0009FFEA807EED12068C16A21F00801C16216
:100FE00084F83470E3E7416B490424D5290722D5FE
:100FF000D4E90856002EDDD05FF0000715F8010B8C
:10100000009015F8011B361F40EA0120009015F8EA
:10101000021B40EA0140009015F8011C40EA016003
:1010200000906946206800F00EFC7F1C082FE5D375
:10103000C4E90856F8BD416B40F23A221142F9D09A
:10104000416B890703D5A16B41F00201A163416B9C
:10105000090703D5A16B41F00801A163416B890623
:1010600003D5A16B41F02001A163416BC90603D5F3
:10107000A16B41F01001A163416B890503D5A16B00
:1010800041F00801A16340F23A7181632068C16BAD
:1010900040F23A329143C163206800F0ABFDA16B8E
:1010A0000843A063280706D584F8347026632046D9
:1010B000FFF72EFEF8BD2806FCD515F0300F0CD03A
:1010C000E16B11484863E06BFFF7A2F80028F1D00C
:1010D000E06BBDE8F84000F019BFA8070CD0216C08
:1010E0000A484863206CFFF793F80028E2D0206C90
:1010F000BDE8F84000F0E8BEA66384F834702663CB
:101100002046FFF727FDF8BD0D1F0008C91E000887
:1011100070B504000ED094F83400002518B9257776
:10112000204600F03BF8032084F83400204600F00D
:101130000BF808B1012070BDA5632563012084F878
:101140003400002070BD0000FEB500250446762066
:101150000095CDE9015029460B460A46206800F06B
:1011600045FB08B10120FEBD0B4E46F8A05F20688C
:1011700000F04EFB01253560204601F041F820B912
:10118000204600F0C5FF0028EDD084F83450A16B54
:101190000143A163E6E700000000304230B585B0AE
:1011A0000021009101910291039100681C4988423D
:1011B00033D11C48416941F480614161416901F4C6
:1011C00080610491816941F010018161816901F0C0
:1011D00010010491816941F020018161806902243C
:1011E00000F0200004904FF4F850CDE900040325EE
:1011F000694603950C48FFF7B5F80420CDE90004D3
:10120000694603950948FFF7ADF8002211463120E1
:10121000FFF7F2F93120FFF7E2F905B030BD000029
:101220000080014000100240001001400014014005
:101230002DE9F04F87B09B4616460D460446FFF752
:101240008DF900903DB194F83400012807D0A06BCF
:1012500040F000500DE0A06B40F0006009E0002776
:10126000A763E16D06EB0B00884204D9A06B40F048
:101270000070A06395E0032084F834002068C76202
:10128000606C012800D076024FF40071206800F0F5
:1012900013FBDFF890A1012140B12368C3F838A007
:1012A000A26B0243A26384F834107AE04FF0FF305F
:1012B00001904FEA4B200290902003900220CDE94C
:1012C000040706918846B94601A9206800F06FFA24
:1012D000BBF1010F06D9022020633146206800F0DF
:1012E00097FB05E0C4F830803146206800F0A9FB88
:1012F00030B12268C2F838A0A16B0143A1634CE071
:10130000029E1EE0406B000413D596B100272068B2
:1013100000F086FA05F8010B010A05F8011B010C23
:1013200005F8021B000E361F7F1C05F8010C082F64
:10133000EDD3FFF713F90099411A109881421DD29D
:10134000E0B12068426B40F22A310A42DAD0416BA8
:10135000C90509D5BBF1010F06D9616C032903D07A
:1013600000F048FC0028C4D12068416B09071AD559
:10137000C0F838A0A06B40F0080051E02168C1F827
:1013800038A0A06B40F00040A06384F83480C4F81B
:101390003090032007B0BDE8F08F84F83480C4F8A3
:1013A00030900120F6E7416B890705D5C0F838A0D9
:1013B000A06B40F0020033E0416B89061CD5C0F8F9
:1013C00038A0A06B40F020002AE000BF00F028FA0F
:1013D00005F8010B010A05F8011B010C05F8021BB9
:1013E000000E05F8010C361FFFF7B8F80099411AF6
:1013F000109881420ED268B12068416B890201D5F4
:10140000002EE3D1216840F23A50886384F834809A
:101410000020BFE72168C1F838A0A06B40F0004071
:10142000A063BAE7FF054000704770472DE9FF4F02
:101430008DB016460D460446FFF790F80B903DB16F
:1014400094F83400012807D0A06B40F000500DE064
:10145000A06B40F0006009E00027A7631098E16DE1
:101460003044884204D9A06B40F00070A0638BE048
:10147000032084F834002068C762606C012800D023
:1014800076024FF40071206800F016FADFF864B1BC
:10149000012140B12368C3F838B0A26B0243A263B4
:1014A00084F8341070E04FF0FF30039010988946B4
:1014B000400204909020CDE90507CDE90771BA46B6
:1014C00003A9206800F073F91098012806D920209C
:1014D00020633146206800F0A7FB05E01020206360
:1014E0003146206800F0B9FB5FEA000806D02168A9
:1014F000C1F838B0A06B40EA080071E0049E27E014
:10150000406B40041CD5DEB15FF0000715F8010BFD
:10151000009015F8011B361F40EA0120009015F8D5
:10152000021B40EA0140009015F8011C40EA0160EE
:1015300000906946206800F086F97F1C082FE5D3EB
:10154000FFF70CF80B99411A1A98814220D2F8B192
:101550002068416B40F21A321142D1D0416BC9056B
:1015600023D51099012920D9616C03291DD000F0E1
:1015700041FBD0B12268C2F838B0A16B0143A1632E
:1015800084F83490C4F830A0012011B0BDE8F08F89
:101590002168C1F838B0A06B40EA0800A06384F865
:1015A0003490C4F830A00320EFE72068416B0907AE
:1015B00005D5C0F838B0A06B40F0080010E0416BD2
:1015C000890705D5C0F838B0A06B40F0020007E0ED
:1015D000416BC90606D5C0F838B0A06B40F01000CA
:1015E000A063CDE740F23A51816384F83490002043
:1015F000CBE70000FF05400010B5401EB0F1807F32
:1016000001D3012010BD4FF0E02460610F2160176D
:1016100000F07AFF0020A06107202061002010BDAB
:1016200070B5040004D094F83900002510B106E02C
:10163000012070BD84F83850204600F023F82420A3
:1016400084F839002068C16821F40051C160204647
:1016500000F0BAFE2068016921F490410161206820
:10166000416921F02A0141612068C16841F40051BB
:10167000C160E563202084F8390084F83A00002036
:1016800070BD000030B585B0002400940194029430
:10169000039400681449884224D11448816941F4B4
:1016A00080418161816901F480410491816941F047
:1016B0000401816180690E4D00F0040004904FF434
:1016C0000070009002200190032003906946284694
:1016D000FEF748FE2815CDE9000469462846029425
:1016E000FEF740FE05B030BD00380140001002405A
:1016F000000801402DE9F843044690F839001F46E0
:1017000016460D4620284CD1C5B1BEB194F838001C
:10171000012846D0012084F838004FF00008C4F8B2
:101720003C80212084F83900FEF718FFA68481460A
:10173000E684A068B0F5805F03D004E00120BDE836
:10174000F883206928B12E465FF0000584F83880C0
:101750000EE00026FAE78021204600F091FEA0B9B5
:10176000AEB116F8010B21684860E08C401EE084A1
:10177000E08C4B464FF0000200970028EBD14FF071
:101780004001204600F07CFE30B10320D7E735F859
:10179000020BC0F30800E6E7202084F8390000209F
:1017A000CDE70220CBE7FEE7FEE7FEE770470A68D9
:1017B00042624A688262D1E902231A43D1E90431C4
:1017C0000B43C16A1A4321F0F7011143C1620020A3
:1017D0007047006800F00300704708444069704794
:1017E0000148FFF791BB00002820002070B50DF1E3
:1017F000100C11439CE870002343194329434268AD
:10180000314347F6FF639A430A434260002070BDAC
:1018100010B5032101600220FEF792FD002010BDEB
:10182000D0F8800070470A688260D1E901231A432A
:10183000D1E903310B43C1681A436FF30B01114324
:10184000C160002070470968C0F880100020704710
:1018500010B586B004463720CDE900104020029034
:10186000002003904FF48060049069462046FFF703
:10187000DAFF41F288323721204600F007FA06B03D
:1018800010BD000010B504460A4886B00143292067
:10189000CDE9001040200290002003904FF48060BA
:1018A000049069462046FFF7BEFF204600F0A6FAE6
:1018B00006B010BD0000108010B586B004461020A0
:1018C000CDE9001040200290002003904FF480608A
:1018D000049069462046FFF7A6FF41F288321021A6
:1018E000204600F0D3F906B010BD10B586B004460E
:1018F0000620CDE9001040200290002003904FF414
:101900008060049069462046FFF78DFF41F28832DF
:101910000621204600F0BAF906B010BD10B586B019
:10192000044600212620CDE900104020CDE9020127
:101930000001049069462046FFF775FF4FF21862D8
:101940002621204600F0A2F906B010BD30B585B0C2
:1019500000240546009401944FF480600294CDE980
:10196000034069462846FFF75EFF0B484FF4FA51E3
:101970000068B0FBF1F041F288314843401E03D2C9
:101980004FF0004005B030BD696B0906F6D5C520A3
:10199000A8632046F6E700000C00002070B585B073
:1019A00004464FF4D570009001A908204025002678
:1019B00081E86100C001049069462046FFF733FFCB
:1019C00012484FF4FA510068B0FBF1F041F288314F
:1019D0004843401E03D24FF0004005B070BD616B1C
:1019E00011F0450FF5D00905F3D4606B400701D520
:1019F000042003E0606BC00702D00120A063ECE785
:101A0000606B400600D5A5633046E6E70C00002079
:101A100010B586B004461220CDE900104020029097
:101A2000002003904FF48060049069462046FFF741
:101A3000FAFE41F288321221204600F027F906B062
:101A400010BD10B586B004461120CDE9001040202D
:101A50000290002003904FF4806004906946204675
:101A6000FFF7E1FE41F288321121204600F00EF925
:101A700006B010BD10B586B004462120CDE9001097
:101A800040200290002003904FF48060049069464B
:101A90002046FFF7C8FE41F288322121204600F09F
:101AA000F5F806B010BD10B586B004462020CDE98B
:101AB000001040200290002003904FF480600490BA
:101AC00069462046FFF7AFFE41F2883220212046CA
:101AD00000F0DCF806B010BD10B586B00446072053
:101AE000CDE9002040200290002003904FF4806058
:101AF000049069462046FFF796FE41F2883207219E
:101B0000204600F0C3F806B010BD10B586B00446FC
:101B100000210220CDE90010C020CDE902014FF4E0
:101B20008060049069462046FFF77DFE204600F065
:101B30003DF906B010BD10B586B004460920CDE9C8
:101B40000010C0200290002003904FF480600490A9
:101B500069462046FFF767FE204600F027F906B0E9
:101B600010BD10B586B0044600213320CDE9001029
:101B70004020CDE902010001049069462046FFF7AC
:101B800052FE41F288323321204600F07FF806B041
:101B900010BD10B586B004460D20CDE900104020E0
:101BA0000290002003904FF4806004906946204624
:101BB000FFF739FE41F288320D21204600F066F829
:101BC00006B010BD30B585B00C4605460021032097
:101BD000CDE900104020CDE90201000104906946E2
:101BE0002846FFF720FE22460321284600F028F968
:101BF00005B030BD10B586B0044600210C20CDE9FB
:101C000000104020CDE90201000104906946204601
:101C1000FFF709FE034A0C21204600F037F806B012
:101C200010BD000000E1F50510B586B0044619208E
:101C3000CDE9001040200290002003904FF4806016
:101C4000049069462046FFF7EEFD41F288321921E3
:101C5000204600F01BF806B010BD10B586B0044653
:101C60001820CDE9001040200290002003904FF48E
:101C70008060049069462046FFF7D5FD41F2883226
:101C80001821204600F002F806B010BD454B10B5F3
:101C90001B684FF4FA54B3FBF4F353435B1E02D2B8
:101CA0004FF0004010BD426B12F0450FF6D0120508
:101CB000F4D4426B520703D504218163084610BD5A
:101CC000426BD20702D00121816305E0C522826305
:101CD0000269D2B28A4201D0012010BD0021FFF773
:101CE0007CFD3149084201D1002010BD002802DAF4
:101CF0004FF0007010BD410001D5402010BD8100A3
:101D000001D5802010BDC10002D54FF4807010BDF8
:101D1000010102D54FF4007010BD410102D54FF40E
:101D2000806010BDC10102D54FF4006010BD0102FA
:101D300002D54FF4805010BD410202D54FF400503F
:101D400010BD810202D54FF4804010BDC10202D502
:101D50004FF4004010BD410302D54FF4003010BDD8
:101D6000810302D54FF4802010BDC10302D54FF48A
:101D7000002010BD010402D54FF4801010BD4104B5
:101D800002D54FF4001010BD810402D54FF480003D
:101D900010BD000702D54FF4000010BD4FF4803095
:101DA00010BD00000C00002008E0FFFD12494FF4B8
:101DB000FA520968B1FBF2F141F288325143491EEF
:101DC00002D24FF000407047426B12F0450FF6D040
:101DD0001205F4D4416B490703D5042181630846F9
:101DE0007047416BC90703D00121816308467047E2
:101DF000C5218163002070470C0000200F494FF47B
:101E0000FA520968B1FBF2F141F288325143491E9E
:101E100002D24FF000407047426B12F0450FF6D0EF
:101E20001205F4D4416B490703D5042181630846A8
:101E30007047C52181630020704700000C0000201E
:101E400030B5204B4FF4FA541B68B3FBF4F341F266
:101E5000883463435B1E02D24FF0004030BD446BB8
:101E600014F0450FF6D02405F4D4436B5B0703D57B
:101E700004218163084630BD436BDB0702D001219A
:101E8000816303E00369DBB28B4201D0012030BDE6
:101E9000C52181630021FFF7A0FC10F4604F04D03E
:101EA000410406D54FF4005030BD000C10800020D6
:101EB00030BD000402D54FF4805030BD4FF4803067
:101EC00030BD00000C00002010B5446A40F23A50CA
:101ED000216888632046FEF7FBFF012184F8341057
:101EE00000212163062801D0052805D12068FFF7CD
:101EF00081FEA16B0843A063A06B0028204602D09E
:101F0000FEF706FF10BDFEF725FE10BD10B5446AB2
:101F100040F23A50216888632046FEF7D9FF01213C
:101F200084F8341000212163062801D0052805D14A
:101F30002068FFF75FFEA16B0843A063A06B002839
:101F4000204602D0FEF7E4FE10BDFEF703FE10BDF2
:101F500038B54FF48054224600211B48FEF776FE28
:101F600018B11AA000F0C0FAFEE71CA000F0BCFAFD
:101F70000A20FEF7E5F94FF6FF70009008230022D3
:101F80001A491148FFF754F901000DD018A000F0CC
:101F9000ABFA1AA000F0A8FA0B48FEF7AFFF014613
:101FA0001AA000F0A1FAFEE71CA000F09DFA21465D
:101FB0000E4800F073FB002804D1BDE838401AA099
:101FC00000F092BA38BD000028200020534420457C
:101FD00072617365206661696C0D0A005344204587
:101FE00072617365206F7665720D0A00140000201F
:101FF0006572726F723A25640D0A000053442072B4
:10200000656164206572726F720D0A006572726399
:102010006F64653A25640D0A000000005344207285
:102020006561640D0A000000657261736520737557
:10203000636365737366756C0D0A00002DE9F04FDC
:1020400089B00D460446FEF789FA002683460096BD
:102050000196374608212068FFF72EFC002834D16E
:10206000B4F8500001042068FFF7F2FB00282CD1DF
:10207000401E4FF00808CDE9020830204FF0020959
:10208000CDE904090120CDE9067002A92068FFF717
:102090008EFB2068FFF765FD002816D1EA4640F266
:1020A0002A472068416B394212D1416B890204D51D
:1020B000FFF7B6FB4AF82600761CFEF74FFAA0EBB6
:1020C0000B00401CEDD14FF0004009B0BDE8F08F8F
:1020D000416B090703D5C0F838800820F5E7416B4C
:1020E000890703D5C0F838900220EEE7416B8906D6
:1020F00003D5202181630846E7E740F23A51816326
:10210000019800BA2860009800BA68600020DCE7F7
:1021100010B590B004460120ADF838002068FFF7F4
:1021200058FB002854D0606C032842D02068FFF789
:10213000ECFC00284AD100212068FFF74EFB6067C5
:1021400004212068FFF749FBA06708212068FFF7FA
:1021500044FBE0670C212068FFF73FFBC4F88000D8
:10216000606C032825D00EA92068FFF72BFD0028FE
:102170002CD1606C03281CD0BDF838002065010408
:102180002068FFF7D8FC002820D100212068FFF745
:1021900024FB606604212068FFF71FFBA06608216E
:1021A0002068FFF71AFBE0660C212068FFF715FB9B
:1021B000206704212068FFF710FB000DE06403A9ED
:1021C0002046FEF7A7FD30B14FF0805010B010BD93
:1021D0004FF08060FAE7B4F8500000230204206852
:1021E000FFF77AFC0028F1D104F1100007C88DE850
:1021F000070094E80F00FFF7F9FA0020E6E7000077
:102200002DE9F84F0026044600963546B046006892
:10221000FFF79CFB002827D12068FFF7BFFB4FF09A
:10222000805B4FF001094FF6FF7748B1A664206844
:10223000FFF78CFB002817D1A06C012802D020E00A
:10224000C4F8489000212068FFF702FB58B918E055
:1022500000212068FFF7FCFA002805D151462068CC
:10226000FFF710FB10B15846BDE8F88F0021206839
:10227000FFF7B3FA05464FEAD0780098401C00906B
:1022800002E0DFF82CA00098B84202D2B8F1000FAB
:10229000DED00098B84202D34FF08070E4E76800C7
:1022A00002D5C4F8449000E066640020DCE700003A
:1022B000000010C138B50122150329461548FDF765
:1022C0009EFF4FF6FF740823002212491248009423
:1022D000FFF7ACF810B911A000F006F94FF4FA704E
:1022E000FEF72EF8082300220F490B480094FEF752
:1022F0009FFF10B90DA000F0F7F82A460A490548DB
:10230000FDF76CFF20B10CA0BDE8384000F0ECB840
:102310000EA0F9E71E1000202820002077726974B3
:1023200065206F6B0D0A0000140000207265616467
:10233000206F6B0D0A000000A1B7B6C1D0B4B2E2A5
:10234000CAD4CAA7B0DCA3A10D0A2000A1B7B6C1A8
:10235000D0B4B2E2CAD4B3C9B9A6A3A10D0A000091
:102360007047FEF701B930B58FB028216846FDF7F8
:1023700002FF14210AA8FDF7FEFE01210804CDE9A1
:1023800000100024029402250491CDE907504FF477
:10239000E01009906846FEF74DFA08B172B6FEE704
:1023A0000F20CDE90A054FF48060CDE90C400221F1
:1023B0000AA80E94FEF752F9002801D072B6FEE783
:1023C0000FB030BD7047000070B504460068016969
:1023D000E26821F44051114301612169A06808437A
:1023E000616908432168CA6841F20C639A43024359
:1023F000CA6020684169A26921F4407111434161BA
:102400001E492068884202D1FEF7CEF901E0FEF7AE
:10241000BBF900EBC00101EB001260686421800091
:10242000B2FBF0F3B3FBF1F36FF018067343B2FBAA
:10243000F0F5B2FBF0F605EB8305322303EB05154F
:10244000B5FBF1F5B6FBF1F605F0F00505EB061569
:10245000B2FBF0F6B2FBF0F0B0FBF1F06FF0180257
:10246000504306EB800003EB0010B0FBF1F0216855
:1024700000F00F002844886070BD00000038014063
:102480002DE9F041984617460E460446069D1DE08C
:10249000681C1BD02DB1FEF761F8A0EB0800A84224
:1024A00014D92068C16821F4D071C16020684169E5
:1024B00021F001014161202084F8390084F83A00BC
:1024C000002084F838000320BDE8F081206800680F
:1024D00036EA000004D00020B842D9D00020F3E74B
:1024E0000120F9E7FEE700000FB4054B10B503A982
:1024F000044A029800F028F810BC5DF814FB0000B4
:10250000B9260008100000200907090E002804DB86
:1025100000F1E02080F80014704700F00F0000F197
:10252000E02080F8141D704702E008C8121F08C19F
:10253000002AFAD170477047002001E001C1121F44
:10254000002AFBD1704700002DE9FF4F89B09B4660
:102550000446002506E025280BD05A460B999047E3
:10256000641C6D1C20780028F5D10DB02846BDE80C
:10257000F08F0027B8460122474900E0074314F8CE
:10258000013F203B02FA03F00842F7D120782E28C1
:1025900019D114F8010F47F004072A280ED06FF064
:1025A0002F022078A0F1300109290CD808EB88010E
:1025B00002EB410100EB0108641CF2E70A98641C7D
:1025C00050F8048B0A9020780028CED0642808D0D8
:1025D000692806D075281ED05A460B9990476D1C65
:1025E00058E00A994FF00A0901C90A91002802DA55
:1025F00040422D2102E0390504D52B218DF8201011
:10260000012103E0F90704D02021F7E78A4608AE4C
:102610000DE00021FAE70A994FF00A0901C90A9171
:10262000F7E74946FDF7B2FD303106F8011D0028F5
:10263000F7D1ADEB060000F12009780701D44FF087
:102640000108C84502DDA8EB090000E00020804633
:10265000002706E008A85A46C05D0B9990476D1CFC
:102660007F1C5745F6DB04E030205A460B99904713
:102670006D1CB8F10001A8F10108F5DC05E016F8C1
:10268000010B5A460B9990476D1CB9F10001A9F155
:102690000109F4DC641C65E70928010007E0027801
:1026A000FF2A03D012B14FF0FF307047401C491E83
:1026B000F5D200207047000013B54FF6FF730122DA
:1026C00069460248FFF716F800981CBDCC20002090
:1026D00008B5FDF751FFFFF746FE3748816941F025
:1026E00010018161816901F010010091816941F05F
:1026F00004018161816901F004010091816941F067
:102700002001816180692D4900F0200000902C4853
:102710000024C0E900148460C46004210461C0E99D
:102720000541FEF7F5FC08B172B6FEE74FF4006113
:102730002348FEF711FA08B172B6FEE72048214996
:10274000A43001604FF4E131C0E901140C21C460F0
:10275000C0E904418461C461FEF762FF08B172B64A
:10276000FEE71748FEF7CCFB012803D016A0FFF7C1
:10277000BBFEFEE719A0FFF7B7FE114910488431F0
:10278000FEF794FB19A0FFF7AFFE0D4C23A0843495
:10279000E168FFF7A9FE26A02169FFF7A5FE29A0A1
:1027A0006169FFF7A1FE11A0FFF79EFEFFF7D0FBC6
:1027B000FFF780FDFEE700000010024000800140AE
:1027C00028200020003801405344204572726F7267
:1027D00020616E642053746F700D0A0053442069A9
:1027E000732072656164790D0A0000002A2A2A2A82
:1027F0002A2A2A2A2A2A2A2A2A2A2A2A2A2A2A2A39
:102800002A2A2A2A2A2A2A2A2A2A2A2A2A2A2A2A28
:102810002A2A2A2A2A2A2A2A0D0A000052656C43EB
:102820006172644164642069733A25640D0A000092
:10283000426C6F636B4E62722069733A25640D0AB5
:1028400000000000426C6F636B53697A6520697306
:102850003A25640D0A00000000000000000000009E
:102860000102030406070809000000000102030436
:10287000902800080000002014000000282500080F
:10288000A428000814000020FC24000038250008BB
:102890000100000010000000000000000024F4000F
:0428A0000000000034
:0400000508000131BD
:00000001FF
