:020000040800F2
:100000008804002045010008DB130008871300085E
:10001000D9130008990200087D15000800000000AF
:10002000000000000000000000000000DF130008D6
:100030009B02000800000000DD130008E113000827
:100040005F0100085F0100085F0100085F01000810
:100050005F0100085F0100085F0100085F01000800
:100060005F0100085F0100085F0100085F010008F0
:100070005F0100085F0100085F0100085F010008E0
:100080005F0100085F0100085F0100085F010008D0
:100090005F0100085F0100085F0100085F010008C0
:1000A0005F0100085F0100085F0100085F010008B0
:1000B0005F0100085F0100085F0100085F010008A0
:1000C0005F0100085F0100085F0100085F01000890
:1000D0005F0100085F0100085F0100085F01000880
:1000E0005F0100085F0100085F0100085F01000870
:1000F0005F0100085F0100085F0100085F01000860
:100100005F0100085F0100085F0100085F0100084F
:100110005F0100085F0100085F0100085F0100083F
:100120005F0100085F0100085F0100085F0100082F
:10013000DFF80CD000F040F8004800474D170008E9
:10014000880400200648804706480047FEE7FEE78F
:10015000FEE7FEE7FEE7FEE7FEE7FEE7FEE7FEE777
:100160005F14000831010008D2B201E000F8012B51
:10017000491EFBD270470022F6E710B513460A4627
:1001800004461946FFF7F0FF204610BD30B50B4678
:10019000014600202022012409E021FA02F59D42B7
:1001A00005D303FA02F5491B04FA02F52844151E8B
:1001B000A2F10102F1DC30BD064C074D06E0E0681B
:1001C00040F0010394E8070098471034AC42F6D39E
:1001D000FFF7B2FF6C1800088C18000870B50446D1
:1001E00000688168C943C9071CD1816821F00101F9
:1001F000816000F005FC05460FE000BF00F000FC48
:10020000401B022809D9A06A40F01000A062E06AF1
:1002100040F00100E062012070BD20688068C043AA
:10022000C007EBD0002070BDF8B50026044600964C
:1002300000688168C943C90728D0816841F001017D
:100240008160134813490068B0FBF1F000E0401EE4
:1002500000900028FBD100F0D3FB054611E000BF61
:1002600000F0CEFB401B02280BD9A06A40F0100022
:10027000A062E06A40F00100E06284F8246001209E
:10028000F8BD20688068C043C007E9D10020F8BDF0
:100290000C00002040420F00FEE7704730B585B0EB
:1002A00000256C4600F030F824F81500052000F019
:1002B00099FA6D1CEDB20A2DF4D30021084601E035
:1002C00000200BE004EB400334F810205D88AA42C4
:1002D00002D924F810505A80401CC0B2C1F1090262
:1002E0008242EFDC491CC9B20929E9D3002101206F
:1002F00034F81020401C1144C0B289B20928F7D349
:1003000005B0C80830BD000010B5094800F00AFA71
:100310006421074800F06EF9054800F0A7F8800551
:1003200004D5034800F0A4F880B210BD002010BD31
:100330001400002010B504460020024606E000BF6D
:1003400034F81230834200DD1846521C8A42F7DB33
:1003500010BD10B5044640F2E730002205E034F845
:100360001230834200DA1846521C8A42F7DB10BD75
:10037000F8B50024009490F824202546012A12D0D4
:10038000012280F824204A681F23072A0DD206681C
:10039000776B521E02EB820293409F430B6893409F
:1003A0001F43776319E00220F8BD06680D2A0AD2C0
:1003B000376BD21F02EB820293409F430B6893403E
:1003C0001F43376309E0F76A0D3A02EB820293405C
:1003D0009F430B6893401F43F7620A680723066830
:1003E0000A2A0AD3F7680A3A02EB420293409F4373
:1003F0008B6893401F43F76008E0376902EB4202C5
:1004000093409F438B6893401F4337610A68102ACB
:1004100001D0112A20D1124B02689A4217D1936859
:100420001B0219D4936843F40003936009681029F0
:1004300012D10C490C4A0968B1FBF2F101EB8101C0
:10044000490000E0491E00910029FBD104E0816AC7
:1004500041F020018162012480F824502046F8BD3B
:10046000002401400C00002040420F00806A7047C9
:100470000068C06C704700002DE9F04104004FF0A7
:10048000000514D0A06A002628B9E66284F824602A
:10049000204600F083F82046FFF7A0FEA16A01F095
:1004A0001001014304D0A06A40F01000A0626BE08C
:1004B000A16A21F4885141F00201A1623349236805
:1004C0008B42E16904D1B1F5402F01D14FF40021F5
:1004D000277B4FF4807C41EA470261680A43A168A8
:1004E000614509D0012907D05FF0000194F814E0BC
:1004F000BEF1010F02D00AE06146F7E7C7B1A76A73
:1005000047F02007A762E76A47F00107E7625F68E4
:1005100027F469470F435F60236899681C4F39408F
:1005200011439960A16861450BD0012909D00CE005
:10053000DFF860E0A7690EEB47370F4347F400612F
:10054000E5E7218A0D05A5F580152168CB6A23F41E
:1005500070032B43CB62216889680F4B194091428D
:1005600008D1E662A16A21F0020141F00101A16215
:10057000BDE8F081A06A20F0020040F01000A06207
:10058000E06A40F00100E0620120F1E7003C014038
:10059000FDF7E1FF00E0FFFFFE0E1FFF00B585B095
:1005A0000021009101910291039100680E49884257
:1005B00018D10E48816941F400718161816901F4AB
:1005C00000710491816941F004018161806969468B
:1005D00000F00400049001200090032001900448E2
:1005E00000F012F905B000BD0024014000100240E7
:1005F000000801402DE9F84300260D460446009608
:1006000000F0FEF9804620688168C90508D5A06A17
:1006100040F02000A06284F824600120BDE8F88347
:100620004168C90503D4C06A10F4700F26D00220B7
:1006300000F076FA38490968B1FBF0F720680369E1
:1006400036490B424FEA61014FEAA1121BD1C36840
:100650004FEA611C13EA0C0F15D103690B4221D13B
:10066000C06810421ED114201FE0681C06D045B39C
:1006700000F0C6F9A0EB0800A84222D82068006864
:100680008007F2D52AE003690B4202D1C16811420A
:1006900006D0026922490A4206D1C068084203D145
:1006A000542002E0292000E0FC204743009813E09A
:1006B000681C0ED02DB100F0A3F9A0EB0800A842F1
:1006C00007D9A06A40F00400A06284F824600320E7
:1006D000A4E70098401C0090B842E9D321686FF06D
:1006E00012000860A06A40F40070A0622068806870
:1006F000C0F3424007280CD1207B50B9A06A20F4F7
:100700008070A062A06AC00403D4A06A40F0010017
:10071000A062002082E700000C00002024499224FF
:100720004992240070B5044690F8240001280DD0A9
:10073000012084F824002046FFF776FD02004FF0E8
:10074000000005D084F82400104670BD022070BD62
:10075000A16A40F20123994341F48071A1621F4DC7
:1007600023681F49AB4218D10E6816F4702F14D0BD
:10077000A66A46F48016A6620E68760505D5A66AB6
:1007800026F4005646F48056A662A66AF6040AD5F8
:10079000E66A26F00606E66206E0A66A26F48016F9
:1007A000A6625E68E9E7E06284F824006FF0020068
:1007B000186020688368C3F34243072B05D1A84221
:1007C00008D1096811F4702F04D0816841F48011B8
:1007D0008160B9E7816841F4A001F9E70028014090
:1007E0000424014070B5044600F00AF90546601C77
:1007F00002D004480078044400F002F9401BA042F3
:10080000FAD370BD000000202DE9F84FDFF8C89141
:10081000002409F1040A0AF1040B23460F270BF107
:10082000040ED1E00125A54006EA0502AA4276D1D0
:10083000DFF8A8C14E68A6EB0C0866452BD00DDC8E
:10084000032E34D005DC36B3012E19D0022E2FD161
:100850001BE0112E16D0122E2AD119E0B8F5881FF0
:1008600019D006DCB8F5803F15D0B8F5801F1FD130
:1008700011E0B8F5001F0ED0B8F5041F18D10AE03A
:10088000CB6815E0CB681B1D12E0CB6808330FE086
:10089000CB680C330CE08B682BB1012B4FF00803B5
:1008A00003D0456104E0042302E0056100E0002379
:1008B000FF2A01D8064601E000F104064FEA84054C
:1008C00001D9A5F12005D6F8008007FA05FC28EA31
:1008D0000C0803FA05F548EA0508C6F800804D68DB
:1008E000ED0070D53E4DAE6946F00106AE61AD69D2
:1008F00024F0030605F0010500953A4D06EB050CC2
:10090000DCF80850A607360F07FA06F825EA0805AE
:10091000DFF8D480404503D14FF0000825E052E0D5
:10092000DFF8C880404502D14FF001081DE0DFF834
:10093000C080404502D14FF0020816E0DFF8B480D5
:10094000404502D14FF003080FE0DFF8AC8040458E
:1009500002D14FF0040808E0DFF8A080404502D142
:100960004FF0050801E04FF0060808FA06F848EADB
:100970000508CCF808804D68D9F80060ED034D46B5
:1009800001D5164300E096432E604D68DAF800600A
:10099000AD03554601D5164300E096432E604D68E1
:1009A000DBF80060ED025D4601D5164300E096439A
:1009B0002E604D68DEF80060AD02754601D5164325
:1009C00000E096432E60641C0A681646E2407FF4FD
:1009D00029AFBDE8F88F00000004014000001110AD
:1009E000001002400000014000080140000C0140DE
:1009F000001001400014014000180140001C01409B
:100A000001488068704700000000002002488168AB
:100A1000027811448160704700000020074810B53B
:100A2000016841F010010160032000F067F8002028
:100A300000F006F800F024F8002010BD002002406D
:100A400070B50D4D04464FF47A712878B1FBF0F083
:100A50000A490968B1FBF0F000F0BEFB48B9102C60
:100A600007D200222146501E00F028F800206C60BA
:100A700070BD012070BD0000000000200C000020AF
:100A80000C4808B5816941F001018161816901F07B
:100A900001010091C16941F08051C161C06900F05C
:100AA000805000900448416821F0E06141F080618D
:100AB000416008BD0010024000000140F0B40E4B40
:100AC0001B680C46C3F30223C3F10705042D00D9AC
:100AD0000425191D072901D2002300E0DB1E012691
:100AE00006FA05F1491E214099409E40761E1640A7
:100AF0003143F0BC00F054BD0CED00E0064900F0BD
:100B0000070208684FF6FF03184040EA0220034A34
:100B100010430860704700000CED00E00000FA058B
:100B200010B52CA401461DCC86B08DE81D002DA06B
:100B30002D4C00680490002004292FD00BDC0129E3
:100B40002FD0022928D100F071F96168C1F38131F9
:100B5000491C49001EE0082920D010291CD16168D9
:100B60002268D20118D5C1F38342C9031DF80200DF
:100B700009D5616804AAC1F34041515C1B4AB2FB2C
:100B8000F1F1484301E01A4948436168490203D43E
:100B900040000321B0FBF1F006B010BD00F056F9A3
:100BA000FAE7226AC2F30121012903D1920701D594
:100BB000C803F1E7022905D1626A920702D549F616
:100BC0004040E9E70329E7D121688903E4D54FF2E2
:100BD0002440E1E702030405060708090A0B0C0D8F
:100BE0000E0F1010010200000010024000127A00E7
:100BF00000093D002DE9F84305460078354CC00753
:100C000054D0E0690026C00008D4E06940F080506C
:100C1000E061E069012600F0805000902E480168F4
:100C2000C90512D40168804641F480710160FFF764
:100C3000E7FE074605E000BFFFF7E2FEC01B6428A1
:100C400023D8D8F80000C005F6D5206A10F440700B
:100C500021D0A98801F4407181421CD0206A1F492B
:100C6000012220F440700A6000220A602062C0075E
:100C700011D0FFF7C5FE074641F2883808E000BFF3
:100C8000FFF7BEFEC11B414502D90320BDE8F88332
:100C9000206A8007F4D5206A696820F44070084310
:100CA00020621EB1E06920F08050E0612878800762
:100CB00005D56068A96820F4404008436060287842
:100CC000C00605D56068696920F48000084360604B
:100CD0000020DBE700100240007000404004424268
:100CE0002DE9F0470F46050061D0434E306800F013
:100CF0000700B84209D2306820F00700384330605E
:100D0000306800F00700B84251D128683B4C810799
:100D100012D5400703D5606840F4E0606060287831
:100D2000000703D5606840F4605060606068A9689F
:100D300020F0F000084360602878C00728D0686879
:100D4000012810D02168022810D0890700292EDA46
:100D5000616821F0030101436160FFF751FE8046A5
:100D600041F288390DE021688903EFE78901EDE759
:100D7000FFF746FEA0EB0801494502D90320BDE874
:100D8000F0876068696800F00C00B0EB810FEFD16C
:100D9000306800F00700B8420BD9306820F0070037
:100DA00038433060306800F00700B84201D00120BD
:100DB000E5E72878400705D56068E96820F4E06039
:100DC000084360602878000706D56068296920F428
:100DD000605040EAC100606000F038F86168084A7D
:100DE000C1F30311515CC840064908600648006819
:100DF000FFF726FE0020C2E700200240001002405C
:100E0000541800080C000020040000200448054984
:100E100000684968044AC1F30221515CC840704728
:100E20000C00002000100240641800080448054926
:100E300000684968044AC1F3C221515CC840704748
:100E40000C000020001002406418000812A185B0B8
:100E50000FC98DE80F0014A0144A0068049051686F
:100E6000134801F00C03042B10D0082B0ED1C1F352
:100E70008343C9031DF803000AD5516804AAC1F3CE
:100E80004041515C0A4A5043B0FBF1F005B0704755
:100E900008494843FAE70000020304050607080969
:100EA0000A0B0C0D0E0F1010010200000010024082
:100EB00000127A0000093D002DE9F84F040070D0BF
:100EC0002078C04DC00749D06868C0F38100012870
:100ED00007D06868C0F38100022809D16868C003A0
:100EE00006D52868800339D560680028E7D035E04A
:100EF0006068B0F5803F0BD010B1B0F5A02F11D0D5
:100F0000286820F480302860286820F4802002E0DF
:100F1000286840F480302860606890B1FFF770FD69
:100F200006460AE0286840F480202860F0E700BF09
:100F3000FFF766FD801B642873D828688003F7D507
:100F40000CE0FFF75DFD064605E000BFFFF758FD2A
:100F5000801B6428F0D828688003F7D420789A4E44
:100F600080074FF001094FF0000839D5686810F08C
:100F70000C0F07D06868C0F38100022809D16868A7
:100F8000C00306D42868800714D52069012808D139
:100F900010E02069B0B1C6F80090FFF731FD0746B8
:100FA00005E00AE1FFF72CFDC01B0228C4D8286821
:100FB0008007F7D52868616920F0F80040EAC10091
:100FC00028600DE0C6F80080FFF71AFD074604E030
:100FD000FFF716FDC01B022823D828688007F7D426
:100FE000207800072CD57948A169D9B1C0F80090C4
:100FF000FFF706FD074604E0FFF702FDC01B0228CD
:101000000FD8686A8007F7D571484FF4FA51006825
:10101000B0FBF1F0009000BF0098411E0091FAD2A1
:101020000EE080E0C0F80080FFF7EAFC074604E02D
:10103000FFF7E6FCC01B022875D8686A8007F7D462
:101040002078400760D5E8690027C00008D4E86927
:1010500040F08050E861E869012700F0805000907E
:101060005C480168C90513D40168834641F4807166
:101070000160FFF7C5FC824606E000BFFFF7C0FC39
:10108000A0EB0A0064284ED8DBF80000C005F5D5B7
:10109000E06801280AD008B1052813D0286A20F09A
:1010A00001002862286A20F0040002E0286A40F06B
:1010B00001002862E06841F2883B98B1FFF7A0FC8C
:1010C00082460BE0286A40F004002862EEE700BF89
:1010D000FFF796FCA0EB0A0159455AD8286A800709
:1010E000F6D50CE0FFF78CFC824605E0FFF788FCA4
:1010F000A0EB0A0159454CD8286A8007F6D41FB1E5
:10110000E86920F08050E861E06988B36968C1F35C
:101110008101022944D00228C6F8608004D0FFF77C
:101120006FFC044638E034E0FFF76AFC074604E051
:10113000FFF766FCC01B02282BD828688001F7D473
:10114000206AB0F5803F05D16868A16820F40030BE
:1011500008436860D4E908010843696821F4741100
:1011600008436860C6F86090FFF74AFC044606E052
:1011700025E000BFFFF744FC001B022809D82868BF
:101180008001F7D51BE000BFFFF73AFC001B0228E7
:1011900002D90320BDE8F88F28688001F4D40EE05E
:1011A0000128F7D06868226A00F48031914204D1A6
:1011B000616A00F47010884201D00120EAE7002043
:1011C000E8E7000000100240000042428004424272
:1011D0000C0000200070004010B5401EB0F1807F70
:1011E00001D3012010BD4FF0E02460610F21601792
:1011F00000F0D6F90020A06107202061002010BD7A
:1012000070B5040004D094F83900002510B106E050
:10121000012070BD84F83850204600F023F82420C7
:1012200084F839002068C16821F40051C16020466B
:1012300000F016F92068016921F4904101612068ED
:10124000416921F02A0141612068C16841F40051DF
:10125000C160E563202084F8390084F83A0000205A
:1012600070BD000030B585B0002400940194029454
:10127000039400681449884224D11448816941F4D8
:1012800080418161816901F480410491816941F06B
:101290000401816180690E4D00F0040004904FF458
:1012A00000700090022001900320039069462846B8
:1012B000FFF7AAFA2815CDE90004694628460294EA
:1012C000FFF7A2FA05B030BD00380140001002401F
:1012D000000801402DE9F843044690F839001F4604
:1012E00016460D4620284CD1C5B1BEB194F8380041
:1012F000012846D0012084F838004FF00008C4F8D7
:101300003C80212084F83900FFF77AFBA6848146CF
:10131000E684A068B0F5805F03D004E00120BDE85A
:10132000F883206928B12E465FF0000584F83880E4
:101330000EE00026FAE78021204600F0EDF8A0B983
:10134000AEB116F8010B21684860E08C401EE084C5
:10135000E08C4B464FF0000200970028EBD14FF095
:101360004001204600F0D8F830B10320D7E735F827
:10137000020BC0F30800E6E7202084F839000020C3
:10138000CDE70220CBE7FEE73EB5002411480094EC
:10139000019402940E498460016004730475012570
:1013A00005614FF460214460C161FFF765F808B141
:1013B00072B6FEE707200094CDE901506946054862
:1013C000FEF7D6FF002801D072B6FEE73EBD000052
:1013D0000024014014000020FEE7FEE7704770473C
:1013E000FFF714BB30B595B028216846FEF7C3FE61
:1013F00014210AA8FEF7BFFE18210FA8FEF7BBFEB6
:1014000001210804CDE90010002502950224049171
:10141000CDE907404FF4E01009906846FFF74CFD16
:1014200008B172B6FEE70AA90F2081E831004FF437
:101430008060CDE90D0502210AA8FFF751FC08B133
:1014400072B6FEE74FF4404011900F940FA8FFF7DB
:10145000D1FB002801D072B6FEE715B030BD704751
:1014600070B5044600680169E26821F440511143F7
:1014700001612169A0680843616908432168CA685D
:1014800041F20C639A430243CA6020684169A26931
:1014900021F44071114341611E492068884202D104
:1014A000FFF7C4FC01E0FFF7B1FC00EBC00101EB6A
:1014B0000012606864218000B2FBF0F3B3FBF1F32B
:1014C0006FF018067343B2FBF0F5B2FBF0F605EBD4
:1014D0008305322303EB0515B5FBF1F5B6FBF1F6F9
:1014E00005F0F00505EB0615B2FBF0F6B2FBF0F0E7
:1014F000B0FBF1F06FF01802504306EB800003EBF5
:101500000010B0FBF1F0216800F00F002844886063
:1015100070BD0000003801402DE9F04198461746A3
:101520000E460446069D1DE0681C1BD02DB1FFF73A
:1015300067FAA0EB0800A84214D92068C16821F41A
:10154000D071C1602068416921F001014161202012
:1015500084F8390084F83A00002084F83800032029
:10156000BDE8F0812068006836EA000004D0002061
:10157000B842D9D00020F3E70120F9E7FEE70000E8
:101580000FB4054B10B503A9044A029800F028F8DF
:1015900010BC5DF814FB0000351700081000002097
:1015A0000907090E002804DB00F1E02080F8001490
:1015B000704700F00F0000F1E02080F8141D704724
:1015C00002E008C8121F08C1002AFAD1704770470C
:1015D000002001E001C1121F002AFBD1704700006A
:1015E0002DE9FF4F89B09B460446002506E02528DB
:1015F0000BD05A460B999047641C6D1C207800282C
:10160000F5D10DB02846BDE8F08F0027B84601227D
:10161000474900E0074314F8013F203B02FA03F07A
:101620000842F7D120782E2819D114F8010F47F07D
:1016300004072A280ED06FF02F022078A0F1300185
:1016400009290CD808EB880102EB410100EB0108E5
:10165000641CF2E70A98641C50F8048B0A90207806
:101660000028CED0642808D0692806D075281ED05E
:101670005A460B9990476D1C58E00A994FF00A0999
:1016800001C90A91002802DA40422D2102E0390501
:1016900004D52B218DF82010012103E0F90704D097
:1016A0002021F7E78A4608AE0DE00021FAE70A9903
:1016B0004FF00A0901C90A91F7E74946FEF766FDAE
:1016C000303106F8011D0028F7D1ADEB060000F11E
:1016D0002009780701D44FF00108C84502DDA8EBC6
:1016E000090000E000208046002706E008A85A46CE
:1016F000C05D0B9990476D1C7F1C5745F6DB04E0DD
:1017000030205A460B9990476D1CB8F10001A8F1A2
:101710000108F5DC05E016F8010B5A460B999047D5
:101720006D1CB9F10001A9F10109F4DC641C65E745
:101730000928010013B54FF6FF73012269460248DC
:10174000FFF7C8FD00981CBD440000209AB04FF080
:10175000000864216846FEF70EFD00242546264653
:10176000FFF75CF9FFF73EFE3248816941F0040162
:101770008161806900F004001990FFF705FE2F4891
:101780002D490C2201604FF4E1314160002181605C
:10179000C160C0E904128161C161FFF731FD08B188
:1017A00072B6FEE74FF47A7A4FEA0D09FEF776FD3E
:1017B000A0F2DC5080B2504500D2044629F8154012
:1017C0006D1CEDB2142D0BD3002514216846FEF7D5
:1017D000B1FD074614216846FEF7BBFDF81E87B22F
:1017E0003046BC4201D9012600E00026E0B9DEB156
:1017F00008F1010000F001005FEA000804D0FFF7E3
:10180000FFF81FFA80FB0FE0B8F1000F0CD1FFF7D3
:10181000F7F880B2A0EB0B004EF6602191FBF0F0E0
:1018200081B207A0FFF7ACFE214608A0FFF7A8FE93
:10183000BCE70000001002400038014044000020D6
:1018400042504D3A25640D0A000000004125640D08
:101850000A00000000000000000000000102030474
:101860000607080900000000010203048C180008A4
:101870000000002014000000C0150008A018000897
:101880001400002074040000D015000801000000BE
:1018900010000000000000000024F4000000000020
:0400000508000131BD
:00000001FF
