:020000040800F2
:100000004072002045010008171C0008AD170008C9
:10001000151C0008670200086D1F000800000000A2
:10002000000000000000000000000000B51D0008F6
:100030009F02000800000000191C0008B71D0008FE
:100040005F0100085F0100085F0100085F01000810
:100050005F0100085F0100085F0100085F01000800
:100060005F0100085F0100085F0100085F010008F0
:100070005F0100085F0100085F01000869020008D5
:100080005F0100085F0100085F0100085F010008D0
:100090005F0100085F0100085F0100085F010008C0
:1000A0005F0100085F0100085F0100085F010008B0
:1000B0005F0100085F0100085F0100085F010008A0
:1000C0005F0100085F0100085F0100085F01000890
:1000D0001D1C00085F0100085F0100085F010008A7
:1000E0005F0100085F0100085F0100085F01000870
:1000F0005F0100085F0100085F0100085F01000860
:100100005F0100085F0100085F0100085F0100084F
:100110005F0100085F0100081D1E00085F01000864
:100120005F0100085F0100085F0100085F0100082F
:10013000DFF80CD000F05AF8004800478DBE0008E8
:10014000407200200648804706480047FEE7FEE769
:10015000FEE7FEE7FEE7FEE7FEE7FEE7FEE7FEE777
:10016000191E00083101000840EA01039B0703D073
:1001700009E008C9121F08C0042AFAD203E011F8E6
:10018000013B00F8013B521EF9D27047D2B201E0A8
:1001900000F8012B491EFBD270470022F6E710B58C
:1001A00013460A4604461946FFF7F0FF204610BDE5
:1001B000421C10F8011B0029FBD1801A704710B5B2
:1001C000002200E0521C835C8C5CA34201D1002B16
:1001D000F8D1D8B2E1B2401A10BD034611F8012B94
:1001E00000F8012B002AF9D118467047064C074D3C
:1001F00006E0E06840F0010394E8070098471034F7
:10020000AC42F6D3FFF798FFC0ED0008E0ED000820
:1002100070B58C1810F8015B15F0070301D110F8C8
:10022000013B2A1106D110F8012B03E010F8016BF5
:1002300001F8016B5B1EF9D12B0705D40023521E78
:100240000DD401F8013BFAE710F8013BCB1A921CE0
:1002500003E013F8015B01F8015B521EF9D5A142DE
:10026000D8D3002070BDFEE7014800F0B7B8000009
:10027000A80D002030B590F840500124AC40C56B6B
:100280006C60046863604368102B036803D0996056
:100290000068C26030BD9A600068C16030BD7047C0
:1002A00072B6FEE72DE9F05F90F8211000240229D4
:1002B00003D004218163012485E001680A6822F0EB
:1002C0000E020A6001680A6822F001020A603F4ECD
:1002D0003E4FB215DFF8F4C0DFF8F090DFF8ECA085
:1002E000DFF8E8B0DFF8E4E00168783F13011502B9
:1002F000ACF1640CA9F15009AAF13C0AABF1280B4E
:10030000AEF1140E4FF48018B14227D9B9420ED085
:10031000614512D049451DD0514518D0594518D0D6
:10032000714501D1424615E0294EB14201D1012269
:1003300010E0274E1436B14201D110220AE0244EBB
:100340002836B14206D0224A3C32914201D11A46A7
:1003500000E02A461E49091F0A602BE0B94213D06B
:10036000614517D0494522D051451DD059451DD072
:10037000714501D142461AE0B14202D14FF080727C
:1003800015E0134EB14201D1012210E0104E143697
:10039000B14201D110220AE00D4E2836B14206D0FA
:1003A0000B4A3C32914201D11A4600E02A460749E5
:1003B00080394A60012180F82110002180F8201046
:1003C000416B01B188472046BDE8F09F80000240A4
:1003D0000804024090F82100704700002DE9F05F0A
:1003E000C16B0A6801680B68046C4FF0040808FAD6
:1003F00004F8844D844E854FDFF814C2DFF8149260
:10040000DFF814A2DFF814B2DFF814E218EA020FE2
:1004100065D05FEA437862D50A68920603D40A6819
:1004200022F004020A60DFF8F0814FF48062016874
:1004300008F1140813011402414524D9A9420DD032
:10044000B1420FD0B9421AD0614515D0494515D0F7
:10045000514501D1120312E0594501D104220EE0A9
:10046000714501D140220AE06D4D1435A94206D0F4
:100470006B4A2832914201D11A4600E02246674970
:10048000091F0A6029E0A94213D0B14215D0B94230
:1004900020D061451BD049451BD0514502D14FF4B6
:1004A000800217E0414502D14FF0806212E05945C9
:1004B00001D104220EE0714501D140220AE0584DDD
:1004C0001435A94206D0564A2832914201D11A4623
:1004D00000E022464B4908394A60C16A71E04FF09A
:1004E000020808FA04F818EA020F70D05FEA83786D
:1004F0006DD50A68920606D40A6822F00A020A60DC
:10050000012180F82110DFF810814FF4007201689A
:1005100008F1140813011402414524D9A9420DD051
:10052000B1420FD0B9421AD0614515D0494515D016
:10053000514501D1120312E0594501D102220EE0CA
:10054000714501D120220AE0354D1435A94206D06B
:10055000334A2832914201D11A4600E022462F49FF
:10056000091F0A6029E0A94213D0B14215D0B9424F
:1005700020D061451BD049451BD0514502D14FF4D5
:10058000001217E0414502D14FF0007212E05945C8
:1005900001D102220EE0714501D120220AE0204D56
:1005A0001435A94206D01E4A2832914201D11A467A
:1005B00000E02246134908394A60002180F82010E3
:1005C000816A00291CD0BDE8F05F0847FFE70825D5
:1005D000A540154214D01A0712D50A6822F00E025F
:1005E0000A6090F84020C36B012101FA02F25A60C0
:1005F000816380F82110002180F82010016BE0E772
:10060000BDE8F09F080002401C000240300002409C
:1006100044000240580002406C00024008040240BE
:100620001C04024030B560B11A4B026814219A4292
:1006300009D2194B1344B3FBF1F189000164174946
:100640000AE0012030BD134B5B421344B3FBF1F1D0
:10065000890001640F490839C163022180F8211023
:10066000136843F6F0718B43F0E901142143D0E99C
:1006700002452C4321430469214344692143846991
:100680002143194311600021416301224277017720
:10069000084630BD08040240F8FFFDBF00000240DC
:1006A00070B5044690F82000002501280CD00120E8
:1006B00084F8200094F821600020012E06D084F8F0
:1006C00020000225284670BD022070BD022684F855
:1006D0002160A0632068066826F0010606602046B7
:1006E000FFF7C8FDE06A00282068016802D041F0E9
:1006F0000E0106E021F0040101602068016841F06C
:100700000A0101602068016841F001010160D9E738
:1007100070B5044600F010F90546601C02D004488C
:100720000078044400F008F9401BA042FAD370BDE1
:10073000000000202DE9F84FDFF8C891002409F1EE
:10074000040A0AF1040B23460F270BF1040ED1E033
:100750000125A54006EA0502AA4276D1DFF8A8C124
:100760004E68A6EB0C0866452BD00DDC032E34D06A
:1007700005DC36B3012E19D0022E2FD11BE0112E2D
:1007800016D0122E2AD119E0B8F5881F19D006DC30
:10079000B8F5803F15D0B8F5801F1FD111E0B8F52E
:1007A000001F0ED0B8F5041F18D10AE0CB6815E081
:1007B000CB681B1D12E0CB6808330FE0CB680C330D
:1007C0000CE08B682BB1012B4FF0080303D045617F
:1007D00004E0042302E0056100E00023FF2A01D8C1
:1007E000064601E000F104064FEA840501D9A5F1AF
:1007F0002005D6F8008007FA05FC28EA0C0803FA61
:1008000005F548EA0508C6F800804D68ED0070D58A
:100810003E4DAE6946F00106AE61AD6924F00306B7
:1008200005F0010500953A4D06EB050CDCF8085083
:10083000A607360F07FA06F825EA0805DFF8D48080
:10084000404503D14FF0000825E052E0DFF8C880B2
:10085000404502D14FF001081DE0DFF8C08040455F
:1008600002D14FF0020816E0DFF8B480404502D113
:100870004FF003080FE0DFF8AC80404502D14FF0A5
:10088000040808E0DFF8A080404502D14FF00508D9
:1008900001E04FF0060808FA06F848EA0508CCF827
:1008A00008804D68D9F80060ED034D4601D5164328
:1008B00000E096432E604D68DAF80060AD035546BF
:1008C00001D5164300E096432E604D68DBF80060CA
:1008D000ED025D4601D5164300E096432E604D685B
:1008E000DEF80060AD02754601D5164300E0964380
:1008F0002E60641C0A681646E2407FF429AFBDE80A
:10090000F88F0000000401400000111000100240A8
:100910000000014000080140000C014000100140AF
:100920000014014000180140001C01400AB101619F
:1009300070470904FBE70000014880687047000029
:1009400000000020024881680278114481607047ED
:1009500000000020074810B5016841F01001016057
:10096000032000F057F8002000F006F800F024F80B
:10097000002010BD0020024070B50D4D04464FF41C
:100980007A712878B1FBF0F00A490968B1FBF0F000
:1009900000F00CFD48B9102C07D200222146501E51
:1009A00000F018F800206C6070BD012070BD0000E0
:1009B000000000200C0000207047002809DB00F038
:1009C0001F02012191404009800000F1E020C0F8A1
:1009D00000117047F0B40E4B1B680C46C3F30223A2
:1009E000C3F10705042D00D90425191D072901D2DB
:1009F000002300E0DB1E012606FA05F1491E214016
:100A000099409E40761E16403143F0BC01F0AFBACB
:100A10000CED00E0064900F0070208684FF6FF03FE
:100A2000184040EA0220034A104308607047000063
:100A30000CED00E00000FA052DE9F0470F46050037
:100A400061D0434E306800F00700B84209D23068E8
:100A500020F0070038433060306800F00700B842EB
:100A600051D128683B4C810712D5400703D56068F7
:100A700040F4E06060602878000703D5606840F4C7
:100A8000605060606068A96820F0F0000843606012
:100A90002878C00728D06868012810D0216802286B
:100AA00010D0890700292EDA616821F00301014383
:100AB0006160FFF741FF804641F288390DE021680F
:100AC0008903EFE78901EDE7FFF736FFA0EB0801A7
:100AD000494502D90320BDE8F0876068696800F0E5
:100AE0000C00B0EB810FEFD1306800F00700B84286
:100AF0000BD9306820F0070038433060306800F0D0
:100B00000700B84201D00120E5E72878400705D565
:100B10006068E96820F4E0600843606028780007B6
:100B200006D56068296920F4605040EAC100606021
:100B300000F038F86168084AC1F30311515CC840FD
:100B40000649086006480068FFF716FF0020C2E764
:100B50000020024000100240E8C800080C000020FD
:100B6000040000200448054900684968044AC1F3AC
:100B70000221515CC84070470C0000200010024068
:100B8000F8C800080448054900684968044AC1F3E8
:100B9000C221515CC84070470C0000200010024088
:100BA000F8C8000812A185B00FC98DE80F0014A085
:100BB000144A006804905168134801F00C03042B98
:100BC00010D0082B0ED1C1F38343C9031DF80300D5
:100BD0000AD5516804AAC1F34041515C0A4A504306
:100BE000B0FBF1F005B0704708494843FAE7000050
:100BF00002030405060708090A0B0C0D0E0F10105E
:100C0000010200000010024000127A0000093D00BD
:100C10002DE9F84F040070D02078C04DC00749D0AE
:100C20006868C0F38100012807D06868C0F38100BC
:100C3000022809D16868C00306D52868800339D521
:100C400060680028E7D035E06068B0F5803F0BD0E1
:100C500010B1B0F5A02F11D0286820F480302860A2
:100C6000286820F4802002E0286840F48030286062
:100C7000606890B1FFF760FE06460AE0286840F41D
:100C800080202860F0E700BFFFF756FE801B642835
:100C900073D828688003F7D50CE0FFF74DFE0646B1
:100CA00005E000BFFFF748FE801B6428F0D82868E5
:100CB0008003F7D420789A4E80074FF001094FF057
:100CC000000839D5686810F00C0F07D06868C0F3C9
:100CD0008100022809D16868C00306D4286880070B
:100CE00014D52069012808D110E02069B0B1C6F8F8
:100CF0000090FFF721FE074605E00AE1FFF71CFE22
:100D0000C01B0228C4D828688007F7D52868616905
:100D100020F0F80040EAC10028600DE0C6F800802D
:100D2000FFF70AFE074604E0FFF706FEC01B022895
:100D300023D828688007F7D4207800072CD5794875
:100D4000A169D9B1C0F80090FFF7F6FD074604E0AD
:100D5000FFF7F2FDC01B02280FD8686A8007F7D59D
:100D600071484FF4FA510068B0FBF1F0009000BFF9
:100D70000098411E0091FAD20EE080E0C0F8008099
:100D8000FFF7DAFD074604E0FFF7D6FDC01B022897
:100D900075D8686A8007F7D42078400760D5E8697D
:100DA0000027C00008D4E86940F08050E861E86995
:100DB000012700F0805000905C480168C90513D4F9
:100DC0000168834641F480710160FFF7B5FD8246FA
:100DD00006E000BFFFF7B0FDA0EB0A0064284ED884
:100DE000DBF80000C005F5D5E06801280AD008B19D
:100DF000052813D0286A20F001002862286A20F014
:100E0000040002E0286A40F001002862E06841F234
:100E1000883B98B1FFF790FD82460BE0286A40F0CE
:100E200004002862EEE700BFFFF786FDA0EB0A0191
:100E300059455AD8286A8007F6D50CE0FFF77CFDA3
:100E4000824605E0FFF778FDA0EB0A0159454CD832
:100E5000286A8007F6D41FB1E86920F08050E86165
:100E6000E06988B36968C1F38101022944D002288E
:100E7000C6F8608004D0FFF75FFD044638E034E038
:100E8000FFF75AFD074604E0FFF756FDC01B022896
:100E90002BD828688001F7D4206AB0F5803F05D1AF
:100EA0006868A16820F4003008436860D4E908014C
:100EB0000843696821F4741108436860C6F86090BB
:100EC000FFF73AFD044606E025E000BFFFF734FDDA
:100ED000001B022809D828688001F7D51BE000BF55
:100EE000FFF72AFD001B022802D90320BDE8F88F76
:100EF00028688001F4D40EE00128F7D06868226ADF
:100F000000F48031914204D1616A00F4701088428B
:100F100001D00120EAE70020E8E7000000100240CD
:100F200000004242800442420C0000200070004059
:100F30007047000038B50446006842688168C943BC
:100F40004B0606D5CB0704D1D3435B0601D4216CF5
:100F500005E08B0708D4D3431B0605D4616C01B0B0
:100F60002046BDE8304008478B0601D54B0646D4E5
:100F7000D3439B0643D44B060AD494F85130032B39
:100F80003ED0636D43F004036365C36883680093D8
:100F9000890609D4616D41F00101616581680091A4
:100FA000016821F040010160606D002827D02068B1
:100FB000416821F0E0014160012084F85100900770
:100FC00022D02068416821F003014160104DE06C9F
:100FD00040B14563E06CFFF765F918B1606D40F012
:100FE00040006065A06C002809D04563A06CFFF745
:100FF00059F9002803D0606D40F04000606538BDAD
:10100000C1688068009038BD2046FFF791FF38BD69
:101010003D1C000870B5040009D0606A002540B18D
:1010200025616561A56294F8510040B10CE0012092
:1010300070BD6068B0F5827FF4D0E561F2E784F8B6
:101040005050204600F040F8022084F851002068FB
:10105000016821F040010160A088218900F48270BC
:1010600001F404410843A18901F400610843217C93
:1010700001F002010843217D01F001010843218BA9
:1010800001F400710843217F01F03801084394F80E
:10109000201001F080010843218D01F40051084324
:1010A00021680860A069042101EA104021684860B5
:1010B0002068C16921F40061C1616565012084F87F
:1010C0005100002070BD000070B586B000250646B6
:1010D000009501950295039500681E49884237D115
:1010E0001D49C86940F48040C861C86900F4804067
:1010F0000490886940F0080088618869694600F0BA
:10110000080004904FF4204000900220019003203A
:1011100003901248FFF70EFB124C1148206010207C
:10112000C4E901058020C4E903056561A561204685
:10113000E561FFF777FA08B1FFF7B2F8B46400226F
:10114000114624206662FFF745FC2420FFF735FC9A
:1011500006B070BD0038004000100240000C014095
:1011600058000240A80D00202DE9F84F044690F8E1
:10117000500000271D461646894601280DD04FF025
:10118000010B84F850B0FFF7D7FB804694F851006C
:10119000BA46012804D0022793E00220BDE8F88F68
:1011A000B9F1000F73D0002E71D0032084F85100E4
:1011B000C4F854A0C4F83090A686E686C4F838A0D7
:1011C000A4F83CA0A4F83EA0C4F844A0C4F840A0F1
:1011D000A068B0F5004F09D12068016821F04001F6
:1011E00001602068016841F4804101602068016865
:1011F000490603D4016841F040010160E068B0F5A0
:10120000006F606803D030B3012E24D041E008B1F4
:10121000012E1CD1206B21680088C86006E0206880
:101220008168890709D5216B0988C160206B801C02
:101230002063E08E401EE08609E0FFF77DFBA0EB17
:101240000800A84202D3681C01D031E07DB3E08ED3
:101250000028E4D120E0206B21680078087306E0C4
:1012600020688168890709D5216B09780173206B93
:10127000401C2063E08E401EE0860AE0FFF75CFB26
:10128000A0EB0800A84203D3681C02D010E017E0CE
:101290006DB1E08E0028E3D142462946204600F099
:1012A0001DFD08B120206065A06818B106E0FFE7C9
:1012B000032706E02068C16880680090606D00B177
:1012C000012784F851B084F850A0384666E7000042
:1012D0002DE9F041044690F850000026012809D07D
:1012E000012784F8507094F851000025012804D09B
:1012F00002264EE00220BDE8F08189B182B10320D0
:1013000084F8510065652163A286E286A563656461
:101310002564A587E587A068B0F5004F02D00BE0F3
:10132000012636E02068016821F040010160206854
:10133000016841F480410160A16C1848C862A16C49
:1013400017488862A16C17480863A06C4563E38E58
:101350002268216B0C32A06CFFF7A2F938B1606DE6
:1013600040F010006065012684F8517011E020689B
:101370000168490603D4016841F04001016020681A
:10138000416841F0200141602068416841F002015C
:10139000416084F850503046ADE700006F1C0008F3
:1013A000791C00084D1C00087047704710B5401E9E
:1013B000B0F1807F01D3012010BD4FF0E0246061C7
:1013C0000F21601700F0D3FD0020A06107202061ED
:1013D000002010BD7047704770B590F83C20012A7E
:1013E0002CD0012480F83C40022280F83D20036884
:1013F0005A689D6822F070060A6832435A60104BA2
:1014000002689A420ED00F4B9A420BD0B2F1804F35
:1014100008D00D4B9A4205D00C4B9A4202D00C4B8F
:101420009A4204D1496825F080031943916080F8FD
:101430003D40002180F83C10084670BD022070BD80
:10144000002C01400034014000040040000800402E
:10145000000C004010B5040003D094F83D0010B11A
:1014600007E0012010BD002084F83C00204600F079
:101470001FF8022084F83D00211D206800F0D4FCF4
:10148000012084F8460084F83E0084F83F0084F888
:10149000400084F8410084F8420084F8430084F856
:1014A000440084F8450084F83D00002010BD000091
:1014B00008B500680B49884212D10B48C16941F058
:1014C0001001C161C069002200F0100000901146B7
:1014D0003620FFF77FFABDE808403620FFF76DBAE7
:1014E00008BD0000001000400010024090F83D10C0
:1014F000012901D001207047022180F83D100168C8
:10150000CA6842F00102CA6000680E4988420ED0E3
:101510000D4988420BD0B0F1804F08D00B4988426A
:1015200005D00B49884202D00A49884204D181681B
:1015300001F00701062903D0016841F001010160B3
:1015400000207047002C014000340140000400409E
:1015500000080040000C0040704770B50446006869
:1015600001694FF00005C943890715D4C168C94313
:10157000890711D4E91E0161012020772068806964
:101580008007204602D0FFF7E7FF04E000F098F85C
:10159000204600F096F8257720680169C94349077D
:1015A00017D4C168C943490713D46FF0040101611E
:1015B000022020772068806910F4407F204602D006
:1015C000FFF7CAFF04E000F07BF8204600F079F84E
:1015D000257720680169C943090716D4C168C94342
:1015E000090712D46FF008010161042020772068F8
:1015F000C0698007204602D0FFF7AEFF04E000F08C
:101600005FF8204600F05DF8257720680169C9433E
:10161000C90617D4C168C943C90613D46FF01001B5
:101620000161082020772068C06910F4407F2046BF
:1016300002D0FFF791FF04E000F042F8204600F0EE
:1016400040F8257720680169C943C90708D1C168F6
:10165000C943C90704D1891E0161204600F032F850
:1016600020680169C943090609D4C168C94309064C
:1016700005D46FF0800101612046FFF7ABFE2068C2
:101680000169C943490609D4C168C943490605D45B
:101690006FF040010161204600F01EF820680169EA
:1016A000C94389060BD4C168C943890607D46FF0C2
:1016B000200101612046BDE87040FFF78CBE70BD7F
:1016C000704770470349884202D101200AF0BAB935
:1016D00070470000200D0020704770B5040004D052
:1016E00094F83900002510B106E0012070BD84F89F
:1016F0003850204600F022F8242084F83900206871
:10170000C16821F40051C160204600F0D3FB20687D
:10171000016921F4904101612068416921F02A01A9
:1017200041612068C16841F40051C160E563202037
:1017300084F8390084F83A00002070BD30B585B0D7
:101740000024009401940294039400681449884290
:1017500024D11448816941F480418161816901F497
:1017600080410491816941F00401816180690E4DDD
:1017700000F0040004904FF40070009002200190EB
:101780000320039069462846FEF7D4FF2815CDE9CB
:101790000004694628460294FEF7CCFF05B030BD30
:1017A000003801400010024000080140FEE72DE92A
:1017B000F04107461C4615460E462A2000F0A0F9C7
:1017C000380A00F0ABF9F8B200F0A8F9280A00F0E6
:1017D000A5F9E8B200F0A2F92B2000F091F9300A47
:1017E00000F09CF9F0B200F099F9200A00F096F9A7
:1017F000E0B200F093F9BDE8F0412C2000F080B990
:1018000070B5040AC5B2EF2300211A460846FFF757
:10181000CEFF124900204FF4107200BF01F81040B3
:1018200001EB4003401C80B25D709042F6D3012270
:1018300091030B48FFF77AF800244FF490652A468D
:1018400006490848FFF744FD0748FEF7C3FD022894
:10185000FAD0641CA4B2642CF1D370BDEC0D00204E
:10186000000C0140C80C0020A80D00202DE9F04715
:10187000141A5D1A641C6D1CA4B2ADB204FB05F60B
:101880007600DDF82090FFF792FF012291031348C4
:10189000FFF74CF84A46002114E000200EE000BF9C
:1018A00004FB010302EB430712F813C097F8018011
:1018B00002F81380401C87F801C080B2A042EFD329
:1018C000491C89B2A942E8D3B2B24946BDE8F04703
:1018D0004FF6FF730248FFF747BC0000000C0140C1
:1018E000C80C002010B50D4C002280212046FFF7C7
:1018F0001DF80022A1152046FFF718F8002240210C
:101900002046FFF713F87820FEF702FF2046012259
:10191000BDE810404021FFF709B800000020014059
:1019200010B5FFF7DFFF7820FEF7F2FE112000F080
:10193000E7F87820FEF7ECFE362000F0E1F8002012
:1019400000F0ECF83A2000F0DBF8652000F0E6F853
:10195000B22000F0D5F80C2000F0E0F80C2000F0E8
:10196000DDF8002000F0DAF8332000F0D7F833205B
:1019700000F0D4F8B72000F0C3F8722000F0CEF8E1
:10198000BB2000F0BDF83D2000F0C8F8C02000F0FA
:10199000B7F82C2000F0C2F8C22000F0B1F8012006
:1019A00000F0BCF8C32000F0ABF8192000F0B6F846
:1019B000C42000F0A5F8202000F0B0F8C62000F008
:1019C0009FF80F2000F0AAF8D02000F099F8A4208A
:1019D00000F0A4F8A12000F0A1F8E02000F090F8B9
:1019E000D02000F09BF8042000F098F80D2000F0C3
:1019F00095F8112000F092F8132000F08FF82B20BA
:101A000000F08CF83F2000F089F8542000F086F8B0
:101A10004C2000F083F8182000F080F80D2000F032
:101A20007DF80B2000F07AF81F2000F077F82320D3
:101A300000F074F8E12000F063F8D02000F06EF8B8
:101A4000042000F06BF80C2000F068F8112000F082
:101A500065F8132000F062F82C2000F05FF83F20BA
:101A600000F05CF8442000F059F8512000F056F8DE
:101A70002F2000F053F81F2000F050F81F2000F036
:101A80004DF8202000F04AF8232000F047F82120EC
:101A900000F036F8292000F033F8EF2300211A4631
:101AA0000846FFF784FE4FF6FF70FFF7A9FE0122FC
:101AB000BDE8104011020148FEF738BF0020014088
:101AC0002DE9F0414FF6FF75B1FBF5F70E46804664
:101AD000002411E008D1B6FBF5F005FB1061C4EB62
:101AE000044202EB080004E0C4EB044101EB0800EF
:101AF000294600F099F8641CBC42EBD9BDE8F0819E
:101B000001B500224FF480410348FEF70FFF012189
:101B10006846FFF7D5FF08BD000C014001B5012262
:101B200091030448FEF702FF01216846FFF7C8FF52
:101B300008BD0000000C01402DE9F04385B00024F1
:101B400021480094019402940394816941F00801B2
:101B50008161816901F008010491816941F480711A
:101B60008161816901F480710491816941F004010E
:101B700081618069012200F00400DFF85080950344
:101B8000049029464046FEF7D1FEDFF844904FF41A
:101B9000E077012239464846FEF7C8FE0095032645
:101BA00001250396CDE9015469464046FEF7C2FD82
:101BB00000970396CDE9015469464846FEF7BAFD01
:101BC00005B0BDE8F083000000100240000C0140A9
:101BD000002001400E4810B50C4901604FF482719D
:101BE000416000218160C1604FF400720161C0E971
:101BF0000512C1610162416281620A21C162FFF77F
:101C000009FA002801D072B6FEE710BD0038004086
:101C1000C80C0020FEE7FEE7704700000148FFF710
:101C200089B90000C80C00200A4601464FF6FF7330
:101C30000148FFF799BA0000C80C002010B5406AAF
:101C40000021C187C186FFF773F910BD10B5406A46
:101C500001684A6822F003024A60416D41F01001B8
:101C60004165012180F85110FFF762F910BD10B5F0
:101C7000406AFFF79AFB10BD38B50546446AFEF787
:101C80005BFE024628680068800623D4206841680D
:101C900021F0200141602068416821F0020141608B
:101CA0006421204600F01AF818B1606D40F0200061
:101CB0006065A068002118B92068C268806800903B
:101CC000E186012084F85100606D18B12046FFF7CD
:101CD0002FF938BD2046FFF767FB38BD38B50B46F6
:101CE000009204460022802100F008F8002804D069
:101CF000606D40F020006065032038BD2DE9F84399
:101D00001E46914688460446089DFEF715FE401B78
:101D1000351AFEF711FE074625480068C0F3CB30A0
:101D2000684338E0701C37D0FEF706FEC01BA8429F
:101D300003D215B1009860B32CE02068416821F00F
:101D4000E00141606068B0F5827F0BD1A068B0F51A
:101D5000004F02D0B0F5806F04D12068016821F0F7
:101D600040010160A06AB0F5005F09D120680168F8
:101D700021F4005101602068016841F400510160C4
:101D8000012084F85100002084F850000320BDE8B1
:101D9000F8830025401E00902068816838EA010021
:101DA00004D000214945BDD10020F0E70121F9E729
:101DB0000C0000207047FEF7C5BD30B58FB028215C
:101DC0006846FEF7EAF914210AA8FEF7E6F90121B0
:101DD0000804CDE900100024029402250491CDE905
:101DE00007504FF4E01009906846FEF711FF08B164
:101DF00072B6FEE70F20CDE90A054FF48060CDE909
:101E00000C4002210AA80E94FEF716FE002801D00D
:101E100072B6FEE70FB030BD704700000148FFF713
:101E20009CBB0000200D0020F0B502681C4B1D4D2E
:101E30001D4E1E4F1E4C4FF0804C984209D0A042C0
:101E400007D0604505D0A84203D0B04201D0B842C7
:101E500004D122F0700E4A6842EA0E02984209D07C
:101E6000A04207D0604505D0A84203D0B04201D0BF
:101E7000B84203D122F44075CA682A434D6922F062
:101E800080022A4302608A68C2620A6882629842BB
:101E900001D0A04201D10969016301214161F0BD76
:101EA000002C01400004004000080040000C0040ED
:101EB0000034014070B5044600680169E26821F40D
:101EC0004051114301612169A068084361690843D9
:101ED0002168CA6841F20C639A430243CA602068D1
:101EE0004169A26921F44071114341611E49206892
:101EF000884202D1FEF746FE01E0FEF733FE00EB1A
:101F0000C00101EB0012606864218000B2FBF0F3B5
:101F1000B3FBF1F36FF018067343B2FBF0F5B2FBBD
:101F2000F0F605EB8305322303EB0515B5FBF1F560
:101F3000B6FBF1F605F0F00505EB0615B2FBF0F681
:101F4000B2FBF0F0B0FBF1F06FF01802504306EB7B
:101F5000800003EB0010B0FBF1F0216800F00F00EF
:101F60002844886070BD000000380140FEE7090782
:101F7000090E002804DB00F1E02080F8001470470F
:101F800000F00F0000F1E02080F8141D704702E01F
:101F900008C8121F08C1002AFAD1704770470020F4
:101FA00001E001C1121F002AFBD170472DE9F04169
:101FB00000250E4607462C460AE000BF56F82400CE
:101FC00019A1FEF7FCF808B16D1CADB2641CA4B2F7
:101FD00056F82400FEF7ECF80028EFD1384606F05A
:101FE00087FF04464068002610B106F0D1FB66600A
:101FF000A06810B106F0CCFBA660E80006F09AFBE2
:10200000606038B1680006F095FBA06018B16168A7
:1020100011B102E0FEE7FEE700256900FEF7BDF81A
:102020002584BDE8F08100000A00000030B50446B8
:1020300090F82000194D89B0810717D4C10701D04D
:10204000410713D5242221466846FEF78DF8214624
:10205000134806F033FB204606F09AFB0120287057
:102060000398B8B101466846884713E0E18B4942BE
:102070006183C1070ED0410702D4A18B494261831D
:102080008110491C61F3820084F82000D4E9041017
:10209000C4E90401287809B030BD00002C0C0020F0
:1020A0009C15002070B5234806F03AFA06E0086A4D
:1020B00020F0080008621F4806F037FA0100F6D148
:1020C0001D4D686809F0AEFC064624E0002028702B
:1020D000206A010723D440F008002062608B30445E
:1020E00000B2608300281ADB218B884200DD618307
:1020F000A1682046884762681AB1236801B2184671
:102100009047B4F91A00218B884202DB2046FFF782
:102110008DFF287818B1074806F002FA03E021463F
:10212000044806F002FA0400D0D109F081FC68608E
:1021300070BD00009C1500202C0C002002280ED041
:1021400003280FD0042811D0C1EBC101401EB1FB00
:10215000F0F00849C0B2085C5043000A70470548D7
:10216000093801E00348C01F405CF5E70148001F43
:10217000FAE7000043C9000838B5054600924C88CC
:10218000CB888A8808882146FFF770FB2846BDE87F
:10219000384002F0BDB970B50C46054606F0A8FE01
:1021A00004842846BDE8704006F026BF10B50446FA
:1021B000006806F09DFE10F8281F21F01E01017036
:1021C0002068BDE8104006F017BF00000749096805
:1021D00050B1021D006801F5804102EB5000021D64
:1021E0008A4200D30020704708467047400C002008
:1021F00010B58A0702D021F00301091D02680B1DEA
:10220000B3EB520F00D15108B1EB520F0CD0021DAD
:102210000A44136823F0010313600468C1EB5404FB
:10222000241F64F35F031360026861F35F020260BE
:1022300010BD0000024604480068824203D10E2906
:1022400001D109F0B0B87047C40C0020F8B502F015
:1022500073F902F099F906466B496C4808F07EFB69
:102260006B4C6A4D6B4920680090BDF80000688097
:10227000A88060680090BDF8000068810220A881F5
:10228000A0680090BDF80000288405F13C0008F02B
:1022900065FBE0680090BDF80000E887A5F8400005
:1022A00005F13C010320C8835B4905F1780008F083
:1022B00055FB584905F1B40008F050FB206905F1C1
:1022C00080070090BDF8000027F8360F05F1B40133
:1022D000788060690090BDF8000038810120888115
:1022E000A0690090BDF80000F88301F13C0008F0FF
:1022F00035FBE0690090BDF80000B887F88705F16C
:10230000B40101F1780008F029FB05F580706988B7
:10231000C185018600F12C01683008F01FFB002107
:10232000304608F0C5FE3D4C2060304606F0E4FD26
:102330000546304606F040FE01462A46206806F073
:10234000C1FF00200346024601460090206806F0C7
:102350008DFA3349206806F019FF0021206809F042
:1023600027F82A4A0021206809F030F8274A01217D
:102370003C32206809F02AF8244A02217832206889
:1023800009F024F8214A0321B432206809F01EF82C
:102390001E4A0421F032206809F018F8214A05216C
:1023A000206809F013F81F4A06213C32206809F022
:1023B0000DF81DA1206808F065FD0546002105F017
:1023C00079FA1C4905F0C5FF0021284600F0C8FB3A
:1023D0004FF49672322106F034FF17A1206808F0FE
:1023E00051FD002105F066FA16A105F0B2FF20A10B
:1023F000206808F047FD002105F05CFABDE8F840D0
:102400001EA105F0A6BF00005C1300209C68002000
:102410000CED00089813002020130020C40C0020AD
:1024200035220008C8690020EF87AB205461623173
:102430000000000058ED0008EF80812054616232F6
:10244000000000000A54686973206973207468658D
:10245000207461623220706167650A5A68656E6730
:10246000206469616E207975616E207A69000000D0
:10247000EF83B32054616233000000000A5468699E
:102480007320697320746865207461623320706101
:1024900067650A58696F6E67206A696120797500FF
:1024A0002DE9F047054690F8580091468A46C00746
:1024B00059D100260127EC68B8467CB995F8580038
:1024C000C0F30010401E30424DD1B8F1000F4AD089
:1024D00028465146884700270446B8460EB92600CC
:1024E00041D037B1214628464A4690470446B0427B
:1024F00039D00127002CE1D0206806F011FD00281A
:10250000DBD1E868A0422ED080B100680022102103
:10251000C3699847E86800220D21006804F0F8FCC0
:10252000012820D1E868006806F066FDEC602068AC
:1025300000220F21C3699847E86800220C21006837
:1025400004F0E6FC01280ED1E868006809F060FD9F
:10255000E868006806F050FDA969002903D0284604
:10256000BDE8F0470847BDE8F08770B588B00E4673
:10257000044606F0BDFC054602A9204606F08FFC85
:10258000002425E0686800EBC40001680091406801
:102590000190BDF80010BDF808000144ADF800102E
:1025A000BDF80220BDF80A100A44ADF80220BDF8BB
:1025B00004201044ADF80400BDF806000844ADF84E
:1025C00006003146684600F066FA20B9641CA4B2E1
:1025D000288CA042D6D8288CA04201D14FF6FF7497
:1025E00008B0204670BD10F0070000D101207047F0
:1025F0002DE9FC470F0006D0C4686069B84204D1D9
:10260000A069BDE8FC870020FBE7002104230EE061
:10261000A26801EB810052F8202003EB8000BA1A77
:102620000192A568285A90420AD2491C89B2608A50
:10263000C0F309008842EBD80020C4E90570E2E746
:10264000284601EB8105122101EB85010026425C41
:102650004FF00609910711D002F003084FF00C0A61
:10266000B8F1010F0FD0274B08214FF0100CB8F133
:10267000020F12D0D243920725D03EE009EB85012C
:10268000405A019907E00AEB850109EB85024158A0
:10269000805A019A895C46182FE0009301EB850867
:1026A0000CEB8502825A50F80810022301A809F0A9
:1026B000C7FB10B3A16851F80820801A09EB850206
:1026C0004008895A18E0009301EB85080CEB85025D
:1026D000825A50F80810022301A809F0B1FB60B13A
:1026E000A16809EB850351F80820801A42080AEB1B
:1026F00085000858C95A805C0E18C4E90576304632
:102700007FE70000E1C800087CB5C368C068002509
:102710005B8AC4689B042CD4A36801EB022013F0ED
:10272000407F04D0C3F30161012910D02DE0266859
:10273000ADF80400164823F07F4200900223314692
:1027400001A809F07DFB00B3801B40080EE026685D
:10275000019010480090A068042320F07F42314689
:1027600001A809F06DFB80B1801B000961680D565E
:102770000BE06368585C995C38B131B1637B2268C7
:10278000401E00FB0320491E455628467CBD000024
:1027900059280008452800080021A0F13002092A24
:1027A00001D8D1B216E0612801D32038C0B2413837
:1027B00006280FD2DFE800F0030507090B0D0A21F8
:1027C00008E00B2106E00C2104E00D2102E00E21BF
:1027D00000E00F210846704730B50546A1F57F405F
:1027E00087B00C46FF382BD0284606F081FB4068A6
:1027F00000EBC400016800914068019002A92846DE
:1028000006F04DFBBDF80010BDF808000144ADF81E
:102810000010BDF80220BDF80A100A44ADF80220ED
:10282000BDF804201044ADF80400BDF806000844CB
:10283000ADF80600284606F039FB694604F0E0FFD3
:1028400007B030BD03880A88934201D0981A7047B8
:1028500040884988401A704703780A78934201D02B
:10286000981A704740784978401A704710B524216B
:10287000074805F06EFE09F0DBF806490023032245
:102880004860BDE810401E21034808F09BBF0000CF
:102890009C1500202C0C0020A520000870B5416874
:1028A000044611B1206800F01FF80D4805F05BFEEA
:1028B000050014D094F82000242220F0040084F8AD
:1028C000200021462846FDF74FFC6A681AB1288A85
:1028D00001B22868904703490120087070BDFEE7E7
:1028E0009C1500202C0C00202DE9F04781468A46DB
:1028F0000026134805F014FE04460127DFF8448043
:1029000018E021460E4805F010FE216805464945AD
:102910000FD16168514502D0BAF1000F09D12146AB
:10292000074805F0CBFE204605F032FF88F800701E
:1029300001262C46002CE4D13046BDE8F08700008B
:102940009C1500202C0C0020028BB0F91A108A4232
:1029500002D14FF4806102E0890291FBF2F1D0E9EB
:102960000423981A484302EBA02000B270478B1A48
:10297000002B00DC531A4FF47A714B4393FBF0F0B9
:10298000B0F5803F02D34FF6FF7001E000B901209F
:1029900080B27047C1884088081A401C00B2704756
:1029A000B0F90410B0F90020891AB0F90620B0F986
:1029B0000200101A401C491C484370478188008857
:1029C000081A401C00B2704781880088081A401C11
:1029D00000B2704770B5B1F90030B2F90040A342BF
:1029E00000DC23460380B1F90250B2F90240A5424F
:1029F00000DD2C464480B1F90460B2F90450AE42C7
:102A000000DA35468580B1F90610B2F90620914208
:102A100000DB1146C1800120AB4201DC8C4200DDAD
:102A2000002070BD10B5B0F90030B1F900400022AF
:102A3000A34212DBB0F90230B1F90240A3420CDB31
:102A4000B0F90430B1F90440A34206DCB0F9060045
:102A5000B1F90610884200DC0122104610BDB0F921
:102A60000020B1F904309A4213DCB0F90420B1F926
:102A700000309A420DDBB0F90220B1F906309A42DB
:102A800007DCB0F90600B1F90210884201DB012031
:102A900070470020704710B5B1F90030B0F9004020
:102AA0000022A3420EDBB0F90440A3420ADCB1F9D4
:102AB0000210B0F90230994204DBB0F906008142FD
:102AC00000DC0122104610BD10B5B1F90040B2F98A
:102AD00000309C4200DA23460380B1F90240B2F98B
:102AE00002309C4200DA23464380B1F90440B2F937
:102AF00004309C4200DD23468380B1F90610B2F910
:102B00000620914200DC1146C18010BD10B5029C28
:102B1000018042808380C48010BD4288491E1144D8
:102B2000C180704730B5034680881C885D88001BD3
:102B3000DC88401C198000B2641B641C014624B26E
:102B40005A80184600F006F82146BDE83040184685
:102B5000FFF7E3BF0288491E1144818070470000DF
:102B60002DE9F0410D46074600F03AFF060003D07C
:102B7000384C206808B104E0FEE7304606F0ECF976
:102B80002060606818B9304606F08EF960601C213C
:102B9000304605F0FDFF04002ED0207E2E496160F6
:102BA0002E49A1602E49E1602E4921612E496161C3
:102BB00020F00F0020762D49304606F081FB2C498D
:102BC000304606F0CEFAC5B1284606F091F9027EED
:102BD000217E62F302012176027ED20862F3C301F4
:102BE0002176011D1422201DFDF7BEFA304606F0A5
:102BF000A4FA3046BDE8F081FEE71FB1304601215E
:102C000001F0A6FB0121304606F0A5FA08F004FF0A
:102C1000050019D0002130462A6900F058F801213A
:102C200030466A6900F053F802213046AA6900F084
:102C30004EF803213046EA6900F049F80421304695
:102C40002A6A00F044F8D4E73046616806F07AFB5F
:102C5000CFE70000740C00204C14002088140020E2
:102C6000C4140020001500203C150020112D000880
:102C7000752C000810B5022A05D0054B5B6822B1FF
:102C8000012A02D002E0002010BD9847012010BDAB
:102C9000740C002010B506F02BF9007EC0F3C000C4
:102CA00010BD70B50C46054606F022F9017E01F014
:102CB0000702A2420AD064F30201017600EB84000D
:102CC00041682846BDE8704006F03CBB70BD70B559
:102CD00014460D46064606F00BF9052D0DD2DFE829
:102CE00005F0030507090B00446006E0846004E07A
:102CF000C46002E0046100E04461017E01F007016C
:102D000000EB810041683046BDE8704006F01ABB18
:102D10002DE9F84F564B91460D461B688346984760
:102D20000446012879D1584606F0E2F8074658468D
:102D3000FFF7B0FF0646072D10D0092D2AD0082D29
:102D40001FD04FF001084FF0000A0A2D1ED0112DA0
:102D500058D0002D01D0062D7AD085E0387E41076D
:102D600004D000F00700022802D07DE0012104E039
:102D7000032102E0002100E002215846FFF791FF05
:102D800072E0484604F0E2FC20B96DE0484604F0E9
:102D9000DDFC38B1387E00F007000128EAD00328B6
:102DA000EAD061E0CDF800A0387E554600F007007B
:102DB000012800D116B1032806D006E000215846AC
:102DC000FFF76FFF00954FE016B1012807D00EE026
:102DD00002215846FFF765FFCDF8008044E036B188
:102DE00002215846FFF75DFFCDF8008026E003285A
:102DF00001D01EBB38E04EB300215846FFF751FF0B
:102E000000951BE099F80000132807D0112805D081
:102E1000142809D0122807D026E026E05846FFF7EC
:102E200039FF0028DCD11FE05846FFF733FF68B1B7
:102E300000215846FFF735FFCDF800A06A460E2165
:102E4000584604F065F8044601280ED10CE0FFE76F
:102E50004946002051F820201AB1401CC0B2072872
:102E6000F8D304A249F820202046BDE8F88F0000DE
:102E7000740C00206C765F62746E000070B51546AD
:102E80000C46064606F034F8018CA1420BD9806846
:102E900030F81410A94320F8141021463046BDE83C
:102EA0007040FFF799BC70BD2DE9F0410E46074612
:102EB00006F01EF80546002406E032462146384654
:102EC000FFF7DCFF641CA4B2288CA042F5D8BDE853
:102ED000F08100002DE9F0410F4605F065FE060087
:102EE00003D0404D686808B104E0FEE7304606F0C4
:102EF00033F868602821304605F04AFE04001BD0F4
:102F0000002020844FF6FF716184A1846060A0607E
:102F1000206094F8260020F0030084F82600324850
:102F2000E06032482061324860613248A061324836
:102F3000E061286808B104E0FEE7304605F0B4FF20
:102F400028602E49304606F0BBF92D49304606F080
:102F500008F99FB1384605F0CBFF00F10C011422AF
:102F600004F10C00FDF700F9384600F097F901462E
:102F7000304600F0CBF93046BDE8F0817822B4212C
:102F8000304606F09FF917493046083100F0BEF987
:102F900008F042FD04001FD054F8C42F0021304631
:102FA00000F0BCFA01213046626800F0B7FA022155
:102FB0003046A26800F0B2FA03213046E26800F021
:102FC000ADFA04213046226900F0A8FA0521304606
:102FD000626900F0A3FACEE70A49304606F0B2F97A
:102FE000C9E700007C0C00204C140020881400204D
:102FF000C4140020001500203C1500206135000895
:1030000009300008D41300202DE9F04F814696487E
:10301000A3B08B460368022A01D02AB11FE123B076
:103020004846BDE8F04F184748469847484605F0DF
:103030005FFF0546484605F091FF0C90484605F0B5
:1030400075FF0B901EA9484605F029FF002695F84C
:10305000260034463746C00700D001274FF0040A47
:10306000F9E0641CA4B2286880A150F82400FDF7A0
:10307000A6F80028F5D0A86810F81600C0F3C00024
:1030800000287DD16868BDF87A3000EBC600016881
:10309000069140680790BDF81810BDF87800BDF89B
:1030A0001CC00A186044ADF81C00ADF81820BDF82B
:1030B0001A10BDF81EC01944801A401C634400B2A7
:1030C0002290581A401C00B2ADF81A10ADF81E300C
:1030D0002190A86810F81610C1F3C010C1F3401178
:1030E00009B1052114E0698CB14200D038B1B14278
:1030F00000D130B1B14206D028B1032108E001214E
:1031000006E0022104E0B142F9D10028F7D0042101
:10311000484600F0C8F8804601460EA807F01EFC9D
:103120009DF84600C10640D50C99B9F91220B1F9B5
:1031300016101144BDF91A20914203D120F002006B
:103140008DF846000C98B9F91610B0F91800081A55
:10315000BDF91E10884205D19DF8460020F00100FF
:103160008DF846004CB16FF00301286801EB840133
:1031700040583EA1FDF723F838B99DF8460000E01D
:1031800065E020F004008DF8460029680AEB840011
:103190000858017819B135A1FDF711F828B99DF843
:1031A000460020F008008DF846000EAA594606A8F1
:1031B0000B9B01F009FF98F80000C00701D0DDF873
:1031C0003080BDF87C00BDF87810D8F82420401A73
:1031D000401CB8F92A1000B2CDE900100297286807
:1031E000B8F9283050F8241020A808F0B1FCBDF937
:1031F00080102298BDF81820401A00EBD07002EB26
:103200006002BDF98230ADF818202198BDF81AC0CF
:10321000C01A00EBD07011440CEB6000ADF81A003E
:10322000ADF81C101844ADF81E0000214FF6FF70D9
:10323000CDE90210CDE9040128684246594650F80C
:103240002400CDE9000706A80B9B01F0F7FA761CD5
:10325000641CB6B2A4B2288CB0423FF604AF23B0CF
:103260000120BDE8F08F00007C0C00200A00000067
:1032700010B505F03DFE808C10BD70B515460C46AE
:1032800005F036FE018CA14201D8002070BD806897
:1032900030F814002840F9D0012070BD10B505F0B9
:1032A00027FE006810BD70B50D460646002405F0E7
:1032B0001FFE062D12D2DFE805F003080A0C0E10DF
:1032C000304605F04BFE044608E0C46806E0046999
:1032D00004E0446902E0846900E0C469204670BDEE
:1032E00070B515460C46064605F002FE018CA1425B
:1032F0000BD9806830F81410294320F814102146A7
:103300003046BDE87040FFF767BA70BD2DE9F34F56
:1033100087B00C007DD0079805F0EAFD066880466E
:10332000A6421AD0AEB1002505E000BFFCF747FF6A
:1033300078B96D1CADB256F82500017829B154F862
:1033400025100A78002AF1D103E054F8250000780E
:1033500018B121460798FEF729FEC8F80040002161
:103360000798FFF7A0FF0546079805F025FE698B33
:10337000401AA98B401A00B20690079805F0BCFDD0
:10338000B5F916102A8B401A801A00B201270026C0
:10339000019103900AE000BF54F826005EA1FCF7FB
:1033A0000EFF08B97F1CFFB2761CF6B254F8260057
:1033B000FCF7FEFE0028EFD1B5F91E200398C7F1F7
:1033C000010101FB020000B290FBF7F0401E00B2C9
:1033D00000262746CDF808004FF0000A54460BE0BF
:1033E000D8F80800311930F81100FFF7FCF8504404
:1033F000641C1FFA80FAA4B247A157F82400FCF716
:10340000DEFE28B157F82400FCF7D2FE0028E7D1F1
:1034100000E07EE057F82400007838B9019903985D
:103420002A8B401A401E104400B20290ECB3B5F94A
:103430001E200698C4F1010101FB020000B20590B4
:10344000DDE901104FF0000B0844D946049048E034
:10345000D8F8080030F81600FFF7C5F80599B5F957
:103460001E30484390FBFAF0401E02B20BFB01F005
:1034700090FBFAFCB5F91A0009FB0301614409B29B
:10348000A3B9884212D004986FF0030300B20090F1
:10349000D8F8040003EBC603114430F903C00BB2A3
:1034A00000EBC6006146019A0AE01CE004980A4459
:1034B00000B20090D8F8040013B200EBC600019AE5
:1034C000FFF724FBD8F8080030F81600FFF78BF858
:1034D00058441FFA80FB761C09F10100B6B21FFAAE
:1034E00080F9A145B4D3EA8BDDE901010844104419
:1034F00000B2019057F82400FCF75AFE18B107EB10
:1035000084073F1D68E7079809B0BDE8F04F05F054
:1035100073BD09B0BDE8F08F0A00000070B5144615
:103520000D46064605F0E4FC062D18D2DFE805F04E
:1035300003090B0D0F1121463046BDE8704005F020
:1035400001BFC46006E0046104E0446102E08461FC
:1035500000E0C4613046BDE8704005F04DBD70BD6F
:103560002DE9F04FD74B89B091465B680F468346F3
:103570009847064601287DD1584605F0B9FC044617
:10358000E7B1042F21D0022F1FD04FF6FF75072F70
:1035900020D0082F46D00A2F70D00C2F6CD0092FC6
:1035A0006BD0102FFCD04FF000080F2F75D0112FCB
:1035B00074D0122F73D0062F72D07FE1606805F0AF
:1035C000E7F8A06805F0E4F878E101685846FFF7ED
:1035D0009DFE73E104F086F8074604F0A1F8012887
:1035E00004D0384604F09CF8032812D106A94846B6
:1035F00004F088F806A95846FEF7B7FF0746618C25
:103600005846FFF7E9F86784A78439465846FFF71C
:10361000E3F8A18CA942D0D0A06830F81100C0F323
:10362000002277E006A9484604F06CF806A958463F
:10363000FEF79BFF618C0746B94218D0484604F05C
:10364000A6F8618CA94202D05846FFF7C5F8AF42F0
:103650000DD0A08C029002AA0E21584603F058FC0F
:103660000646012803D139465846FFF7B5F8678466
:10367000A78423E123E101E044E04EE0618CA9420C
:103680009BD0A26832F81100C0F38013ABB1C0F335
:10369000C01333B120F0800005E041E05CE0FCE0C5
:1036A000FFE040F0800022F8110094F82600800727
:1036B00003D5618C584608F071FC618C5846FFF7C1
:1036C0008BF8584605F016FC03F003FD584500D072
:1036D0006584A18CA06830F81100C0F30022002A94
:1036E000C7D000BFC0F34012002A0AD1C0F3C00007
:1036F000002806D100916A460E21584603F008FCC6
:103700000646DBE0A18CA94206D0806830F81100A3
:10371000C0F30012002AE5D0D0E06584858445E03E
:1037200003F0E0FF074603F0FBFF012802D0042866
:1037300009D048E002A9384603F0E4FF02A9584640
:10374000FEF713FF24E0584605F0D4FB03F0BAFC63
:1037500080BB6584608C28E099F80000132809D0AC
:10376000142817D004274FF00209122823D011285B
:103770005BD0A3E0608CA84203D14046A4F822802D
:1037800001E0401C608481B2208C401E8142E1DB5C
:103790006084DFE7608CA84203D14046A4F8228011
:1037A00002E008B1401E608480B2A084584605F053
:1037B00023FC83E007E000215846FFF774FD628C8C
:1037C0008246AA4202D1A4F82280C3E7616807EBCF
:1037D000C200258C0B5A31F832001B1A5B1C43F3D4
:1037E0004E0318440FFA80FC4B461046B94617E0CA
:1037F00003EBC00703EBC208CF5F31F908804745F0
:103800000CDD31F93070674508DC09EBC00731F990
:103810000780BAF91A704744674503DA401C80B242
:103820008542E5D88542B3D894E700215846FFF792
:103830003AFD628C8446AA42C5D0616807EBC2009B
:103840000B5A31F832001B1A5B1C43F34E03184429
:1038500005B24B46B4F92200B94617E003EBC007A6
:1038600003EBC208CF5F31F9088047450CDA31F924
:103870003070BCF91A80A7EB0807AF4204DC09EBF3
:10388000C007CF5FAF4204DA401E00B20028E5DA7D
:1038900060E70028BFF656AF5CE7012189F8001009
:1038A0000CE049465FF0000051F820201AB1401C9E
:1038B000C0B20728F8D304A249F82020304609B046
:1038C000BDE8F08F7C0C00206C765F62746E6D003A
:1038D000B0F90210B0F90000814201DC012070470C
:1038E00000207047028000234380C2F1010008805D
:1038F000704710B542880124521C13B24380B1F9BD
:103900000020002A03DC04EB4300104407E0028897
:10391000521E0280981A0A8804EB40001044088066
:1039200010BD08B5D308BDF80020890863F3040270
:1039300061F34A12C00860F3CF22ADF8002090B2C4
:1039400008BD78B58BB284B2DD0AC2F1FF014D43E8
:10395000E00A00FB0250050ABDF80000C4F345165A
:1039600065F3CF20C3F345154D4303F01F0306FB5A
:1039700002554B4304F01F012D0A01FB023165F390
:103980004A10090A61F30400ADF8000080B278BD66
:1039900078B58BB284B2DD0AC2F1FF014D43E00A73
:1039A00000FB0250050ABDF80000C4F3451665F39C
:1039B000CF20C3F345154D4303F01F0306FB02550B
:1039C0004B4304F01F012D0A01FB023165F34A103D
:1039D000090A61F30400ADF8000080B278BD000070
:1039E0002DE9F0410E46074605F0DEF8050003D04C
:1039F000274C206808B104E0FEE7284605F0ACFA41
:103A000020600221284605F0C3F8284605F070FA28
:103A100004002DD06178207821F00F01617020F032
:103A2000FF0020701B49284605F04AFC16B33046BB
:103A300005F05EFA014600780209207862F305106D
:103A400020700A78920962F3871020704B786278B0
:103A500063F3010262704B789B0863F38302627028
:103A6000097861F303002070284605F066FB2846BC
:103A7000BDE8F081002FFAD007F0CEFF10B1C16889
:103A8000284601E02846044905F05CFCEFE7000009
:103A9000A00C00207D430008D413002010B505F0D1
:103AA00027FA0078C0F3011010BD10B505F020FA18
:103AB000407800F0030010BD10B505F019FA007849
:103AC00000F00F0010BD2DE9F843044605F046FA5A
:103AD000804600263746201D04F022FD14E005F044
:103AE0001FFA68B90421284605F0E4FA40B92846CF
:103AF00005F002FAC119B8F81E00761C084407B296
:103B00002946201D04F011FD0500E8D1002E3BD010
:103B1000B8F81E000121381A05B2204605F0CBFB8B
:103B200005EBD5704010404206B2201D04F00CFD9C
:103B300022E005F0F5F9D8B90421284605F0BAFAD3
:103B4000B0B9284605F0D8F900EBD07006EB60005C
:103B500000B2002300901A462146284604F086FE53
:103B6000284605F0C9F98119B8F81E00084406B2C4
:103B70002946201D04F0E1FC0500DAD12046BDE80D
:103B8000F843012105F00BB8BDE8F8832DE9F843AF
:103B90008046FFF791FF0546404605F0DFF90446F1
:103BA000022D10D0032D11D0042D12D00026012596
:103BB0000121404605F07FFBB4F9169008F104009E
:103BC00004F0C2FC27E0B4F91A60F0E700260225F1
:103BD000EEE7A08B404206B20325E9E705F0A0F925
:103BE000A0B90421384605F065FA78B933462A466B
:103BF00041463846CDF8009004F038FE384605F0CE
:103C00007BF9E18B484408440FFA80F9394608F102
:103C1000040004F092FC0700E0D14046BDE8F84300
:103C2000012104F0BCBF00002DE9F84F804605F0EB
:103C300095F90446404605F0BFF907460021404685
:103C400005F01FF905F0B8F905460021404605F0DA
:103C500018F905F051F90146B4F91A00B4F91C201D
:103C6000381A821AB4F91E00431992FBF3F39EB27C
:103C7000012E06D92A4406FB1523721E93FBF2F28D
:103C800006E007EBD772521005EBD573A2EB630287
:103C9000084400B2009017B20121404605F00BFB2A
:103CA000B4F91AA0B4F916B04FF0000908F10400F5
:103CB00004F04AFC2CE000BF05F032F918BB0421E7
:103CC000284605F0F7F9F0B9012E5A4608D95146B1
:103CD000284605F0B6FA0AEB07000FFA80FA03E06F
:103CE0003946284605F0ADFA09F101001FFA80F9BE
:103CF000B14508D30099B4F91AA00BEB01004FF0BD
:103D000000090FFA80FB294608F1040004F015FCB5
:103D10000500D1D14046BDE8F84F012104F03FBF76
:103D20002DE9FC5F804605F019F90746404605F08D
:103D300043F90190B7F916A008F1040004F004FC5F
:103D400004006FD00121404605F0B5FA4FEA0405A2
:103D5000798BB88B4FF0000908440FFA80FB4E4670
:103D6000284605F0DDF878BB0421284605F0A2F9C5
:103D700050BB284605F020F900EB0B010198814269
:103D800008DD5DB3F6B3294608F1040004F0CDFB6D
:103D9000054624E0284605F00FF9F98B58440844FD
:103DA0000FFA80FB284605F0A7F84946484501DA96
:103DB000084602E0284605F09FF88146082128467B
:103DC000761C05F077F948B9294608F1040004F09B
:103DD000B4FB054606B90446002DC1D19EB1012EA3
:103DE00021D0022E26D0B7F91E1001FB16B0019982
:103DF00000B2081A761EB0FBF6F00FFA80FBB7F996
:103E00001A6079E001E0002D7ED0002302224146B5
:103E10002846CDF800A004F029FD284605F06CF8EE
:103E200081466CE082E00023022241462046CDF824
:103E300000A036E02646314608F1040004F07DFB80
:103E40008346304605F0B8F80446584605F0B4F805
:103E50002044019900B2081A032190FBF1F004B24A
:103E6000304605F049F8A9EB000000EBD0710AEBF1
:103E7000610000B20090234601224146304604F022
:103E8000F5FC584605F038F8A9EB000000EBD071BE
:103E90000AEB610000B20090604203B20322414687
:103EA000584604F0E3FC29E0204605F039F8D8B97B
:103EB0000421204605F0FEF8B0B9204605F01CF8B4
:103EC000A9EB000000EBD0710AEB610000B200909A
:103ED000334601224146204604F0C8FC204605F046
:103EE0006BF85844304406B2AC4207D0214608F182
:103EF000040004F022FB0446002CD5D125B1FA8B36
:103F00000AEB0900104400E00AE00FFA80FA2946A3
:103F100008F1040004F011FB044625007FF418AFFB
:103F20004046BDE8FC5F012104F039BEBDE8FC9FBE
:103F30002DE9F8438046FFF7BFFD0546404605F0F2
:103F40000DF80446052D10D0062D11D0072D12D0E6
:103F5000002501260121404605F0ADF9B4F91A907B
:103F600008F1040004F0F0FA26E0B4F91650F0E786
:103F700000250726EEE7208B404205B20426E9E73C
:103F800004F0CEFF98B90421384605F093F870B9D3
:103F90004B46324641463846009504F067FC3846A9
:103FA00005F00AF8E18B484408440FFA80F93946D5
:103FB00008F1040004F0C1FA0700E1D14046BDE871
:103FC000F843012104F0EBBD2DE9FF5F074604F043
:103FD0008FFF8146007810F0300F08D1800906D19C
:103FE00099F80100810702D110F00C0F7ED03846FD
:103FF00004F0B4FF0546384604F0A6FF834604F0FB
:10400000ADFF0146DBF810404A8BDBF81400224478
:1040100062F30F048A8BCB8A821A62F30F00098B3A
:1040200003EB2442C1EB204161F31F40804662F361
:104030001F4402A9384604F032FF6946384604F0AE
:104040002EFF381D04F001FB80F001005FEA000A3A
:1040500055D047F61840ADF80000ADF802004042D8
:10406000ADF80400ADF80600381D04F059FA2AE056
:1040700004F056FF18BBBDF90010B6F910008142DC
:1040800000DB0146ADF80010BDF90200B6F91210D0
:10409000884200DB0846ADF80200BDF90410B6F90D
:1040A0001400814200DD0846ADF80400BDF9061099
:1040B000B6F91600814200DD0846ADF8060031462B
:1040C000381D04F032FA0600D2D1BDF80000698B29
:1040D000401AADF80000BDF80400A98B0844ADF803
:1040E0000400BDF80200E98A401A00E0BCE0ADF827
:1040F0000200BDF80600298B0844ADF8060099F8C7
:104100000000DDE90256C0F30110012804D00228A6
:1041100005D0032813D105E0BDF800000DE064F3DD
:104120000F050CE0BAF1000F06D0BDF9000021B276
:10413000884202DB084600E020B260F30F0599F8E0
:1041400000008009012804D0022805D0032815D1D9
:1041500005E0BDF804000FE068F30F060EE0BAF1C9
:10416000000F07D0BDF904100FFA88F0814203DD7B
:10417000084601E00FFA88F060F30F0699F8010095
:1041800000F00300012804D002281CD0032805D128
:104190000FE0BDF8020000BF60F31F4599F8010071
:1041A000C0F38100012810D0022850D0032811D17B
:1041B00042E0BAF1000F06D0BDF90210201481428E
:1041C000EADA0846E8E72014E6E7BDF8060000BF93
:1041D00060F31F46B7F9100029B288420ED1B7F933
:1041E00012002914884209D1B7F9140031B288426B
:1041F00004D1B7F916003114884235D0384604F09E
:10420000FBFE3D617E61384604F0F6FEFB6902AAC2
:10421000022138469847DBF81C3058463A460121BF
:104220009847384604F028FE10B1384604F064FF81
:10423000381D04F075F915E0BAF1000F07D0BDF98B
:1042400006104FEA28408142C2DD0846C0E74FEA27
:104250002840BDE70022E369032198472146381D25
:1042600004F063F90400F5D1BDE8FF9F70B5054681
:10427000FFF722FC04460021284604F002FE002835
:104280002CD0002C2AD0012C14D0022C17D0032CB7
:1042900015D0042C13D0052C16D0062C14D0072CC6
:1042A00012D0082C15D0092C18D12846BDE8704032
:1042B000FFF7BABC2846BDE87040FFF704BC2846AB
:1042C000BDE87040FFF762BC2846BDE87040FFF7CC
:1042D0002FBE2846BDE87040FFF722BD70BD08B56F
:1042E000134600920A4600F001F808BD2DE9F0419E
:1042F0001C4615460E468046069F04F07DFE40464D
:1043000004F0F6FD0178C1F30112B2420BD1B5EB16
:10431000911F08D1427802F00303A34203D1C2F3F4
:104320008102BA4212D066F3051165F3871101705C
:104330004178002264F3010167F383014170404634
:10434000D8F81C30BDE8F04101211847BDE8F081E4
:1043500070B50C46054604F0CBFD017801F00F0264
:10436000A24209D064F3030101702846EB69BDE85D
:10437000704000220121184770BD00002DE9F04176
:104380001F4B14460D461B680746984706460128F2
:1043900033D1042D08D0012D06D0022D0BD0032DD2
:1043A00005D0062D1CD027E03846FFF75FFF3846C2
:1043B000FFF70AFE20E0384604F0FEFDA1882288BF
:1043C000891A491C09B28842EED1384604F094FD9E
:1043D000E1886288891A491C09B28842E4D10BE05D
:1043E0005FF0000154F8210018B1491CC9B2072937
:1043F000F8D304A044F821003046BDE8F081000065
:10440000A00C00206C765F636F6E74002DE9F041A4
:104410000D461E46174604461C21FBF7BEFEC4E9A6
:104420000057C4E90256BDE8F081000038B50446E3
:104430002021FBF7B2FE0020F021E06021806180A6
:104440006060074AA1681268009221F00201BDF87D
:104450000020A28341F00101A160606138BD00002D
:1044600008ED000870B50546254804F07CF8040006
:1044700017D020222946FBF777FE202104F59E70F5
:10448000FBF78BFE4FF4807104F13C00FBF785FED7
:10449000442104F1240004F05CF81A4D286808B1A6
:1044A00001E0FEE72C602E6800202C600146C4F875
:1044B0005C0104F079FB00212063084604F074FBE2
:1044C00000216063084604F06FFBA0630E49606B37
:1044D00004F038FF0C49A06B04F034FF206B04F0AB
:1044E0008BFD234603221E2108482E6007F06AF93F
:1044F000206218B107F05AFA204670BDFEE70000AE
:1045000084150020200C0020A8120020F54500088A
:104510004068816921F001018161704718B9044840
:104520000068002802D0007A00F001007047000007
:10453000200C002040687047014800687047000068
:10454000200C002010B90748006828B1017A8907BB
:1045500004D4B0F900007047F0207047B0F90200B1
:1045600070470000200C002010B518B9FFF7E4FFD9
:10457000002800D0806B10BD10B518B9FFF7DCFF24
:10458000002800D0406B10BD10B518B9FFF7D4FF5C
:10459000002800D0006B10BD10B90748006828B192
:1045A000017A890704D4B0F902007047F0207047FF
:1045B000B0F9000070470000200C0020406801683E
:1045C00019B1406808B1012070470020704700B55C
:1045D0000246B0F90030B0F9020043431046FFF73D
:1045E000EDFF28B15068C068984201D1012000BD9C
:1045F000002000BD2DE9F84F044607F019FA00909D
:10460000E0683E4C606006F047F805F0E5FF606842
:10461000B0F85C1189056CD0A246FFF7D8FFE8B36B
:104620005546DAF80400FFF785FF044606F026F940
:10463000A069C007FCD1A16820688946814200D1E9
:10464000606880466868FFF77DFF07460024AA4639
:104650002BE00A1992F83C212ABB01EBC401B1F905
:104660003C20B1F93E50B1F8401007FB05235E0035
:10467000891A491C09B24FEA410B0AE008EB06010E
:1046800009EB06005A46FBF76FFD6D1C06EB47066B
:104690002DB2DAF8040000EBC40000E00DE0B0F940
:1046A0004200A842EADA641CA4B2DAF80410B1F8B5
:1046B0005C21C2F30902A242CBD8DAF804004FF41D
:1046C000807154463C30FBF768FD6068202100F59E
:1046D0009E70FBF762FD60680021C0F85C11806984
:1046E00038B1009807F09EF9014660682268836936
:1046F0009847BDE8F84F00F073B800002400002090
:10470000002809D0082808DA084B03EB800050F88D
:10471000040C405C5043000A7047012303EB410145
:104720005143400091FBF0F0C0B2704730000020D0
:1047300070B515460E46044605F074FFFFF7EEFE11
:10474000B4EB660F04DBC6F34F040CB1641EA4B2D5
:10475000B4EB650F04DBC5F34F0424B1641EA4B2AF
:104760000CB1201A84B2204670BD70B586B01C46CC
:104770001546102B31D3FB2C00D9FF240A460146E5
:1047800001A8FEF727F9002827D005F04BFFFFF717
:10479000D1FEBDF80410028A2B46891AADF80C1020
:1047A000BDF80610428A891AADF80E10BDF808103F
:1047B000028A891AADF81010BDF80A10428A891AC7
:1047C000ADF81210818A8668008A03AA081A401C74
:1047D00001B23046009407F08BFC06B070BD0000BB
:1047E00010B5054C2068002805D003F0D1FF03491F
:1047F00000202060086010BD3C0C00202C00002030
:1048000010B50C490C4C0B682268984201D8104630
:1048100010BD08603AB10146104603F0FDFF20606C
:104820000028F5D1FEE703F085FF20600028EFD1D6
:10483000FEE700002C0000203C0C00202DE9FF4F7B
:104840009BB01546DDE928878246DDF8B490526AB0
:104850000392B80707D4BAF80410BAF80000081A8F
:10486000401C00B20DE0B5F92A0047F618418DE86A
:104870008300B5F92830414605A807F069F9BDF96C
:10488000140002900398698D2A9A007A08440FFA5E
:1048900080FBBAF80000ADF81000BAF90210002051
:1048A000ADF8121005903AB1B2F900000590B2F9D6
:1048B00002000144ADF812100024631EB9F1000F8C
:1048C0001ED0E8B9BAF90210D9F80820501A002809
:1048D00000DC881ACBF100014FF4806202EB410149
:1048E000884201DDC9F80030D9F80000002807DB54
:1048F0000446BDF81210B9F804000844ADF81200DF
:10490000DDE902310097B5F9282008EB040007F033
:10491000A3F806192CE0DDE902310097B5F928204B
:1049200008EB060007F098F834460619BDF8121097
:10493000B9F1000F01EB0B0000B2ADF8120013D07B
:1049400010F5806F10DBD9F8000000280CDAC9F8E8
:104950000040BDF91210BAF90200091AC9F8041092
:10496000BAF90210C9F8081018F80400002870D02D
:104970001C98BDF91210B0F9020059448142CADBFB
:10498000780716D5301B009781B2B5F9283008EBAF
:104990000400039A07F034F981465046FEF70EF8FA
:1049A000A0EB0900BDF8101000EBD07001EB600027
:1049B00014E0380714D5301B009781B2B5F92830C0
:1049C00008EB0400039A07F01BF981465046FDF7F7
:1049D000F5FFBDF81010A0EB09000844ADF8100079
:1049E0001E98FF2810D095F82C104143080A199002
:1049F00000200790994909A805F0B0FF688CADF830
:104A00002800ADF8260020E195F82C00EFE72A9861
:104A100028B1BDF8101005980844ADF810004FF00B
:104A200000090694C3E08E4C06A9404622689047D0
:104A300008900699226808EB010000219047024681
:104A4000F80710D00898232804D0B9F1010F1BD023
:104A500009E0FFE0B9F1000F0BD0B9F1010F0DD063
:104A6000B9F1020F0ED0286A1A90B9F1020F56D090
:104A700057E0069880B20790012010E04FF000093F
:104A8000286A4DE000200AE00898202808D1DDE9D6
:104A90000610081A072804D0288C18900220814696
:104AA00085E0079908EB0100016800918088ADF866
:104AB000040000208DF806009DF80100FDF76CFE53
:104AC00004469DF80000FDF767FE04EB0011089115
:104AD0009DF80300FDF760FE04469DF80200FDF717
:104AE0005BFE04EB00199DF80500FDF755FE04463A
:104AF0009DF80400FDF750FE04EB0010C308BDF85C
:104B00000000089963F304004FEA990262F34A1027
:104B1000C90861F3CF20ADF8000080B2BDE7189856
:104B20001A900899039802F086FA04B22B994FF66E
:104B3000FF70814226D02C99814223D0494A4046B9
:104B40000699126890472B9988421BDD2C99884260
:104B500018DCBDF81010ADF80010BDF81200ADF86B
:104B600002002A8D199B0A44611E1144ADF80410FD
:104B7000ABF101010844ADF8060009AA68461C998A
:104B800000F022FA19980190BDF86800ADF8000015
:104B900004A8089B039A1C9900F066F8002C06DD17
:104BA000BDF81000298D01440819ADF810000698D1
:104BB000B042FFF438AFDDE90231009708EB0600A0
:104BC000B5F92820814606F047FF34460619BAF8A1
:104BD0000000ADF81000780715D5301B009781B2A2
:104BE000B5F928304846039A07F00AF8814650463E
:104BF000FDF7E4FEA0EB0900BDF8101000EBD0704B
:104C000001EB600013E0380713D5301B009781B229
:104C1000B5F928304846039A06F0F2FF814650461F
:104C2000FDF7CCFEBDF81010A0EB09000844ADF86C
:104C30001000BDF8121001EB0B001C9900B2ADF88A
:104C40001200B1F90610884204DC18F804000028AC
:104C50007FF4DDAE1FB0BDE8F08F00009813002098
:104C6000600C00206C0C00202DE9F04F9FB0044632
:104C7000A9A0984600681D90A8A0174600681E903D
:104C8000A7A00E460FC819AD85E80F002998102877
:104C900071D3FB2801D9FF202990002F6BD000236E
:104CA000424606A9384602F08DF9002863D02088D4
:104CB0009DF91C10084405B2387A797A401A618847
:104CC00001449DF81B00081A9DF91D10401A04B2FA
:104CD0009DF81E00012809D002280BD0042846D0D8
:104CE000082848D100200C90FF2006E01DA80C9059
:104CF000802002E01EA80C90C02081464146384624
:104D000002F05EF9070036D09DF81A00B6F90010DF
:104D1000284488422FDBB6F90400A8422BDB9DF81B
:104D20001B00B6F902102044884224DBB6F90600C5
:104D3000A04220DB05F076FC1490FFF7FBFB818A94
:104D4000B0F910A08046A1EB0A00401C00B20F9001
:104D50009DF81E109DF81A008E4600FB01F2B6F970
:104D60000010D8F808B0A94206DC002105E019A817
:104D70000C90F020C1E7CBE0491B09B20891B6F9CD
:104D8000041043198B4201DD481B401C00B20990FE
:104D9000B6F90200A04201DC002000E0001B9DF8F3
:104DA0001B10B6F9063001EB040C00B29C4501DD86
:104DB000191B491C09B21791B8F912100F9E631AFA
:104DC0000F99109003FB0153A3EB0A030BEB430174
:104DD000089B00FB063301EB430A00FB02F1089B32
:104DE000BDF8A00003FB0E11169007EBD10B01F0EC
:104DF0000706109888E000BF29FA06F01290089F75
:104E000066E000BF9DF81E00C6F108010B1A9BF872
:104E1000002012990A40DA4045D02999FF2921D073
:104E2000082824D00C98805C4843020A1498D0F8D3
:104E300014C0BCF1000F1DD002921698ADF804000A
:104E400010980119B8F81200081A00B20090B8F8CA
:104E500010007919081A03B2D8F808100F9A14989C
:104E6000E04720E00828E1D00C98825CDEE74A4366
:104E7000120ADBE7BAF80000BDF8A010884212D091
:104E8000FB2A01D916990CE0102A0CD9BAF80000B7
:104E9000ADF8040001992898FEF753FD0190BDF884
:104EA0000410AAF800109DF81E000AF1020AC0F1D1
:104EB0000801B14205DD81198EB21299C1401291EB
:104EC00004E000260BF1010BCDF848907F1C3FB2A7
:104ED0000998874296DB9DF81A10091A0898084429
:104EE0009DF81E1000FB016080B20BEBD00B00F0B0
:104EF0000706DDE90810411A0F98411A10980AEBCD
:104F0000410A401C00B2109017998842FFF674AF16
:104F10001FB0BDE8F08F000000FF00000055AAFFA1
:104F200000112233445566778899AABBCCDDEEFF89
:104F3000FFB583B00D460C9C0646102C2CD3FB2CE1
:104F400000D9FF24B2F90000B04225DCB2F9040018
:104F5000B04221DBB2F90200A8421DDCB2F9060022
:104F6000A84219DB05F05EFB0746FFF7E3FA828AE9
:104F7000018A521A711A0BB2418A521C691A0EB276
:104F8000BDF818107D6912B245B10294ADF8041055
:104F9000009681683846A84707B0F0BD806806FBD8
:104FA000023200EB4205FF2C0CD02888ADF800003F
:104FB000224600990698FEF7C4FC0090BDF8000058
:104FC0002880E9E72980E7E72DE9F04105460F460B
:104FD000C08869881E46401A401C00B21446012849
:104FE0003DDBA8882988401A401C00B2012836DB26
:104FF000608A18B13946284601F0E6FB3946284652
:10500000FDF72DFD00282AD0207A10280DD933462F
:1050100022463946284601F043FBE08828B1334652
:1050200022463946284600F029FFA089002816D0DC
:10503000A07B002813D0E07B102810D333462246F3
:105040003946284600F044FDE088002807D0334662
:10505000224639462846BDE8F04100F003B8BDE8D5
:10506000F08100002DE9FF4FA7B00646D088984692
:105070001546079005F0D6FAFFF750FA0746B5F93E
:105080000C006989ADF87810AC7BE97BB8F1FF0FB3
:1050900002D001FB08F1090A401E00B206910C90F3
:1050A00017B1401E00B20C90B18830887288081A7F
:1050B000401C01B2F088801A401C02B20798FFF72A
:1050C00037FB07903288C119501800B20F907288D0
:1050D0001690114409B260F30F0A60F30F081291A1
:1050E000F288079861F31F4A101AC01B02B210928F
:1050F000B38807981392181AC01B00B260F30F0907
:1051000060F30F0B0E90CDE91401079862F31F486E
:1051100062F31F4B02B261F31F4924A901A80A924E
:10512000FEF7E0FB0C990798401A02B2161E00DA4F
:10513000002225A911A8FEF7D5FB00200C900A98A3
:105140001D900020CDE90A60CEE200BFBDF94620E7
:10515000BDF944309A4203DAC11A09B21A9104E047
:10516000411A09B21A91491E09B21991002F7DD036
:105170001D9988427BD0BDF906101B910C9A891AA3
:1051800009B207911D99002661F30F0062F31F40D9
:105190001790D1E0069A0128314602DDFCF7CEFFD8
:1051A00004E0FFF7ADFA0699081AC0B20C90E007C8
:1051B0005BD0200728D50C984FEA2B412191009015
:1051C0001798001420900844304401B217981D909D
:1051D0006A895844ADF89820401C00B2269B289A52
:1051E000FFF7A6FE0C9800901D9821996A89084443
:1051F000401C01B22098ADF888205844304400B2D9
:10520000229B289AFFF794FE60072ED50C980090F9
:1052100017984FEA284121900844401C0FFA80FC5F
:105220001798209100141C906989A8EB0000ADF834
:105230009810801B00B26146269B289AFFF778FEE3
:105240000C98009020991C98289A084430440FFA32
:1052500080FC21986989A8EB0000ADF88810401EF9
:1052600000B26146229BFFF763FE01E0F0E06CE0D4
:10527000A0075FD560072ED50C98009017984FEACD
:105280002A4100141D90081A801B0FFA80FC179801
:10529000219020916989AAEB0000ADF89810401E7A
:1052A00000B26146269B289AFFF742FE0C980090B8
:1052B000DDE92010081A401E0FFA80FC1D9869894C
:1052C000AAEB0000ADF88810801B00B26146229B5B
:1052D000289AFFF72DFE20072CD50C984FEA29417C
:1052E0002191009017982090081A401E0FFA80FC18
:1052F0001798289A00141C9069894844ADF89810B2
:10530000304400B26146269BFFF712FE0C980090D5
:1053100021991C98289A081A801B0FFA80FC209863
:1053200069894844ADF88810401C00B26146229B50
:10533000FFF7FEFD761C36B207988642FFF62AAFCD
:10534000BDF904001D901B980C90BDF944100A98FB
:1053500081427DD0BDF906100B9A1B91891A09B2C2
:105360001791014661F30F0062F31F4000261C9164
:105370000790CFE0069A0128314605DDFCF7DEFEF6
:105380000699081AC0B201E0FFF7BAF90A90E007DF
:105390002DD0200716D50A98009007984FEA2B4188
:1053A00001EB2040304407990FFA80FC0BEB010021
:1053B0006989ADF88810401E00B26146229B289A88
:1053C000FFF7B6FD600712D50A9800900798079A74
:1053D00000EB2840401E01B2A8EB22406A89ADF8DC
:1053E0008820801B00B2229B289AFFF7A1FDA0070E
:1053F0002BD5600714D50A98009007984FEA2A41E8
:10540000A1EB2040801B01B207986A89AAEB00003B
:10541000ADF88820401C00B2229B289AFFF788FD37
:10542000200712D50A9800900798079AC0EB2940E8
:10543000401C01B209EB22406A89ADF88820304453
:1054400000B2229B289AFFF773FD0B98304400E0CE
:1054500069E01C99081A01285AD0E0072BD02007D0
:1054600012D50A9800900798079A00EB2B40401E2F
:1054700001B20BEB22406A89ADF88820304400B2BB
:10548000229B289AFFF754FD600714D50A980090D4
:1054900007984FEA284101EB2040304401B20798B9
:1054A0006A89A8EB0000ADF88820401C00B2229B5E
:1054B000289AFFF73DFDA0072AD5600712D50A9864
:1054C000009007986A89C0EB2A40401C01B20798F7
:1054D000ADF88820AAEB2040801B00B2229B289ABE
:1054E000FFF726FD200713D50A98009007984FEA8A
:1054F0002941A1EB2040801B01B207986A894844EA
:10550000ADF88420401E00B2219B289AFFF710FDC1
:10551000761C36B217988642FFF62CAFBDF94400D0
:105520000A901B980B90E00763D020072FD5BDF899
:105530000400149E19993044411AADF80C00ADF8DE
:10554000081013980090BDF80610069B0844ADF8AB
:105550000A00ADF80E0002A81E9A2899FFF705F977
:10556000BDF80600BDF804103044ADF80800ADF8F1
:105570000C000098069B08441A99ADF80E00411AD9
:10558000ADF80A1002A81E9A2899FFF7EEF86007F6
:105590002FD5BDF80600169EBDF80410301AADF8E0
:1055A0000800ADF80C001098009008441999ADF867
:1055B0000E00411AADF80A1002A8069B1E9A2899FF
:1055C000FFF7D3F8BDF804001A99301AADF80800B7
:1055D0000844ADF80C00BDF806100098069B08447E
:1055E000ADF80A00ADF80E0002A81E9A2899FFF740
:1055F000BCF8A0076AD5600733D5BDF9060010993D
:105600000A181299081A824213DDBDF804200F9976
:10561000069B891AADF80810199AADF80A001144D2
:10562000ADF80C10ADF80E0002A81E9A2899FFF7ED
:105630009CF8BDF806100F98069B401AADF80800BC
:10564000ADF80C00BDF8041012981E9A401A1A9971
:10565000ADF80A000844ADF80E0002A82899FFF73B
:1056600084F8200732D5BDF806100E98159E084420
:10567000ADF80800ADF80C00BDF804001999301A17
:10568000ADF80A000844ADF80E0002A8069B1E9A69
:105690002899FFF76AF8BDF9060000EB2B41301A94
:1056A000814213DDBDF804200E99069B11441A9A1D
:1056B000ADF80C108A1AADF80820ADF80A00ADF864
:1056C0000E0002A81E9A2899FFF74FF824A901A8F6
:1056D000FEF70FF9BDF94600BDF94410884203DA20
:1056E00025A911A8FEF705F9BDF90610BDF90400BA
:1056F00081427FF72BAD002F7DD0BDF806000C99BD
:10570000401A00B20F901D98002760F30F0661F356
:105710001F460E90B3E03946069AFEF7F1FF069950
:10572000081AC0B21090E00751D0200726D5109873
:1057300000904FEA2B403214CDE914201044384435
:1057400001B26A890BEB0600ADF86420401C00B280
:10575000199B289AFFF7ECFB109800901598149A63
:105760003044401C01B20BEB02006A89ADF85820AE
:10577000384400B2169B289AFFF7DAFB600726D55B
:10578000109800904FEA284015903044401C321485
:1057900001B2A8EB020014926A89ADF86420C01B24
:1057A00000B2199B289AFFF7C3FB10980090DDE91F
:1057B00014201044384401B26A89A8EB0600ADF801
:1057C0005820401E00B2169B289AFFF7B1FBA00795
:1057D00053D5600728D5109800904FEA2A4032141C
:1057E000CDE91420801AC01B01B2AAEB0600401EAE
:1057F00000B26A8900E068E1ADF86420199B289A3C
:10580000FFF796FB109800901598149A801B401E85
:1058100001B2AAEB02006A89ADF85820C01B00B2A1
:10582000169B289AFFF784FB200726D51098009036
:105830004FEA29401590801B401E321401B209EB3B
:10584000020012926A89ADF86420384400B2199BB4
:10585000289AFFF76DFB10980090129A1598801AFD
:10586000C01B01B26A8909EB0600ADF85820401C44
:1058700000B2169B289AFFF75BFB7F1C3FB20F9884
:105880008742FFF648AF0C990E98401A002802DCB8
:1058900008460E99401A0F9988424ED11D9860F320
:1058A0000F0660F31F4606984708E00721D020073F
:1058B0000DD5009706EB2B406A8901B2ADF83C206C
:1058C0000BEB264000B20F9B289AFFF731FB6007D5
:1058D0000FD54FEA2840009700EB26406A8901B2B5
:1058E000ADF83C20A8EB060000B20F9B289AFFF70A
:1058F0001FFBA00721D560070DD50097C6EB2A40F6
:105900006A8901B2ADF83C20AAEB264000B20F9B99
:10591000289AFFF70DFB20070FD54FEA2940009783
:10592000A0EB26406A8901B2ADF8382009EB0600E9
:1059300000B20E9B289AFFF7FBFA0A98109060F3CA
:105940000F060B98BDF8461060F31F460A90081A20
:1059500000B200270F90B4E03946069AFEF7D0FE59
:105960000E90E00727D0200712D50E9800904FEA3E
:105970002B4000EB2640384401B26A890BEB06004D
:10598000ADF84820401E00B2129B289AFFF7D0FACB
:10599000600710D50E98009006EB2840401E01B21B
:1059A0006A89A8EB2640ADF84820C01B00B2129BC4
:1059B000289AFFF7BDFAA00727D5600712D50E98E1
:1059C00000904FEA2A40A0EB2640C01B01B26A8932
:1059D000AAEB0600ADF84820401C00B2129B289AA2
:1059E000FFF7A6FA200710D50E980090C6EB2940C5
:1059F000401C01B26A8909EB2640ADF848203844C2
:105A000000B2129B289AFFF793FA0A98109938442B
:105A1000081A012853D0E00727D0200710D50E9888
:105A2000009006EB2B40401E01B26A890BEB26402A
:105A3000ADF84820384400B2129B289AFFF778FA54
:105A4000600712D50E9800904FEA284000EB2640E0
:105A5000384401B26A89A8EB0600ADF84820401C22
:105A600000B2129B289AFFF763FAA00727D56007B8
:105A700010D50E980090C6EB2A40401C01B26A89EE
:105A8000AAEB2640ADF84820C01B00B2129B289A12
:105A9000FFF74EFA200712D50E9800904FEA2940E2
:105AA000A0EB2640C01B01B26A8909EB0600ADF8E5
:105AB0003820401E00B20E9B289AFFF739FA7F1C4F
:105AC0003FB20F988742FFF647AF2BB0BDE8F08F8B
:105AD0002DE9FF4F85B01D4691460446B2F8068079
