:020000040800F2
:1000000040360020450100087B1D00085B1D0008EC
:10001000791D0008A3020008252A0008000000003E
:10002000000000000000000000000000A1280008FF
:10003000DB020008000000007D1D0008A328000866
:100040005F0100085F0100085F0100085F01000810
:100050005F0100085F0100085F0100085F01000800
:100060005F0100085F0100085F0100085F010008F0
:100070005F0100085F0100085F0100085F010008E0
:100080005F0100085F0100085F0100085F010008D0
:100090005F0100085F0100085F0100085F010008C0
:1000A0005F0100085F0100085F0100085F010008B0
:1000B0005F0100085F0100085F0100085F010008A0
:1000C0005F0100085F0100085F0100085F01000890
:1000D0005F0100085F0100085F0100085F01000880
:1000E0005F0100085F0100085F0100085F01000870
:1000F0005F0100085F0100085F0100085F01000860
:100100005F010008B11D00085F0100085F010008E1
:100110005F0100085F0100085F0100085F0100083F
:100120005F0100085F0100085F010008A5020008E8
:10013000DFF80CD000F040F800480047693D0008A7
:10014000403600200648804706480047FEE7FEE7A5
:10015000FEE7FEE7FEE7FEE7FEE7FEE7FEE7FEE777
:100160000529000831010008D2B201E000F8012B96
:10017000491EFBD270470022F6E710B513460A4627
:1001800004461946FFF7F0FF204610BD30B50B4678
:10019000014600202022012409E021FA02F59D42B7
:1001A00005D303FA02F5491B04FA02F52844151E8B
:1001B000A2F10102F1DC30BD064C074D06E0E0681B
:1001C00040F0010394E8070098471034AC42F6D39E
:1001D000FFF7B2FFDC410008FC4100087047000057
:1001E0000146014801F0D2B95400002010B504487E
:1001F00001F0DEF9042801D0012010BD002010BD5F
:100200005400002010B500F015F8012801D001209D
:1002100010BD074801F0E6FA040006D14FF4006172
:10022000034801F06BF800B10124204610BD000026
:100230005400002008B501208DF800009DF8000052
:1002400008BD00002DE9F041074615460E46002482
:10025000064803F0C1FE2B4632463946034801F0FA
:100260006BFB00B101242046BDE8F0815400002062
:10027000704700002DE9F041074615460E46002460
:10028000064803F0C9FE2B4632463946034801F0C2
:10029000F3FB00B101242046BDE8F08154000020AA
:1002A0007047FEE7014800F063BA0000D800002064
:1002B00030B590F840500124AC40C56B6C600468C8
:1002C00063604368102B036803D099600068C260C4
:1002D00030BD9A600068C16030BD704772B6FEE7FD
:1002E000002200F001B8000030B50E4B0546012099
:1002F0005C7A012C15D8587A00241C54587A03EBE8
:10030000800045605D7A03F108002A54587A421C47
:100310005A72303008703A2048702F208870CC70A4
:10032000002030BD3426002010B53EA002F07CFB3A
:10033000012245A1454802F09DFF454C0100207077
:1003400004D044A002F070FB72B6FEE747A002F0B2
:100350006BFB0A224AA14D4802F0BAFF207001004F
:1003600003D04BA002F060FB02E04FA002F05CFB68
:10037000534B112253A1454803F099F92070010015
:1003800001D055A005E05BA002F04EFB4C4960A0F7
:10039000083102F049FB3D4802F056FF2070010091
:1003A00003D060A002F040FB02E063A002F03CFB3F
:1003B000012233A1354802F08BFF2070010003D0E9
:1003C00033A002F031FB02E037A002F02DFB3C4BE2
:1003D00064221B1D5D492D4803F04AF8207001007E
:1003E00001D05BA004E05FA002F01EFB574962A0B1
:1003F00002F01AFB254802F027FF2070010003D00D
:1004000062A002F011FB02E04BA002F00DFB2C48B1
:1004100003C8814204D1BDE8104062A002F004BBD1
:1004200010BD00000D0A202A2A2A2A2A2A20466105
:10043000744673204578616D706C65202A2A2A2ADB
:100440002A2A0D0A0D0A0000000000005C2100208D
:100450003C000020206D6F756E74206572726F72A3
:10046000203A202564200D0A00000000206D6F75E1
:100470006E7420737563657373212121200D0A004A
:100480006E6F74652E747874000000008C23002059
:10049000206F70656E2066696C65206572726F7280
:1004A000203A2025640D0A00206F70656E20666971
:1004B0006C6520737563657373212121200D0A001B
:1004C0000000002077656C636F6D65206D79206892
:1004D0006F6D6521000000002077726974652066E9
:1004E000696C65206572726F72203A2025640D0A6E
:1004F000000000002077726974652066696C6520D1
:10050000737563657373212121200D0A00000000BB
:100510002077726974652044617461203A202573E4
:100520000D0A000020636C6F7365206572726F7234
:10053000203A2025640D0A0020636C6F73652073D8
:100540007563657373212121200D0A00B8250020F1
:100550002072656164206572726F722121212025ED
:10056000640D0A002072656164207375636573739E
:10057000212121200D0A0000207265616420446160
:100580007461203A2025730D0A00000020636C6F0F
:100590007365206572726F722121212025640D0A16
:1005A0000000000020466174467320697320776F55
:1005B000726B696E672077656C6C2121210D0A00D2
:1005C0002DE9F05F90F821100024022903D00421C6
:1005D0008163012485E001680A6822F00E020A6046
:1005E00001680A6822F001020A603F4E3E4FB215D0
:1005F000DFF8F4C0DFF8F090DFF8ECA0DFF8E8B047
:10060000DFF8E4E00168783F13011502ACF1640CF7
:10061000A9F15009AAF13C0AABF1280BAEF1140E76
:100620004FF48018B14227D9B9420ED0614512D09B
:1006300049451DD0514518D0594518D0714501D1B3
:10064000424615E0294EB14201D1012210E0274E69
:100650001436B14201D110220AE0244E2836B142AC
:1006600006D0224A3C32914201D11A4600E02A4685
:100670001E49091F0A602BE0B94213D0614517D00B
:10068000494522D051451DD059451DD0714501D154
:1006900042461AE0B14202D14FF0807215E0134E8B
:1006A000B14201D1012210E0104E1436B14201D105
:1006B00010220AE00D4E2836B14206D00B4A3C32D9
:1006C000914201D11A4600E02A46074980394A6022
:1006D000012180F82110002180F82010416B01B128
:1006E00088472046BDE8F09F800002400804024091
:1006F00010B5D0B101680A6822F001020A600268F0
:100700000021116002685160026891600268D16046
:10071000144C02681423A24209D2134C2244B2FBA7
:10072000F3F292000264114A0AE0012010BD0D4C60
:1007300064422244B2FBF3F292000264094A083A8E
:10074000C26390F8403001229A40C36B5A608162C4
:10075000C16201634163816380F8211080F8201039
:10076000002010BD08040240F8FFFDBF0000024059
:100770002DE9F05FC16B0A6801680B68046C4FF0EB
:10078000040808FA04F8844D844E854FDFF814C23B
:10079000DFF81492DFF814A2DFF814B2DFF814E2E5
:1007A00018EA020F65D05FEA437862D50A689206BC
:1007B00003D40A6822F004020A60DFF8F0814FF4E3
:1007C0008062016808F1140813011402414524D91C
:1007D000A9420DD0B1420FD0B9421AD0614515D00F
:1007E000494515D0514501D1120312E0594501D1B7
:1007F00004220EE0714501D140220AE06D4D14350E
:10080000A94206D06B4A2832914201D11A4600E033
:1008100022466749091F0A6029E0A94213D0B14264
:1008200015D0B94220D061451BD049451BD0514558
:1008300002D14FF4800217E0414502D14FF08062AF
:1008400012E0594501D104220EE0714501D1402248
:100850000AE0584D1435A94206D0564A2832914232
:1008600001D11A4600E022464B4908394A60C16A64
:1008700071E04FF0020808FA04F818EA020F70D08D
:100880005FEA83786DD50A68920606D40A6822F07A
:100890000A020A60012180F82110DFF810814FF46C
:1008A0000072016808F1140813011402414524D9AB
:1008B000A9420DD0B1420FD0B9421AD0614515D02E
:1008C000494515D0514501D1120312E0594501D1D6
:1008D00002220EE0714501D120220AE0354D143587
:1008E000A94206D0334A2832914201D11A4600E08B
:1008F00022462F49091F0A6029E0A94213D0B142BC
:1009000015D0B94220D061451BD049451BD0514577
:1009100002D14FF4001217E0414502D14FF00072AE
:1009200012E0594501D102220EE0714501D1202289
:100930000AE0204D1435A94206D01E4A28329142C1
:1009400001D11A4600E02246134908394A600021C5
:1009500080F82010816A00291CD0BDE8F05F0847AC
:10096000FFE70825A540154214D01A0712D50A68DA
:1009700022F00E020A6090F84020C36B012101FAB8
:1009800002F25A60816380F82110002180F8201063
:10099000016BE0E7BDE8F09F080002401C00024048
:1009A0003000024044000240580002406C00024007
:1009B000080402401C04024030B560B11A4B0268C2
:1009C00014219A4209D2194B1344B3FBF1F1890067
:1009D000016417490AE0012030BD134B5B42134408
:1009E000B3FBF1F1890001640F490839C1630221A9
:1009F00080F82110136843F6F0718B43F0E901147D
:100A00002143D0E902452C43214304692143446931
:100A1000214384692143194311600021416301226C
:100A200042770177084630BD08040240F8FFFDBF59
:100A30000000024070B5044690F82000002501280F
:100A40000CD0012084F8200094F821600020012EB1
:100A500006D084F820000225284670BD022070BD13
:100A6000022684F82160A0632068066826F001064B
:100A700006602046FFF71CFCE06A00282068016839
:100A800002D041F00E0106E021F00401016020686F
:100A9000016841F00A0101602068016841F001012C
:100AA0000160D9E770B5044600F00AF90546601CFC
:100AB00002D004480078044400F002F9401BA04230
:100AC000FAD370BD2C0000202DE9F84FDFF8C89153
:100AD000002409F1040A0AF1040B23460F270BF145
:100AE000040ED1E00125A54006EA0502AA4276D10E
:100AF000DFF8A8C14E68A6EB0C0866452BD00DDCCC
:100B0000032E34D005DC36B3012E19D0022E2FD19E
:100B10001BE0112E16D0122E2AD119E0B8F5881F2D
:100B200019D006DCB8F5803F15D0B8F5801F1FD16D
:100B300011E0B8F5001F0ED0B8F5041F18D10AE077
:100B4000CB6815E0CB681B1D12E0CB6808330FE0C3
:100B5000CB680C330CE08B682BB1012B4FF00803F2
:100B600003D0456104E0042302E0056100E00023B6
:100B7000FF2A01D8064601E000F104064FEA840589
:100B800001D9A5F12005D6F8008007FA05FC28EA6E
:100B90000C0803FA05F548EA0508C6F800804D6818
:100BA000ED0070D53E4DAE6946F00106AE61AD690F
:100BB00024F0030605F0010500953A4D06EB050CFF
:100BC000DCF80850A607360F07FA06F825EA0805EC
:100BD000DFF8D480404503D14FF0000825E052E013
:100BE000DFF8C880404502D14FF001081DE0DFF872
:100BF000C080404502D14FF0020816E0DFF8B48013
:100C0000404502D14FF003080FE0DFF8AC804045CB
:100C100002D14FF0040808E0DFF8A080404502D17F
:100C20004FF0050801E04FF0060808FA06F848EA18
:100C30000508CCF808804D68D9F80060ED034D46F2
:100C400001D5164300E096432E604D68DAF8006047
:100C5000AD03554601D5164300E096432E604D681E
:100C6000DBF80060ED025D4601D5164300E09643D7
:100C70002E604D68DEF80060AD02754601D5164362
:100C800000E096432E60641C0A681646E2407FF43A
:100C900029AFBDE8F88F00000004014000001110EA
:100CA000001002400000014000080140000C01401B
:100CB000001001400014014000180140001C0140D8
:100CC00001488068704700002C00002002488168BD
:100CD00002781144816070472C000020074810B54D
:100CE000016841F010010160032000F075F8002058
:100CF00000F006F800F024F8002010BD00200240AB
:100D000070B50D4D04464FF47A712878B1FBF0F0C0
:100D10000A490968B1FBF0F000F048FF48B9102C0F
:100D200007D200222146501E00F036F800206C60E9
:100D300070BD012070BD00002C0000203800002094
:100D40000C4808B5816941F001018161816901F0B8
:100D500001010091C16941F08051C161C06900F099
:100D6000805000900448416821F0E06141F08061CA
:100D7000416008BD0010024000000140002809DB6E
:100D800000F01F02012191404009800000F1E020A5
:100D9000C0F8001170470000F0B40E4B1B680C4601
:100DA000C3F30223C3F10705042D00D90425191D3F
:100DB000072901D2002300E0DB1E012606FA05F117
:100DC000491E214099409E40761E16403143F0BC9A
:100DD00001F03ABE0CED00E0064900F00702086899
:100DE0004FF6FF03184040EA0220034A1043086010
:100DF000704700000CED00E00000FA052DE9F04717
:100E00000F46050061D0434E306800F00700B8423D
:100E100009D2306820F0070038433060306800F0B5
:100E20000700B84251D128683B4C810712D54007D2
:100E300003D5606840F4E06060602878000703D55F
:100E4000606840F4605060606068A96820F0F0005D
:100E5000084360602878C00728D06868012810D04F
:100E60002168022810D0890700292EDA616821F054
:100E7000030101436160FFF723FF804641F2883997
:100E80000DE021688903EFE78901EDE7FFF718FF1F
:100E9000A0EB0801494502D90320BDE8F08760684E
:100EA000696800F00C00B0EB810FEFD1306800F002
:100EB0000700B8420BD9306820F007003843306093
:100EC000306800F00700B84201D00120E5E728783B
:100ED000400705D56068E96820F4E0600843606079
:100EE0002878000706D56068296920F4605040EA38
:100EF000C100606000F038F86168084AC1F303116E
:100F0000515CC8400649086006480068FFF7F8FED3
:100F10000020C2E70020024000100240AE4100085D
:100F20003800002030000020044805490068496866
:100F3000044AC1F30221515CC840704738000020C8
:100F400000100240BE410008044805490068496895
:100F5000044AC1F3C221515CC840704738000020E8
:100F600000100240BE41000812A185B00FC98DE8F3
:100F70000F0014A0144A006804905168134801F04F
:100F80000C03042B10D0082B0ED1C1F38343C903EB
:100F90001DF803000AD5516804AAC1F34041515C11
:100FA0000A4A5043B0FBF1F005B070470849484386
:100FB000FAE7000002030405060708090A0B0C0DF6
:100FC0000E0F1010010200000010024000127A0003
:100FD00000093D002DE9F84F040070D02078C04D85
:100FE000C00749D06868C0F38100012807D068684D
:100FF000C0F38100022809D16868C00306D52868BB
:10100000800339D560680028E7D035E06068B0F526
:10101000803F0BD010B1B0F5A02F11D0286820F47C
:1010200080302860286820F4802002E0286840F49E
:1010300080302860606890B1FFF742FE06460AE003
:10104000286840F480202860F0E700BFFFF738FEF2
:10105000801B642873D828688003F7D50CE0FFF75D
:101060002FFE064605E000BFFFF72AFE801B64281E
:10107000F0D828688003F7D420789A4E80074FF084
:1010800001094FF0000839D5686810F00C0F07D03F
:101090006868C0F38100022809D16868C00306D4DB
:1010A0002868800714D52069012808D110E020693C
:1010B000B0B1C6F80090FFF703FE074605E00AE16D
:1010C000FFF7FEFDC01B0228C4D828688007F7D5AB
:1010D0002868616920F0F80040EAC10028600DE04E
:1010E000C6F80080FFF7ECFD074604E0FFF7E8FDD7
:1010F000C01B022823D828688007F7D4207800076F
:101100002CD57948A169D9B1C0F80090FFF7D8FD76
:10111000074604E0FFF7D4FDC01B02280FD8686A19
:101120008007F7D571484FF4FA510068B0FBF1F031
:10113000009000BF0098411E0091FAD20EE080E0BE
:10114000C0F80080FFF7BCFD074604E0FFF7B8FDDC
:10115000C01B022875D8686A8007F7D4207840073A
:1011600060D5E8690027C00008D4E86940F08050E5
:10117000E861E869012700F0805000905C48016850
:10118000C90513D40168834641F480710160FFF7FB
:1011900097FD824606E000BFFFF792FDA0EB0A0034
:1011A00064284ED8DBF80000C005F5D5E0680128BA
:1011B0000AD008B1052813D0286A20F0010028625F
:1011C000286A20F0040002E0286A40F0010028624A
:1011D000E06841F2883B98B1FFF772FD82460BE070
:1011E000286A40F004002862EEE700BFFFF768FDC0
:1011F000A0EB0A0159455AD8286A8007F6D50CE0B9
:10120000FFF75EFD824605E0FFF75AFDA0EB0A01FD
:1012100059454CD8286A8007F6D41FB1E86920F0F8
:101220008050E861E06988B36968C1F381010229EF
:1012300044D00228C6F8608004D0FFF741FD044680
:1012400038E034E0FFF73CFD074604E0FFF738FDE7
:10125000C01B02282BD828688001F7D4206AB0F57B
:10126000803F05D16868A16820F4003008436860B9
:10127000D4E908010843696821F4741108436860DF
:10128000C6F86090FFF71CFD044606E025E000BFAD
:10129000FFF716FD001B022809D828688001F7D542
:1012A0001BE000BFFFF70CFD001B022802D9032042
:1012B000BDE8F88F28688001F4D40EE00128F7D04B
:1012C0006868226A00F48031914204D1616A00F4B6
:1012D0007010884201D00120EAE70020E8E7000012
:1012E00000100240000042428004424238000020C8
:1012F0000070004010B5FEF771FF10BD2DE9FE43F0
:10130000044603200F4684F83400606C03285AD04A
:10131000B7F5805F57D04FF4006600254FF0806826
:10132000B7421CD1009501950021206800F03DFDD9
:10133000800121D46946204601F0FEF898BB01984F
:10134000400332D5B4F850000104206800F068FD75
:1013500048BB0221206822E0A06B284327E01FB190
:10136000A06B40F0006022E000950195002120680C
:1013700000F01BFD800101D53546EDE769462046AA
:1013800001F0DAF878B90198C0030ED5B4F850002E
:101390000104206800F044FD28B90021206800F015
:1013A0008CFD0028D8D00546D6E74546D4E7A06393
:1013B000A06B012558B121680C48886384F834502B
:1013C0000120BDE8FE83A06B40F08050EFE7211DB7
:1013D000D4E905060EC90097CDE90106206800F0A2
:1013E000EDFC84F834500020EBE70000FF054000DE
:1013F00070470000F0B5426E920F0A70426EC2F361
:1014000083624A70426EC2F301628A70426E120CAD
:10141000CA70B0F86420120A0A7190F864204A7108
:10142000826E120DCA80826EC2F303420A72B0F855
:101430006820C2F3C0324A72B0F86820C2F380322A
:101440008A72B0F86820C2F34032CA72B0F86820DD
:10145000C2F300320A7300264E73426C4FF40075DB
:10146000012462B1012A3AD0026847499163816B35
:1014700041F08051816380F834400120F0BDB0F824
:101480006820C36E9205120D42EA93720A61C26E21
:10149000C2F3C2620A75C26EC2F302624A75C26EBC
:1014A000C2F342528A75C26EC2F38242CA75C26EDC
:1014B000C2F3C2320A760A69521C42650B7E03F0FF
:1014C00007039B1C9A4042650B7A03F00F0704FA4E
:1014D00007F383655B0A5A43C0E917250EE090F8CD
:1014E0006820C36E9206920A42EA13420A610A69B0
:1014F000521C92024265C0E91652056630F86C2F04
:10150000C2F3803201F8192F0288C2F3C6124A7062
:10151000027802F07F028A704268D20FCA70426875
:10152000C2F341720A714268C2F382624A71426830
:10153000C2F383528A714268C2F34052CA710E727A
:101540004268C2F300424A728288C2F3C0328A7291
:101550008288C2F38032CA728288C2F340320A7330
:101560008288C2F300324A738288C2F381228A736E
:101570008288C2F30122CA730079C0F3460008745E
:101580004C740020F0BD0000FF054000426C0A6072
:10159000826C4A60C26C8A60026DCA60426D0A61E8
:1015A000826D4A61C26D8A61006EC8610020704719
:1015B00070B50446B0F8500000250104206800F022
:1015C00086FD18B1A16B0143A16304E000212068EE
:1015D00000F0EBFB0546C5F3432070BDF8B5056B85
:1015E00004460068416B09041BD5290719D5D4E9C5
:1015F0000A56002E14D00027206800F0F9FB05F8E9
:10160000010B010A05F8011B010C05F8021B000E75
:10161000361F7F1C05F8010C082FEDD3C4E90A56CC
:10162000F8BD416B4FF00006C9054FF0010744D5E6
:10163000390281632068C16B4CF23A329143C16335
:101640002068C16A21F00101C16228071DD515F08B
:10165000220F09D0206800F06BFD28B1A16B014377
:10166000A1632046FFF7C4FE216840F23A50886328
:1016700084F834702663A80703D0204600F0F4F9FC
:10168000F8BD204600F0F4F9F8BD2806FCD5A80600
:1016900009D5206800F04CFD28B1A16B0143A1637E
:1016A0002046FFF7A5FEA807EED12068C16A21F009
:1016B0000801C16284F83470E3E7416B490424D522
:1016C000290722D5D4E90856002EDDD05FF00007A7
:1016D00015F8010B009015F8011B361F40EA012098
:1016E000009015F8021B40EA0140009015F8011C1B
:1016F00040EA016000906946206800F08CFB7F1C86
:10170000082FE5D3C4E90856F8BD416B40F23A22F0
:101710001142F9D0416B890703D5A16B41F0020159
:10172000A163416B090703D5A16B41F00801A163D7
:10173000416B890603D5A16B41F02001A163416B88
:10174000C90603D5A16B41F01001A163416B890566
:1017500003D5A16B41F00801A16340F23A718163A6
:101760002068C16B40F23A329143C163206800F0B7
:10177000DFFCA16B0843A063280706D584F834700A
:1017800026632046FFF734FEF8BD2806FCD515F089
:10179000300F0CD0E16B11484863E06BFEF710FF8F
:1017A0000028F1D0E06BBDE8F84000F0A3BEA80728
:1017B0000CD0216C0A484863206CFEF701FF00281A
:1017C000E2D0206CBDE8F84000F06BBEA66384F860
:1017D000347026632046FFF78DFDF8BDF524000820
:1017E000A324000870B504000ED094F8340000253E
:1017F00018B92577204600F03BF8032084F8340020
:10180000204600F00BF808B1012070BDA5632563E8
:10181000012084F83400002070BD0000FEB50025D2
:10182000044676200095CDE9015029460B460A462C
:10183000206800F0C3FA08B10120FEBD0B4E46F847
:10184000A05F206800F0CCFA01253560204600F04A
:1018500055FF20B9204600F0D9FE0028EDD084F8CD
:101860003450A16B0143A163E6E700000000304261
:10187000F0B585B0002605460096019602960396BF
:1018800000682749884249D12649486940F4806068
:101890004861486900F480600490886940F0100055
:1018A0008861886900F010000490886940F0200089
:1018B00088618869022400F0200004904FF4F850F9
:1018C000CDE900040327694603971748FFF7FCF8A2
:1018D0000420CDE90004694603971448FFF7F4F8A3
:1018E000144C1348C4E900068020C4E9026080005B
:1018F00020618000C4E905062046E661FFF75CF838
:1019000008B1FEF7EBFC2C64EC6300221146312099
:101910006562FFF741FA3120FFF730FA05B0F0BDFC
:1019200000800140001002400010014000140140FE
:1019300044040240D80000202DE9F04786B01F463D
:101940000446154639B194F83400012807D0022026
:1019500006B0BDE8F087A06B40F0006008E0002012
:10196000A063E36DEA199A4204D9A06B40F00070BD
:10197000A0636FE0032284F8342022688246D0629C
:101980002268D36B40F22A363343D363236C324A46
:101990004FEA47299A62236C304A1A63226C4FEA55
:1019A0009903506320680A46266C00F18001304696
:1019B000FFF740F8DFF8A880012660B12068C16B0E
:1019C00021F49571C1632168C1F83880A06B40F0A3
:1019D0008040A06311E023480660606C012800D0BD
:1019E0006D024FF40071206800F04EFA40B1226899
:1019F000C2F83880A16B0143A16384F8346029E008
:101A00004FF0FF30CDE900099020029002200596AA
:101A1000CDE9030AD1466946206800F0B0F9012FEC
:101A200006D9822020632946206800F0C1FA05E02B
:101A3000812020632946206800F0D3FA002887D04F
:101A40002268C2F83880A16B0143A16384F8346036
:101A5000C4F8309001207BE76124000805240008C9
:101A6000FF0540008C05304210B5FEF701FC10BDAB
:101A700010B5FEF715FC10BD2DE9FF4F87B00446E9
:101A800008981F46164638B194F83400012807D04C
:101A900002200BB0BDE8F08FA06B40F0006008E0C2
:101AA0000025A563E16DF019884204D9A06B40F0D0
:101AB0000070A06361E0032084F834002068C562F0
:101AC0002068C16B40F21A2A41EA0A01C163E16B46
:101AD00032488862E16B32480863E06B4563606CB2
:101AE000012800D076024FF40071206800F0CCF994
:101AF000DFF8B0904FF0010840B12268C2F838908A
:101B0000A16B0143A16384F8348036E04FF0900B61
:101B1000012F06D9A02020633146206800F022FB67
:101B200005E0C4F830B03146206800F034FB40B125
:101B30002268C2F83890A16B0143A16384F8348015
:101B40001AE019484646C0F8008022687F02BB08A8
:101B5000E06B80320899FEF76DFF80B12068C16BA1
:101B600021EA0A01C1632168C1F83890A06B40F0F6
:101B70008040A06384F834602563012089E74FF03A
:101B8000FF30CDE90007CDE902B5CDE9045669463D
:101B9000206800F0F4F800207BE70000E72400084C
:101BA00005240008FF0540008C05304210B5401E9A
:101BB000B0F1807F01D3012010BD4FF0E0246061BF
:101BC0000F21601700F040FF0020A0610720206176
:101BD000002010BD70B5040004D094F83900002531
:101BE00010B106E0012070BD84F83850204600F0A6
:101BF00023F8242084F839002068C16821F40051BA
:101C0000C160204600F080FE2068016921F4904107
:101C100001612068416921F02A0141612068C168A1
:101C200041F40051C160E563202084F8390084F854
:101C30003A00002070BD000030B585B0002400944B
:101C400001940294039400681449884224D11448F2
:101C5000816941F480418161816901F4804104918D
:101C6000816941F00401816180690E4D00F004003A
:101C700004904FF400700090022001900320039024
:101C800069462846FEF720FF2815CDE9000469467D
:101C900028460294FEF718FF05B030BD0038014019
:101CA00000100240000801402DE9F843044690F876
:101CB00039001F4616460D4620284CD1C5B1BEB18D
:101CC00094F83800012846D0012084F838004FF0FD
:101CD0000008C4F83C80212084F83900FEF7F0FFAA
:101CE000A6848146E684A068B0F5805F03D004E056
:101CF0000120BDE8F883206928B12E465FF0000579
:101D000084F838800EE00026FAE78021204600F0B3
:101D100057FEA0B9AEB116F8010B21684860E08CFF
:101D2000401EE084E08C4B464FF0000200970028F4
:101D3000EBD14FF04001204600F042FE30B10320CD
:101D4000D7E735F8020BC0F30800E6E7202084F857
:101D500039000020CDE70220CBE7FEE710B50449AB
:101D60000448FEF7BDFA0249491E087010BD000084
:101D70003D000020C8410008FEE7FEE770470A6802
:101D800042624A688262D1E902231A43D1E90431EE
:101D90000B43C16A1A4321F0F7011143C1620020CD
:101DA0007047006800F003007047084440697047BE
:101DB0000148FFF713BC00005400002070B50DF17E
:101DC000100C11439CE870002343194329434268D7
:101DD000314347F6FF639A430A434260002070BDD7
:101DE00010B5032101600220FEF75CFE002010BD4B
:101DF000D0F8800070470A688260D1E901231A4355
:101E0000D1E903310B43C1681A436FF30B0111434E
:101E1000C160002070470968C0F88010002070473A
:101E200010B586B004463720CDE90010402002905E
:101E3000002003904FF48060049069462046FFF72D
:101E4000DAFF41F288323721204600F0BDF906B0B2
:101E500010BD000010B504460A4886B00143292091
:101E6000CDE9001040200290002003904FF48060E4
:101E7000049069462046FFF7BEFF204600F05CFA5A
:101E800006B010BD0000108010B586B004461020CA
:101E9000CDE9001040200290002003904FF48060B4
:101EA000049069462046FFF7A6FF41F288321021D0
:101EB000204600F089F906B010BD10B586B0044682
:101EC0000620CDE9001040200290002003904FF43E
:101ED0008060049069462046FFF78DFF41F288320A
:101EE0000621204600F070F906B010BD30B585B06F
:101EF00000240546009401944FF480600294CDE9DB
:101F0000034069462846FFF776FF0B484FF4FA5125
:101F10000068B0FBF1F041F288314843401E03D223
:101F20004FF0004005B030BD696B0906F6D5C520FD
:101F3000A8632046F6E700003800002070B585B0A1
:101F400004464FF4D570009001A9082040250026D2
:101F500081E86100C001049069462046FFF74BFF0D
:101F600012484FF4FA510068B0FBF1F041F28831A9
:101F70004843401E03D24FF0004005B070BD616B76
:101F800011F0450FF5D00905F3D4606B400701D57A
:101F9000042003E0606BC00702D00120A063ECE7DF
:101FA000606B400600D5A5633046E6E738000020A8
:101FB00010B586B004461220CDE9001040200290F2
:101FC000002003904FF48060049069462046FFF79C
:101FD00012FF41F288321221204600F0F5F806B0D7
:101FE00010BD10B586B004461120CDE90010402088
:101FF0000290002003904FF48060049069462046D0
:10200000FFF7F9FE41F288321121204600F0DCF89A
:1020100006B010BD10B586B004460720CDE90020FB
:1020200040200290002003904FF4806004906946A5
:102030002046FFF7E0FE41F288320721204600F0FB
:10204000C3F806B010BD10B586B0044600210220CA
:10205000CDE90010C020CDE902014FF4806004906A
:1020600069462046FFF7C7FE204600F03DF906B05E
:1020700010BD10B586B004460920CDE90010C0207F
:102080000290002003904FF480600490694620463F
:10209000FFF7B1FE204600F027F906B010BD10B5DD
:1020A00086B0044600213320CDE900104020CDE960
:1020B00002010001049069462046FFF79CFE41F2B0
:1020C00088323321204600F07FF806B010BD10B5ED
:1020D00086B004460D20CDE900104020029000207B
:1020E00003904FF48060049069462046FFF783FE1A
:1020F00041F288320D21204600F066F806B010BD8E
:1021000030B585B00C46054600210320CDE900100E
:102110004020CDE902010001049069462846FFF7FE
:102120006AFE22460321284600F028F905B030BD9A
:1021300010B586B0044600210C20CDE900104020E7
:10214000CDE902010001049069462046FFF753FEE5
:10215000034A0C21204600F037F806B010BD0000FD
:1021600000E1F50510B586B004461920CDE9001050
:1021700040200290002003904FF480600490694654
:102180002046FFF738FE41F288321921204600F040
:102190001BF806B010BD10B586B004461820CDE976
:1021A000001040200290002003904FF480600490C3
:1021B00069462046FFF71FFE41F28832182120466B
:1021C00000F002F806B010BD454B10B51B684FF487
:1021D000FA54B3FBF4F353435B1E02D24FF00040BA
:1021E00010BD426B12F0450FF6D01205F4D4426BCD
:1021F000520703D504218163084610BD426BD20704
:1022000002D00121816305E0C52282630269D2B256
:102210008A4201D0012010BD0021FFF7C6FD3149DF
:10222000084201D1002010BD002802DA4FF00070F2
:1022300010BD410001D5402010BD810001D5802096
:1022400010BDC10002D54FF4807010BD010102D550
:102250004FF4007010BD410102D54FF4806010BDF5
:10226000C10102D54FF4006010BD010202D54FF448
:10227000805010BD410202D54FF4005010BD8102C4
:1022800002D54FF4804010BDC10202D54FF400408A
:1022900010BD410302D54FF4003010BD810302D5BB
:1022A0004FF4802010BDC10302D54FF4002010BDB3
:1022B000010402D54FF4801010BD410402D54FF443
:1022C000001010BD810402D54FF4800010BD00073E
:1022D00002D54FF4000010BD4FF4803010BD000057
:1022E0003800002008E0FFFD12494FF4FA52096857
:1022F000B1FBF2F141F288325143491E02D24FF054
:1023000000407047426B12F0450FF6D01205F4D42E
:10231000416B490703D50421816308467047416B2F
:10232000C90703D00121816308467047C521816335
:1023300000207047380000200F494FF4FA52096816
:10234000B1FBF2F141F288325143491E02D24FF003
:1023500000407047426B12F0450FF6D01205F4D4DE
:10236000416B490703D50421816308467047C521A5
:1023700081630020704700003800002030B5204BFA
:102380004FF4FA541B68B3FBF4F341F2883463430F
:102390005B1E02D24FF0004030BD446B14F0450F7D
:1023A000F6D02405F4D4436B5B0703D50421816385
:1023B000084630BD436BDB0702D00121816303E097
:1023C0000369DBB28B4201D0012030BDC52181639E
:1023D0000021FFF7EAFC10F4604F04D0410406D559
:1023E0004FF4005030BD000C1080002030BD0004C0
:1023F00002D54FF4805030BD4FF4803030BD000026
:102400003800002010B5446A206C816BE06B806B53
:10241000012901D001281DD1216810488863206856
:10242000C16B21F49D71C163A06B40F08040A0633B
:102430002046FFF7BDF8062801D0052805D1206801
:10244000FFF776FEA16B0843A063012084F83400F7
:10245000002020632046FEF7CBFF10BDFF054000A3
:1024600010B5446A206B822809D12068FFF760FE0E
:1024700028B1A16B0143A1632046FEF7B9FF206894
:10248000C16A21F00801C162216840F23A508863B4
:10249000012084F83400002020632046FFF7E4FA8E
:1024A00010BD10B5446A40F23A5021688863204656
:1024B000FFF77EF8012184F83410002121630628FB
:1024C00001D0052805D12068FFF732FEA16B084333
:1024D000A063A06B0028204602D0FEF789FF10BD44
:1024E000FEF708FF10BD406A0068C16B41F48071BF
:1024F000C163704710B5446A40F23A50216888635E
:102500002046FFF755F8012184F83410002121639B
:10251000062801D0052805D12068FFF709FEA16B28
:102520000843A063A06B0028204602D0FEF760FF9E
:1025300010BDFEF7DFFE10BD2DE9F04F89B00D464E
:102540000446FEF7BDFB00268346009601963746FB
:1025500008212068FFF798FC002834D1B4F8500017
:1025600001042068FFF75CFC00282CD1401E4FF0CE
:102570000808CDE9020830204FF00209CDE904092E
:102580000120CDE9067002A92068FFF7F8FB20685A
:10259000FFF785FD002816D1EA4640F22A47206859
:1025A000416B394212D1416B890204D5FFF720FCFF
:1025B0004AF82600761CFEF783FBA0EB0B00401CBC
:1025C000EDD14FF0004009B0BDE8F08F416B090735
:1025D00003D5C0F838800820F5E7416B890703D59B
:1025E000C0F838900220EEE7416B890603D5202120
:1025F00081630846E7E740F23A518163019800BAE7
:102600002860009800BA68600020DCE710B590B040
:1026100004460120ADF838002068FFF7C2FB00280F
:1026200054D0606C032842D02068FFF70CFD0028CE
:102630004AD100212068FFF7B8FB606704212068B9
:10264000FFF7B3FBA06708212068FFF7AEFBE06748
:102650000C212068FFF7A9FBC4F88000606C0328F8
:1026600025D00EA92068FFF74BFD00282CD1606C07
:1026700003281CD0BDF83800206501042068FFF74E
:10268000F8FC002820D100212068FFF78EFB60664F
:1026900004212068FFF789FBA06608212068FFF766
:1026A00084FBE0660C212068FFF77FFB2067042194
:1026B0002068FFF77AFB000DE06403A92046FEF7CF
:1026C00099FE30B14FF0805010B010BD4FF08060D7
:1026D000FAE7B4F85000002302042068FFF79AFCE0
:1026E0000028F1D104F1100007C88DE8070094E834
:1026F0000F00FFF763FB0020E6E700002DE9F84F2D
:102700000026044600963546B0460068FFF7EEFB0B
:10271000002827D12068FFF711FC4FF0805B4FF0B5
:1027200001094FF6FF7748B1A6642068FFF7DEFB8A
:10273000002817D1A06C012802D020E0C4F84890EE
:1027400000212068FFF76CFB58B918E000212068D1
:10275000FFF766FB002805D151462068FFF77AFB9A
:1027600010B15846BDE8F88F00212068FFF71DFB27
:1027700005464FEAD0780098401C009002E0DFF850
:102780002CA00098B84202D2B8F1000FDED0009819
:10279000B84202D34FF08070E4E7680002D5C4F875
:1027A000449000E066640020DCE70000000010C1F7
:1027B00010B5064C01202070FDF724FD18B92078D3
:1027C00020F001002070207810BD00004C00002097
:1027D00010B5124888B014460078C00702D0032014
:1027E00008B010BDB9B1012905D0022908D00329CC
:1027F0000CD00420F4E76846FDF7F2FC069809E0E7
:102800006846FDF7EDFC0798208004E06846FDF778
:10281000E7FC079820600020E2E700004C00002061
:1028200070B5164608460125084C1A463146FDF794
:1028300009FD20B108E0641E01D2012070BDFDF742
:10284000D5FC0028F7D10025284670BDA0860100E0
:1028500010B5064C01202070FDF7C8FC18B920788F
:1028600020F001002070207810BD00004C000020F6
:1028700070B5164608460125084C1A463146FDF744
:10288000F9FC20B108E0641E01D2012070BDFDF703
:10289000ADFC0028F7D10025284670BDA0860100B8
:1028A0007047FEF713BA30B58FB028216846FDF7A0
:1028B00062FC14210AA8FDF75EFC01210804CDE9A1
:1028C00000100024029402250491CDE907504FF432
:1028D000E01009906846FEF77DFB08B172B6FEE78E
:1028E0000F20CDE90A054FF48060CDE90C400221AC
:1028F0000AA80E94FEF782FA002801D072B6FEE70D
:102900000FB030BD7047000070B504460068016923
:10291000E26821F44051114301612169A068084334
:10292000616908432168CA6841F20C639A43024313
:10293000CA6020684169A26921F440711143416174
:102940001E492068884202D1FEF7FEFA01E0FEF738
:10295000EBFA00EBC00101EB00126068642180001B
:10296000B2FBF0F3B3FBF1F36FF018067343B2FB65
:10297000F0F5B2FBF0F605EB8305322303EB05150A
:10298000B5FBF1F5B6FBF1F605F0F00505EB061524
:10299000B2FBF0F6B2FBF0F0B0FBF1F06FF0180212
:1029A000504306EB800003EB0010B0FBF1F0216810
:1029B00000F00F002844886070BD0000003801401E
:1029C0002DE9F041984617460E460446069D1DE047
:1029D000681C1BD02DB1FEF773F9A0EB0800A842CC
:1029E00014D92068C16821F4D071C16020684169A0
:1029F00021F001014161202084F8390084F83A0077
:102A0000002084F838000320BDE8F08120680068C9
:102A100036EA000004D00020B842D9D00020F3E705
:102A20000120F9E7FEE700000FB4054B10B503A93C
:102A3000044A029800F028F810BC5DF814FB00006E
:102A40009D3B0008500000200907090E002804DB08
:102A500000F1E02080F80014704700F00F0000F152
:102A6000E02080F8141D704702E008C8121F08C15A
:102A7000002AFAD170477047002001E001C1121FFF
:102A8000002AFBD1704700002DE9FF4F8BB09A461A
:102A90000F460546002606E025280BD052460D9924
:102AA00090476D1C761C28780028F5D10FB0304671
:102AB000BDE8F08F0024A0460122604900E00443F5
:102AC00015F8013F203B02FA03F00842F7D12878BD
:102AD0002E2817D115F8010F44F004042A280ED02F
:102AE0006FF02F022878A0F1300109290AD808EBED
:102AF000880102EB410100EB01086D1CF2E757F879
:102B0000048B6D1C287869283ED006DC0028CDD0C7
:102B100063280BD0642804D136E0732810D07528C0
:102B20004BD052460D999047761C85E017F8040B60
:102B30008DF8000000208DF80100E946012003E037
:102B400057F8049B4FF0FF3061074FF0000401D4A9
:102B50000AE0641C44450DDA8442FADB19F80410DB
:102B60000029F6D106E0641C8442FCDB19F804104D
:102B70000029F8D1264404E019F8010B52460D99BA
:102B80009047641EF8D257E001CF4FF00A0B00289F
:102B900002DA40422D2102E0210504D52B218DF8D7
:102BA0002410012103E0E10705D02021F7E70DF112
:102BB000200908910CE00021F9E701CF4FF00A0B42
:102BC000F9E75946FDF7E2FA01F1300209F8012D63
:102BD0000028F6D1ADEB090000F1200B600701D40D
:102BE0004FF00108D84502DDA8EB0B0000E0002003
:102BF0008046002406E009A85246005D0D999047E2
:102C0000641C761C08988442F5DB04E030205246B0
:102C10000D999047761CB8F10001A8F10108F5DC88
:102C200005E019F8010B52460D999047761CBBF14F
:102C30000001ABF1010BF4DC6D1C34E70928010045
:102C400010B50446002084F80402401EC4F82C028B
:102C5000204601F0F3F808B1032010BDB4F8FE01DE
:102C6000A0F52A41553901D0022010BD94F8360054
:102C7000B4F8371040EA01210848B0EB012F08D022
:102C800094F85210B4F8532041EA0221B0EB012F1E
:102C900001D1002010BD012010BD000000464154AC
:102CA000F0B50022184B144602EB420653F82650AA
:102CB00085B1D0F80072BD420DD103EB8605D0F886
:102CC00008626F68B74206D12D89B0F80662B54236
:102CD00004D000E00124521C022AE5D3022A01D0CC
:102CE00079B904E05CB9022909D01220F0BD02EBE9
:102CF000420003EB80004089B0F5807F01D00020C6
:102D0000F0BD1020F0BD00001C26002030B50021D1
:102D1000064A0C4601EB410352F82350854201D18B
:102D200042F82340491C0229F4D330BD1C26002060
:102D3000D0F82422D0F80002490A90F80202B1FB30
:102D4000F0F0121D02CA19B1884203D3401AF8E705
:102D500000207047116808447047D0F81422891E7B
:102D6000921E8A4201D800207047D0F8282290F89D
:102D7000020201FB002070472DE9F0410F000546DB
:102D800006D000F017FF02280BD20120BDE8F08129
:102D9000D5F80C621EB1D5F81402B04208D801264D
:102DA00006E0411CF2D0D5F814128142EED83E461E
:102DB0003446D5F81402641CA04202D80224022E24
:102DC0000AD32146284600F0F5FE38B1411CDDD07B
:102DD0000128DBD0B442ECD10020D7E76FF070427D
:102DE0002146284601F045F830B957B12246394608
:102DF000284601F03EF820B1012812D001242046D7
:102E0000C4E7C5F80C42D5F81002411CF7D0401EAB
:102E1000C5F8100295F8050240F0010085F805029A
:102E2000EDE74FF0FF34EAE72DE9F04789460D68FA
:102E300000E06D1C29782F29FBD05C29F9D0D0F84F
:102E400018420B222021204600F0F1FF002001460D
:102E50000B460826EA5C5B1C202A49D92F2A47D05A
:102E60005C2A45D02E2A01D0B14208D3082E4CD17D
:102E70002E2A4AD108210B268006000EEAE7802A76
:102E800001D340F00300A2F181077D2F13D8EF5C3E
:102E90005B1CA7F1400CBCF13F0F04D3A7F1800CE1
:102EA000BCF17F0F31D2A6F1010C61452DD26254E5
:102EB000491C67541AE021A700E07F1C97F800C066
:102EC000BCF1000F02D09445F7D11EE0A2F14107FA
:102ED000192F02D840F0020007E0A2F16107192F74
:102EE00003D8203A40F00100D2B26254491CB1E745
:102EF0001D44C9F80050202A01D8042200E0002215
:102F000019B12178E52903D004E00620BDE8F08757
:102F100005212170082E01D18006000E00F003016A
:102F2000012901D142F01002C0F38100012801D132
:102F300042F00802E2720020E8E70000222A2B2C6F
:102F40003A3B3C3D3E3F5B5D7C7F0000401E0228DB
:102F500015D20C4B00EB400203EB82014889B0F51F
:102F6000807F05D008B1401E80B2488110B104E0D6
:102F70000020FAE7002043F82200002070470220DA
:102F8000704700001C2600202DE9F041B0F80662D1
:102F90000446761C30040F46000C37D0D4F81002DB
:102FA00098B3310773D1401CC4F81002D4F80C1246
:102FB000D4F8000231B190F80222521E12EA161F14
:102FC00005D064E0B0F80802B0421FD95FE000F01D
:102FD000F1FD054601281ED9681C3AD0D4F800023C
:102FE000D0F81412A94249D87FB1D4F80C12FFF7D7
:102FF000C3FE05000DD0012D0DD0681C29D0D4F8DA
:10300000000201F08EF820BB07E0FFE70420BDE8D6
:10301000F0810720FBE70220F9E74FF4007200215E
:10302000D4F8000200F003FF2946D4F80002FFF7AD
:1030300094FED4F8001200274FF00108C1F82C02CA
:1030400011E000BF80F80482D4F8000201F069F8B2
:1030500008B10120DBE7D4F80002D0F82C12491C9B
:103060007F1CC0F82C12D4F8000290F80212B9426A
:10307000E8D8D0F82C12C91BC0F82C12C4F80C5296
:103080002946D4F80002FFF768FEC4F81002A4F83D
:103090000662D4F8000206F00F0100EB4110C4F8FC
:1030A00014020020B3E770B50446002100F036F8A2
:1030B00010E0D4F81012D4F8000200F0BFFE58B9A6
:1030C000D4F814020078E52809D040B10121204647
:1030D000FFF75AFF0028ECD0042809D009E0D4F803
:1030E0001012D4F8000200F0A9FE050003D013E08E
:1030F0000720054610E0D4F814022022002104F530
:10310000007400F094FED4E905010B2200F086FE65
:103110002168012081F80402284670BD70B5A0F82E
:103120000612D0F808320D460446012B40D0D4F8E0
:103130000002D0F8141299423AD933B990F800122B
:10314000032906D1D0F824321BB190F802020601FF
:1031500014E0B0F80812A9422AD9D0F8240214E0E9
:1031600000F028FD0346401C20D0022B20D3D4F8C9
:103170000002D0F8140298421AD9AD1BD4F800020C
:10318000B5421946ECD2FFF7E8FDC4F80C3278B12D
:1031900000EB1510C4F81002D4F8000205F00F017E
:1031A00000EB4110C4F81402002070BD012070BD76
:1031B000022070BD084910B50B5C002253B90122F2
:1031C0000A540A1801EB8000127A40680168104620
:1031D00088470246104610BD3426002030B4054C06
:1031E000231804EB80001B7A406804691846A44643
:1031F00030BC60473426002030B4054D2C1805EB58
:103200008000247A406885682046AC4630BC604720
:1032100034260020044A111802EB8000097A406825
:1032200042680846104700003426002030B4054D9F
:103230002C1805EB8000247A4068C5682046AC460F
:1032400030BC60473426002010B5044600F0D6F9A3
:1032500000280DD1204600F094FF002808D1D4F8B2
:103260002802FFF773FE002802D10021C4F80012E3
:1032700010BD00002DE9F74181B090460298009002
:10328000684600F0F8FC040003D50B2004B0BDE84C
:10329000F0810E4E002756F8245025B12846FFF73E
:1032A00035FD85F800720198002801D080F8007281
:1032B00046F8240002D0B8F1010F01D00020E5E764
:1032C000002202A901A800F0DDFADFE74800002093
:1032D0002DE9F747ADF50B7D06000ED04FF0000845
:1032E00002F01F0727F001028CA980A8C6F800820F
:1032F00000F0C8FA040005D0B3E009200DF50E7DFA
:10330000BDE8F08788A8869068468C9900F0E6FBB7
:10331000859D04000BD11DB1780803D0012102E086
:10332000062404E000216846FFF7BAFC044617F0C3
:103330001C0F5ED04FF0010AD4B1042C13D1002031
:103340004A4902E0401C022805D200EB400251F835
:103350002220002AF6D1022804D06846FFF7A3FEF7
:10336000044600E01224859D47F0080754B178E038
:10337000E87A10F0110F01D0072472E0780701D528
:1033800008246EE0380742D585F80E8085F80F8056
:10339000C42129744621697485F80B8085F81C8046
:1033A00085F81D8085F81E8085F81F802946809845
:1033B00000F0D0FC81460021284600F04FFE8099A5
:1033C000B9F1000F81F804A21FD080984946D0F8C7
:1033D0002CA200F0CAFD040043D18099A9F101009C
:1033E000C1F80C025146809800F028FD04000AD074
:1033F00037E0B4BBE87AC10601D5042431E0B9074F
:1034000001D5C007B8D1380701D547F0200780980B
:10341000D0F82C02C6E98705780801D0012100E028
:103420000021684600F046FCC6F82802D8B186F8AC
:10343000067286F807824746294606F50076809888
:1034400000F088FC3061287FD5F81D1040EA01208B
:10345000C6E90270B761776280983060B0F8060202
:10346000B08020464AE70224FBE700001C2600202B
:103470002DE9F84F88460021994615460446196003
:1034800000F07FFE002812D194F8070200280ED128
:1034900094F80602C00709D0D4E98201081A01276E
:1034A0004FF0020A854200D90546A2E00720BDE898
:1034B000F88F00BFD4F80812C8057CD1D4F80002F8
:1034C00090F80222521E02EA512212F0FF0614D195
:1034D00031B1D4F8242232B12046FFF729FC06E0AE
:1034E000D4F8100203E0D4F8141200F063FB0228B1
:1034F00023D3411C5BD0C4F81402D4F81412D4F8BE
:103500000002FFF72AFCC0B130440090680A5FEA6D
:10351000000B2AD0D4F8001206EB0B0291F802023D
:10352000824201D9A0EB060B91F801025B464146AD
:10353000009AFFF761FED0BB03E084F807A20220E7
:10354000B5E794F8060240060CD5D4F81812009896
:10355000081A584506D208EB40204FF40072214665
:1035600000F05CFC4FEA4B2637E0D4F818220098B4
:10357000824221D094F8060240060ED5D4F800020B
:103580000123214690F80102FFF750FE78B994F824
:10359000060220F0400084F80602D4F8000201235D
:1035A000214690F80102009AFFF726FE20B184F828
:1035B000077201207BE702E00098C4F81802B4F813
:1035C0000802C0F30800C0F50076AE4200D92E46CE
:1035D00001193246404600F021FCD4F80802B044FC
:1035E0003044C4F80802D9F800008119AD1BC9F8AD
:1035F0000010002D7FF45EAF002058E770B5044640
:1036000000F0BFFD002811D194F806128A060DD5EE
:10361000480612D5D4F800020123214690F8010291
:10362000D4F81822FFF702FE08B1012070BD94F80B
:10363000060220F0400084F80602D4F81C12D4F8E8
:10364000000200F0FBFB0028F0D1D4F82052E87A09
:1036500040F02000E87294F80C022877B4F80C02CD
:10366000000A6877D4F80C02000CA877D4F80C0292
:10367000000EE877D4F81012284604F5007400F024
:10368000EDFC0020A875E875C421297646216976ED
:10369000A874E874A07920F02000A07121680120AE
:1036A00081F804022068BDE8704000F0DFBC2DE91D
:1036B000F84F88460021994615460446196000F0E7
:1036C00060FD002808D194F80702002804D194F87E
:1036D0000602800702D40720BDE8F88FD4F808025C
:1036E000012741194FF0020A81427BD3B9E0D4F897
:1036F0000812C80577D1D4F8002292F80202401EC1
:1037000000EA512010F0FF061ED131B1D4F8240296
:1037100040B12046FFF70CFB09E0D4F8100240B995
:10372000002101E0D4F814121046FFF725FB002811
:1037300058D001283DD0411C6CD0C4F81402D4F8F4
:10374000101209B9C4F8100294F80602400610D508
:10375000D4F800020123214690F80102D4F818227F
:10376000FFF764FDE8BB94F8060220F0400084F8FF
:103770000602D4F81412D4F80002FFF7EEFAC0B132
:1037800030440090680A5FEA000B30D0D4F80002A1
:1037900006EB0B0290F802128A4201D9A1EB060B4C
:1037A00090F801025B464146009AFFF73FFDC0B921
:1037B00003E084F807A202208EE7D4F818120098DC
:1037C000081A58450CD208EB40214FF400722046ED
:1037D00000F024FB94F8060220F0400084F8060272
:1037E00002E017E040E01CE04FEA4B262DE0D4F861
:1037F00018120098814211D0D4E9820188420DD27A
:10380000D4F800020123214690F80102009AFFF744
:10381000F3FC18B184F8077201205DE70098C4F842
:103820001802B4F80802C0F30800C0F50076AE42F2
:1038300000D92E4620443246414600F0EFFA94F873
:10384000060240F0400084F80602D4F80802B044B2
:103850003044C4F80802D9F800008119AD1BC9F83A
:103860000010002D7FF443AFD4E98201884201D9D2
:10387000C4F80C0294F8060240F0200084F8060216
:10388000002029E72DE9FF474FF000090746C0F85F
:1038900000901646084600F0EEF9050003D50B200F
:1038A00004B0BDE8F0878A4850F82540A4B13C60D8
:1038B00094F8000228B194F80102FFF7ABFCC107AD
:1038C0000CD084F80092E8B284F80102FFF772FC91
:1038D000C10708D00320E3E70C20E1E70EB1400761
:1038E00004D40020DCE71EB1400701D50A20D7E749
:1038F000002529462046FFF7A3F9012823D10020FF
:103900004FEA0D0704EB001191F8C22101F5DF71B8
:103910002AB10A7AD1F8091042EA012100E0002117
:1039200047F82010401C0428ECD3002657F82650F6
:103930002DB129462046FFF783F908B909E0022096
:10394000761C042EF2D3032801D0E0BB01E0012055
:10395000A6E7B4F80B00B0F5007F60D1E28A2AB97F
:1039600094F82400D4F8251040EA0122C4F8182263
:10397000217C84F80312012901D002294FD1607BF8
:10398000514384F80202F0B1431E184247D1B4F803
:103990001130A4F808321E0741D1B4F813602EB9D3
:1039A00094F82060D4F8217046EA0726B4F80EC0D7
:1039B000BCF1000F33D00CEB010707EB1317BE422D
:1039C0002DD3F61B00E02AE0B6FBF0F038B3012659
:1039D00040F6F678404500D302264FF6F67840458B
:1039E00000D30326801C2F44C4F82872AC44C4F8CA
:1039F0001402C4E9875C032E13D083B16144C4F878
:103A00002412022E19D000F0010100EB400001EB5E
:103A1000500000BF00F2FF10B2EB502F0FD20D206C
:103A20003EE7002BFBD194F82C10D4F82D30800009
:103A300041EA0321C4F82412ECE74000EAE74FF022
:103A4000FF30C4F81002C4F80C02802084F805028C
:103A5000032E30D1208E01282DD12046691C00F084
:103A6000EDF940BB84F80592B4F8FE01A0F52A41B7
:103A7000553920D12078D4F8011040EA01201549A9
:103A8000884218D194F8E401D4F8E51140EA012005
:103A9000114988420FD194F8E801D4F8E91140EABD
:103AA0000120C4F8100294F8EC01D4F8ED1140EABA
:103AB0000120C4F80C02064984F80062091F088836
:103AC000401C0880A4F806022046FFF71FF908E70B
:103AD00048000020525261417272416173B5044640
:103AE000019908782F2801D05C2801D1491C019147
:103AF0000025C4F8085201980078202806D2002139
:103B00002046FFF70BFBC4F814527CBD01A92046E8
:103B1000FFF78AF90028F8D100212046FFF7FEFAC6
:103B200020BB00BFD4F81012D4F8000200F086F9D0
:103B3000E0B9D4F814120A7832B1CA7A12070FD455
:103B40000A23D4F8182203E004200FE05B1E06D3FA
:103B500011F8015B12F8016BAD1BF7D000E02DB13D
:103B600000212046FFF710FA0028DBD0D4F8181205
:103B7000C97A28B10428C8D14907C6D405207CBD1C
:103B80004907FCD4D4F81412C87AC006F6D5D4F884
:103B9000000200F0DFF8C4F80802B7E713B54FF6EB
:103BA000FF73012269460248FEF77EF800981CBDAB
:103BB0001C0100202DE9F0410D46044602290DD3D9
:103BC000D4F81402A84209D994F800024FF0FF3645
:103BD000012807D002282AD0032836D001263046F3
:103BE000BDE8F081D4F8200205EB550700EB572122
:103BF000204600F023F90028F1D1C7F308007F1C0C
:103C000014F80080D4F8200200EB5721204600F081
:103C100015F90028E3D1C7F30800215C48EA012028
:103C2000E90701D00609DAE7C0F30B06D7E7D4F8B5
:103C3000200200EB1521204600F000F90028CED12B
:103C4000E8B204EB40000688C9E7D4F8200200EB94
:103C5000D511204600F0F2F80028C0D140F2FF1044
:103C600000EA850020440178D0F8010041EA0020F4
:103C700020F07046B3E710B504464FF0FF302268DD
:103C8000002A13D0114600E0491C0B78212B0ED3DB
:103C90003A2BF9D112F8013B303B0A2B06D28A426B
:103CA00004D1002B02D1491C1846216010BD002010
:103CB00010BD0000F0B50346254AD3F800420020AD
:103CC00000EB400552F82560A6420BD102EB8505BA
:103CD000D3F808626F68B74204D12D89B3F8066241
:103CE000B54202D0401C0228EAD302281AD1002093
:103CF00002E0401C022805D200EB400552F8255096
:103D0000002DF6D1022815D000EB400542F82540E1
:103D100002EB8504D3F808626660B3F806322381AB
:103D200000236381002900EB400102EB81014989F6
:103D300002D019B10020F0BD491C01E04FF48071A0
:103D400000EB400302EB8302401C5181F0BD0000F8
:103D50001C2600200246488B92F80022032A02D13A
:103D6000898A40EA0140704708B5FCF7B7FFFEF7C3
:103D70009AFD2648816941F010018161816901F055
:103D800010010091816941F004018161816901F0B4
:103D900004010091816941F020018161816901F094
:103DA00020010091416941F0020141614069002216
:103DB00000F00200009002213B20FCF7EDFF3B20C9
:103DC000FCF7DCFF13491248042208600020486019
:103DD0008860C8600861C1E90502C8310E4A0A60FE
:103DE0004FF4E132C1E901200C22C860C1E90402AC
:103DF0008861C8610846FDF7EDFE08B172B6FEE7BE
:103E0000FDF7ACFFFCF790FAFEE70000001002405F
:103E100000800140540000200038014004E000BF51
:103E200011F8013B00F8013B521EF9D27047C9B2AC
:103E300001E000F8011B521EFBD2704770B5054629
:103E4000D0F82C020C460026A04210D0284600F0E4
:103E500068F906000BD195F8010201232246294694
:103E6000FFF7CAF908B1741E0126C5F82C42304686
:103E700070BD2DE9F04717460D460446022903D3CD
:103E8000D4F81402A84202D80220BDE8F08794F8C2
:103E9000001207F0FF084FF00109012920D0022984
:103EA00050D00329F0D1D4F8200200EBD5112046E0
:103EB000FFF7C4FF0028E8D140F2FF1101EA8501B5
:103EC0000A194FF07043D2F8011003EA0121394377
:103ED00011700B0A53700B0C9370090ED17041E0F6
:103EE000D4F8200205EB550600EB56212046FFF7DB
:103EF000A5FF0028C9D1C6F30800761C2044E907B5
:103F000003D0017868F31F1100E03946017084F88E
:103F10000492D4F8200200EB56212046FFF78EFFD2
:103F20000028B2D1C6F308012144EA0702D0C7F342
:103F3000071205E00A78C7F3032302F0F0021A43E0
:103F40000A700FE0D4F8200200EB15212046FFF79D
:103F500075FF002899D1E9B204EB41013A0A81F8D2
:103F600000804A7084F804928FE72DE9F0410F46F3
:103F70000646022917D3D6F81402B84213D90025F1
:103F800023E039463046FFF715FE040021D0012C0E
:103F900009D0601C09D0002239463046FFF769FF7E
:103FA000050016D103E0022513E0012511E0D6F843
:103FB0001002411C08D0401CC6F8100296F80502F9
:103FC00040F0010086F805022746D6F81402B842F0
:103FD000D7D82846BDE8F08170B50546C06BFCF720
:103FE00087FB0C4C0A488021206000206060C4E9F7
:103FF0000201890021618900C4E90510E0612046C1
:10400000FCF7DAFC08B172B6FEE72C64656270BD9D
:1040100044040240D800002070B50546006CFCF74F
:1040200067FB0D4C0B488021206010206060002051
:10403000C4E90201890021618900C4E90510E06139
:104040002046FCF7B9FC08B172B6FEE7EC63656286
:1040500070BD000044040240D800002081760A0AA6
:10406000C2760A0C0275090E4175704770B5044698
:1040700000F057F8050052D194F80002032846D109
:1040800094F80502012842D1420200212046FFF7A0
:10409000CEFE552084F8FE01AA2084F8FF015220AC
:1040A000207060706120A0704121E170722284F85C
:1040B000E42184F8E52184F8E61184F8E701D4F8D6
:1040C000100284F8E801010A84F8E911010C84F86F
:1040D000EA11000E84F8EB01D4F80C0284F8EC012C
:1040E000010A84F8ED11010C84F8EE11000E84F839
:1040F000EF01D4F81C220123521CC4F82C2294F89E
:1041000001022146FFF792F8002084F80502002200
:1041100094F801021146FFF761F800B10125284625
:1041200070BD2DE9F041044690F80402002728B341
:10413000D4F82C5294F8010201232A462146FFF7B5
:1041400075F808B1012719E0002084F80402D4F8BA
:104150002002D4F81812281A88420FD294F8036269
:104160000AE0D4F818020123054494F801022A4613
:104170002146FFF75BF8761E022EF2D23846BDE8E4
:10418000F08110B588B1D0F8001271B191F8002219
:104190005AB1B1F80622B0F80402824205D191F872
:1041A0000102FFF737F8C00700D0092010BD00005A
:1041B00000000000000001020304060708090000D7
:1041C0000000010203040000B12700085128000884
:1041D0002128000871280008D1270008FC410008A8
:1041E0000000002054000000682A00085042000827
:1041F00054000020EC350000782A00080000000080
:1042000000000000546869732069732053544D33D3
:104210003220776F726B696E672077697468204609
:1042200061744673000000000100000010000000EF
:10423000000000000024F400000000000000000066
:10424000000000000000000001000000000000006D
:0400000508000131BD
:00000001FF
