:020000040800F2
:1000000070090020450100085B170008E112000894
:1000100059170008B10100085F190008000000002E
:10002000000000000000000000000000F9180008B7
:10003000EB010008000000005D170008FB18000835
:100040005F0100085F0100085F0100085F01000810
:100050005F0100085F0100085F0100085F01000800
:100060005F0100085F0100085F0100085F010008F0
:100070005F0100085F0100085F010008B50100088A
:100080005F0100085F0100085F0100085F010008D0
:100090005F0100085F0100085F0100085F010008C0
:1000A0005F0100085F0100085F0100085F010008B0
:1000B0005F0100085F0100085F0100085F010008A0
:1000C0005F0100085F0100085F0100085F01000890
:1000D000611700085F0100085F0100085F01000868
:1000E0005F0100085F0100085F0100085F01000870
:1000F0005F0100085F0100085F0100085F01000860
:100100005F0100085F0100085F0100085F0100084F
:100110005F0100085F0100085F0100085F0100083F
:100120005F0100085F0100085F0100085F0100082F
:10013000DFF80CD000F02AF800480047A1190008A9
:10014000700900200648804706480047FEE7FEE7A2
:10015000FEE7FEE7FEE7FEE7FEE7FEE7FEE7FEE777
:100160005D19000831010008D2B201E000F8012B4E
:10017000491EFBD270470022F6E710B513460A4627
:1001800004461946FFF7F0FF204610BD064C074D08
:1001900006E0E06840F0010394E807009847103457
:1001A000AC42F6D3FFF7C8FF1C1A00083C1A00083F
:1001B000FEE70000014800F0B7B80000A8000020EA
:1001C00030B590F840500124AC40C56B6C600468B9
:1001D00063604368102B036803D099600068C260B5
:1001E00030BD9A600068C16030BD704772B6FEE7EE
:1001F0002DE9F05F90F821100024022903D004219A
:100200008163012485E001680A6822F00E020A6019
:1002100001680A6822F001020A603F4E3E4FB215A3
:10022000DFF8F4C0DFF8F090DFF8ECA0DFF8E8B01A
:10023000DFF8E4E00168783F13011502ACF1640CCB
:10024000A9F15009AAF13C0AABF1280BAEF1140E4A
:100250004FF48018B14227D9B9420ED0614512D06F
:1002600049451DD0514518D0594518D0714501D187
:10027000424615E0294EB14201D1012210E0274E3D
:100280001436B14201D110220AE0244E2836B14280
:1002900006D0224A3C32914201D11A4600E02A4659
:1002A0001E49091F0A602BE0B94213D0614517D0DF
:1002B000494522D051451DD059451DD0714501D128
:1002C00042461AE0B14202D14FF0807215E0134E5F
:1002D000B14201D1012210E0104E1436B14201D1D9
:1002E00010220AE00D4E2836B14206D00B4A3C32AD
:1002F000914201D11A4600E02A46074980394A60F6
:10030000012180F82110002180F82010416B01B1FB
:1003100088472046BDE8F09F800002400804024064
:1003200090F82100704700002DE9F05FC16B0A686A
:1003300001680B68046C4FF0040808FA04F8844D57
:10034000844E854FDFF814C2DFF81492DFF814A250
:10035000DFF814B2DFF814E218EA020F65D05FEAA2
:10036000437862D50A68920603D40A6822F0040230
:100370000A60DFF8F0814FF48062016808F1140828
:1003800013011402414524D9A9420DD0B1420FD026
:10039000B9421AD0614515D0494515D0514501D112
:1003A000120312E0594501D104220EE0714501D13A
:1003B00040220AE06D4D1435A94206D06B4A28321E
:1003C000914201D11A4600E022466749091F0A609E
:1003D00029E0A94213D0B14215D0B94220D06145DD
:1003E0001BD049451BD0514502D14FF4800217E084
:1003F000414502D14FF0806212E0594501D10422FB
:100400000EE0714501D140220AE0584D1435A94251
:1004100006D0564A2832914201D11A4600E02246BF
:100420004B4908394A60C16A71E04FF0020808FA86
:1004300004F818EA020F70D05FEA83786DD50A6875
:10044000920606D40A6822F00A020A60012180F8A6
:100450002110DFF810814FF40072016808F11408D0
:1004600013011402414524D9A9420DD0B1420FD045
:10047000B9421AD0614515D0494515D0514501D131
:10048000120312E0594501D102220EE0714501D15B
:1004900020220AE0354D1435A94206D0334A2832CD
:1004A000914201D11A4600E022462F49091F0A60F5
:1004B00029E0A94213D0B14215D0B94220D06145FC
:1004C0001BD049451BD0514502D14FF4001217E013
:1004D000414502D14FF0007212E0594501D102228C
:1004E0000EE0714501D120220AE0204D1435A942C9
:1004F00006D01E4A2832914201D11A4600E0224617
:10050000134908394A60002180F82010816A0029C7
:100510001CD0BDE8F05F0847FFE70825A54015425D
:1005200014D01A0712D50A6822F00E020A6090F859
:100530004020C36B012101FA02F25A60816380F806
:100540002110002180F82010016BE0E7BDE8F09F4A
:10055000080002401C0002403000024044000240FB
:10056000580002406C000240080402401C04024093
:1005700030B560B11A4B026814219A4209D2194B66
:100580001344B3FBF1F18900016417490AE001202B
:1005900030BD134B5B421344B3FBF1F1890001649E
:1005A0000F490839C163022180F82110136843F60E
:1005B000F0718B43F0E901142143D0E902452C434B
:1005C0002143046921434469214384692143194338
:1005D000116000214163012242770177084630BD56
:1005E00008040240F8FFFDBF0000024070B5044659
:1005F00090F82000002501280CD0012084F820006C
:1006000094F821600020012E06D084F820000225F5
:10061000284670BD022070BD022684F82160A063C8
:100620002068066826F0010606602046FFF7C8FD30
:10063000E06A00282068016802D041F00E0106E05F
:1006400021F0040101602068016841F00A010160A5
:100650002068016841F001010160D9E770B50446E6
:1006600000F010F90546601C02D0044800780444EC
:1006700000F008F9401BA042FAD370BD0000002032
:100680002DE9F84FDFF8C891002409F1040A0AF1B6
:10069000040B23460F270BF1040ED1E00125A540E2
:1006A00006EA0502AA4276D1DFF8A8C14E68A6EB99
:1006B0000C0866452BD00DDC032E34D005DC36B398
:1006C000012E19D0022E2FD11BE0112E16D0122E82
:1006D0002AD119E0B8F5881F19D006DCB8F5803F9B
:1006E00015D0B8F5801F1FD111E0B8F5001F0ED04E
:1006F000B8F5041F18D10AE0CB6815E0CB681B1DC4
:1007000012E0CB6808330FE0CB680C330CE08B6849
:100710002BB1012B4FF0080303D0456104E0042303
:1007200002E0056100E00023FF2A01D8064601E04F
:1007300000F104064FEA840501D9A5F12005D6F899
:10074000008007FA05FC28EA0C0803FA05F548EAD8
:100750000508C6F800804D68ED0070D53E4DAE69C5
:1007600046F00106AE61AD6924F0030605F001050F
:1007700000953A4D06EB050CDCF80850A607360F3D
:1007800007FA06F825EA0805DFF8D480404503D1CA
:100790004FF0000825E052E0DFF8C880404502D164
:1007A0004FF001081DE0DFF8C080404502D14FF056
:1007B000020816E0DFF8B480404502D14FF003088C
:1007C0000FE0DFF8AC80404502D14FF0040808E0AC
:1007D000DFF8A080404502D14FF0050801E04FF05E
:1007E000060808FA06F848EA0508CCF808804D68BB
:1007F000D9F80060ED034D4601D5164300E096435D
:100800002E604D68DAF80060AD03554601D51643F9
:1008100000E096432E604D68DBF80060ED025D4617
:1008200001D5164300E096432E604D68DEF8006067
:10083000AD02754601D5164300E096432E60641C58
:100840000A681646E2407FF429AFBDE8F88F000041
:10085000000401400000111000100240000001409F
:1008600000080140000C014000100140001401404C
:1008700000180140001C01400AB1016170470904E1
:10088000FBE700000148806870470000000000207E
:10089000024881680278114481607047000000209E
:1008A000074810B5016841F010010160032000F015
:1008B00057F8002000F006F800F024F8002010BDE2
:1008C0000020024070B50D4D04464FF47A7128782F
:1008D000B1FBF0F00A490968B1FBF0F000F0ECFC64
:1008E00048B9102C07D200222146501E00F018F8FB
:1008F00000206C6070BD012070BD00000000002071
:100900000C0000207047002809DB00F01F020121C5
:1009100091404009800000F1E020C0F800117047CC
:10092000F0B40E4B1B680C46C3F30223C3F107055A
:10093000042D00D90425191D072901D2002300E048
:10094000DB1E012606FA05F1491E214099409E4012
:10095000761E16403143F0BC01F002B80CED00E009
:10096000064900F0070208684FF6FF03184040EA06
:100970000220034A10430860704700000CED00E0BD
:100980000000FA052DE9F0470F46050061D0434EFF
:10099000306800F00700B84209D2306820F0070044
:1009A00038433060306800F00700B84251D1286801
:1009B0003B4C810712D5400703D5606840F4E060E6
:1009C00060602878000703D5606840F4605060607C
:1009D0006068A96820F0F000084360602878C007CC
:1009E00028D06868012810D02168022810D0890713
:1009F00000292EDA616821F0030101436160FFF7ED
:100A000041FF804641F288390DE021688903EFE714
:100A10008901EDE7FFF736FFA0EB0801494502D950
:100A20000320BDE8F0876068696800F00C00B0EB57
:100A3000810FEFD1306800F00700B8420BD9306861
:100A400020F0070038433060306800F00700B842FB
:100A500001D00120E5E72878400705D56068E968FE
:100A600020F4E060084360602878000706D56068DD
:100A7000296920F4605040EAC100606000F018F875
:100A80006168084AC1F30311515CC8400649086017
:100A900006480068FFF716FF0020C2E7002002406A
:100AA000001002400C1A00080C0000200400002076
:100AB00012A185B00FC98DE80F0014A0144A006878
:100AC00004905168134801F00C03042B10D0082B3C
:100AD0000ED1C1F38343C9031DF803000AD5516841
:100AE00004AAC1F34041515C0A4A5043B0FBF1F003
:100AF00005B0704708494843FAE7000002030405BF
:100B0000060708090A0B0C0D0E0F10100102000059
:100B10000010024000127A0000093D002DE9F84F54
:100B2000040070D02078C04DC00749D06868C0F379
:100B30008100012807D06868C0F38100022809D12C
:100B40006868C00306D52868800339D56068002826
:100B5000E7D035E06068B0F5803F0BD010B1B0F55C
:100B6000A02F11D0286820F480302860286820F455
:100B7000802002E0286840F480302860606890B1EE
:100B8000FFF780FE06460AE0286840F480202860CF
:100B9000F0E700BFFFF776FE801B642873D8286853
:100BA0008003F7D50CE0FFF76DFE064605E000BFB9
:100BB000FFF768FE801B6428F0D828688003F7D40C
:100BC00020789A4E80074FF001094FF0000839D580
:100BD000686810F00C0F07D06868C0F38100022825
:100BE00009D16868C00306D42868800714D5206935
:100BF000012808D110E02069B0B1C6F80090FFF7D5
:100C000041FE074605E00AE1FFF73CFEC01B022853
:100C1000C4D828688007F7D52868616920F0F800F3
:100C200040EAC10028600DE0C6F80080FFF72AFE08
:100C3000074604E0FFF726FEC01B022823D82868D9
:100C40008007F7D4207800072CD57948A169D9B15D
:100C5000C0F80090FFF716FE074604E0FFF712FE0B
:100C6000C01B02280FD8686A8007F7D571484FF477
:100C7000FA510068B0FBF1F0009000BF0098411EEF
:100C80000091FAD20EE080E0C0F80080FFF7FAFD94
:100C9000074604E0FFF7F6FDC01B022875D8686A16
:100CA0008007F7D42078400760D5E8690027C000A6
:100CB00008D4E86940F08050E861E869012700F055
:100CC000805000905C480168C90513D401688346D0
:100CD00041F480710160FFF7D5FD824606E000BF58
:100CE000FFF7D0FDA0EB0A0064284ED8DBF8000027
:100CF000C005F5D5E06801280AD008B1052813D051
:100D0000286A20F001002862286A20F0040002E02E
:100D1000286A40F001002862E06841F2883B98B1FF
:100D2000FFF7B0FD82460BE0286A40F0040028621D
:100D3000EEE700BFFFF7A6FDA0EB0A0159455AD820
:100D4000286A8007F6D50CE0FFF79CFD824605E097
:100D5000FFF798FDA0EB0A0159454CD8286A800797
:100D6000F6D41FB1E86920F08050E861E06988B3EB
:100D70006968C1F38101022944D00228C6F8608065
:100D800004D0FFF77FFD044638E034E0FFF77AFD3A
:100D9000074604E0FFF776FDC01B02282BD8286821
:100DA0008001F7D4206AB0F5803F05D16868A1685A
:100DB00020F4003008436860D4E9080108436968FA
:100DC00021F4741108436860C6F86090FFF75AFD7B
:100DD000044606E025E000BFFFF754FD001B022893
:100DE00009D828688001F7D51BE000BFFFF74AFD4E
:100DF000001B022802D90320BDE8F88F2868800173
:100E0000F4D40EE00128F7D06868226A00F480313B
:100E1000914204D1616A00F47010884201D001202F
:100E2000EAE70020E8E7000000100240000042422C
:100E3000800442420C000020007000407047000017
:100E400038B50446006842688168C9434B0606D538
:100E5000CB0704D1D3435B0601D4216C05E08B079B
:100E600008D4D3431B0605D4616C01B02046BDE80D
:100E7000304008478B0601D54B0646D4D3439B062A
:100E800043D44B060AD494F85130032B3ED0636D03
:100E900043F004036365C36883680093890609D43B
:100EA000616D41F00101616581680091016821F087
:100EB00040010160606D002827D02068416821F062
:100EC000E0014160012084F85100900722D02068A1
:100ED000416821F003014160104DE06C40B1456371
:100EE000E06CFFF785F918B1606D40F04000606577
:100EF000A06C002809D04563A06CFFF779F90028A1
:100F000003D0606D40F04000606538BDC168806806
:100F1000009038BD2046FFF791FF38BD81170008CB
:100F200070B5040009D0606A002540B12561656193
:100F3000A56294F8510040B10CE0012070BD6068DA
:100F4000B0F5827FF4D0E561F2E784F85050204696
:100F500000F040F8022084F851002068016821F078
:100F600040010160A088218900F4827001F40441ED
:100F70000843A18901F400610843217C01F00201CA
:100F80000843217D01F001010843218B01F4007128
:100F90000843217F01F03801084394F8201001F044
:100FA00080010843218D01F4005108432168086045
:100FB000A069042101EA1040216848602068C169E5
:100FC00021F40061C1616565012084F851000020B1
:100FD00070BD000070B586B00025064600950195ED
:100FE0000295039500681E49884237D11D49C8699A
:100FF00040F48040C861C86900F48040049088696A
:1010000040F0080088618869694600F00800049093
:101010004FF42040009002200190032003901248DA
:10102000FFF72EFB124C114820601020C4E9010587
:101030008020C4E903056561A5612046E561FFF7ED
:1010400097FA08B1FFF7D2F8B464002211462420C1
:101050006662FFF765FC2420FFF755FC06B070BD03
:101060000038004000100240000C014058000240CF
:10107000A80000202DE9F84F044690F85000002702
:101080001D461646894601280DD04FF0010B84F805
:1010900050B0FFF7F7FB804694F85100BA4601289C
:1010A00004D0022793E00220BDE8F88FB9F1000FC9
:1010B00073D0002E71D0032084F85100C4F854A0DE
:1010C000C4F83090A686E686C4F838A0A4F83CA000
:1010D000A4F83EA0C4F844A0C4F840A0A068B0F5AD
:1010E000004F09D12068016821F0400101602068AB
:1010F000016841F48041016020680168490603D419
:10110000016841F040010160E068B0F5006F60687F
:1011100003D030B3012E24D041E008B1012E1CD100
:10112000206B21680088C86006E020688168890714
:1011300009D5216B0988C160206B801C2063E08E7B
:10114000401EE08609E0FFF79DFBA0EB0800A842E7
:1011500002D3681C01D031E07DB3E08E0028E4D1D9
:1011600020E0206B21680078087306E02068816821
:10117000890709D5216B09780173206B401C206316
:10118000E08E401EE0860AE0FFF77CFBA0EB080043
:10119000A84203D3681C02D010E017E06DB1E08EC6
:1011A0000028E3D142462946204600F039FB08B129
:1011B00020206065A06818B106E0FFE7032706E07D
:1011C0002068C16880680090606D00B1012784F8D4
:1011D00051B084F850A0384666E700002DE9F04190
:1011E000044690F850000026012809D0012784F811
:1011F000507094F851000025012804D002264EE0DA
:101200000220BDE8F08189B182B1032084F8510049
:1012100065652163A286E286A56365642564A5876A
:10122000E587A068B0F5004F02D00BE0012636E05C
:101230002068016821F0400101602068016841F4E4
:1012400080410160A16C1848C862A16C174888628F
:10125000A16C17480863A06C4563E38E2268216B7C
:101260000C32A06CFFF7C2F938B1606D40F010008D
:101270006065012684F8517011E020680168490614
:1012800003D4016841F0400101602068416841F0E9
:10129000200141602068416841F00201416084F80A
:1012A00050503046ADE70000B3170008BD170008E6
:1012B000911700087047704710B5401EB0F1807F4D
:1012C00001D3012010BD4FF0E02460610F216017B1
:1012D00000F046FB0020A06107202061002010BD27
:1012E000FEE72DE9F04107461C4615460E462A202A
:1012F00000F0A8F9380A00F0B3F9F8B200F0B0F93C
:10130000280A00F0ADF9E8B200F0AAF92B2000F0AD
:1013100099F9300A00F0A4F9F0B200F0A1F9200A1E
:1013200000F09EF9E0B200F09BF9BDE8F0412C20FE
:1013300000F088B970B5040AC5B2EF2300211A463F
:101340000846FFF7CEFF124900204FF4107200BF8D
:1013500001F8104001EB4003401C80B25D709042E8
:10136000F6D3012291030B48FFF786FA00244FF4CD
:1013700090652A4606490848FFF730FF0748FEF700
:10138000CFFF0228FAD0641CA4B2642CF1D370BD44
:10139000EC000020000C014010000020A8000020FC
:1013A0002DE9F047064608981C464FEA1028C7B2B8
:1013B000581E83B20D46481E81B291463046FFF753
:1013C00090FF0020A9EB0606134906E001F8108003
:1013D00001EB4002401C577080B28642F6DC0122CD
:1013E00091030E48FFF748FA00274FF6FF7000EA16
:1013F0004606641B0BE0324607490948FFF7EEFE3C
:101400000848FEF78DFF0228FAD07F1CBFB2BC420D
:10141000F1DCBDE8F0870000EC000020000C01408A
:1014200010000020A800002010B50D4C00228021E3
:101430002046FFF721FA0022A1152046FFF71CFAEB
:10144000002240212046FFF717FA7820FFF706F91F
:1014500020460122BDE810404021FFF70DBA0000F0
:101460000020014010B5FFF7DFFF7820FFF7F6F806
:10147000112000F0E7F87820FFF7F0F8362000F0B0
:10148000E1F8002000F0ECF83A2000F0DBF86520ED
:1014900000F0E6F8B22000F0D5F80C2000F0E0F8FB
:1014A0000C2000F0DDF8002000F0DAF8332000F026
:1014B000D7F8332000F0D4F8B72000F0C3F872203A
:1014C00000F0CEF8BB2000F0BDF83D2000F0C8F8D9
:1014D000C02000F0B7F82C2000F0C2F8C22000F0C5
:1014E000B1F8012000F0BCF8C32000F0ABF81920DF
:1014F00000F0B6F8C42000F0A5F8202000F0B0F805
:10150000C62000F09FF80F2000F0AAF8D02000F0CD
:1015100099F8A42000F0A4F8A12000F0A1F8E020A0
:1015200000F090F8D02000F09BF8042000F098F82C
:101530000D2000F095F8112000F092F8132000F033
:101540008FF82B2000F08CF83F2000F089F8542011
:1015500000F086F84C2000F083F8182000F080F8A6
:101560000D2000F07DF80B2000F07AF81F2000F02D
:1015700077F8232000F074F8E12000F063F8D02021
:1015800000F06EF8042000F06BF80C2000F068F812
:10159000112000F065F8132000F062F82C2000F014
:1015A0005FF83F2000F05CF8442000F059F851202B
:1015B00000F056F82F2000F053F81F2000F050F8EC
:1015C0001F2000F04DF8202000F04AF8232000F002
:1015D00047F8212000F036F8292000F033F8EF23F7
:1015E00000211A460846FFF77CFE4FF6FF70FFF712
:1015F000A1FE0122BDE8104011020148FFF73CB9ED
:10160000002001402DE9F0414FF6FF75B1FBF5F7E1
:101610000E468046002411E008D1B6FBF5F005FB2C
:101620001061C4EB044202EB080004E0C4EB044187
:1016300001EB0800294600F099F8641CBC42EBD984
:10164000BDE8F08101B500224FF480410348FFF767
:1016500013F901216846FFF7D5FF08BD000C0140D2
:1016600001B5012291030448FFF706F901216846FC
:10167000FFF7C8FF08BD0000000C01402DE9F04352
:1016800085B0002421480094019402940394816958
:1016900041F008018161816901F0080104918169CB
:1016A00041F480718161816901F4807104918169E3
:1016B00041F0040181618069012200F00400DFF83B
:1016C00050809503049029464046FFF7D5F8DFF88F
:1016D00044904FF4E077012239464846FFF7CCF8B2
:1016E0000095032601250396CDE90154694640463D
:1016F000FEF7C6FF00970396CDE9015469464846B8
:10170000FEF7BEFF05B0BDE8F08300000010024008
:10171000000C0140002001400E4810B50C4901604A
:101720004FF48271416000218160C1604FF400720A
:101730000161C0E90512C1610162416281620A2151
:10174000C162FFF7EDFB002801D072B6FEE710BDC5
:101750000038004010000020FEE7FEE77047000060
:101760000148FFF76DBB0000100000200A4601464B
:101770004FF6FF730148FFF77DBC0000100000200A
:1017800010B5406A0021C187C186FFF757FB10BD25
:1017900010B5406A01684A6822F003024A60416D50
:1017A00041F010014165012180F85110FFF746FB1F
:1017B00010BD10B5406AFFF77EFD10BD38B5054677
:1017C000446AFFF75FF8024628680068800623D461
:1017D0002068416821F0200141602068416821F0C3
:1017E000020141606421204600F01AF818B1606DD2
:1017F00040F020006065A068002118B92068C26828
:1018000080680090E186012084F85100606D18B175
:101810002046FFF713FB38BD2046FFF74BFD38BDD0
:1018200038B50B46009204460022802100F008F8EB
:10183000002804D0606D40F020006065032038BDB2
:101840002DE9F8431E46914688460446089DFFF759
:1018500019F8401B351AFFF715F8074625480068A8
:10186000C0F3CB30684338E0701C37D0FFF70AF87C
:10187000C01BA84203D215B1009860B32CE02068C9
:10188000416821F0E00141606068B0F5827F0BD1D2
:10189000A068B0F5004F02D0B0F5806F04D1206889
:1018A000016821F040010160A06AB0F5005F09D134
:1018B0002068016821F4005101602068016841F44A
:1018C00000510160012084F85100002084F850008C
:1018D0000320BDE8F8830025401E00902068816841
:1018E00038EA010004D000214945BDD10020F0E7CD
:1018F0000121F9E70C0000207047FEF7C9BF30B5A1
:101900008FB028216846FEF736FC14210AA8FEF79E
:1019100032FC01210804CDE90010002402940225C4
:101920000491CDE907504FF4E01009906846FFF7A5
:10193000F5F808B172B6FEE70F20CDE90A054FF4BD
:101940008060CDE90C4002210AA80E94FFF71AF836
:10195000002801D072B6FEE70FB030BD7047FEE739
:101960000907090E002804DB00F1E02080F80014CC
:10197000704700F00F0000F1E02080F8141D704760
:1019800002E008C8121F08C1002AFAD17047704748
:10199000002001E001C1121F002AFBD170470000A6
:1019A00008B5FEF77DFFFFF7AAFFFFF767FE4FF4CC
:1019B0007A742046FEF752FE1349486940F0010050
:1019C00048614869002200F00100009001210F20C9
:1019D000FEF7A6FF0F20FEF796FF2046FEF73EFE1D
:1019E000FFF79AFE2046FEF739FEFFF73BFD204643
:1019F000FEF734FE40F2FF70BE23322100901A46FB
:101A00000846FFF7CDFCFEE7001002400000000092
:101A10000000000001020304060708093C1A000840
:101A20000000002010000000801900084C1A000877
:101A3000100000206009000090190008010000005B
:0C1A400010000000000000000024F40072
:0400000508000131BD
:00000001FF
